{
  "contractName": "AccessControlEnumerableMock",
  "abi": [
    {
      "inputs": [],
      "stateMutability": "nonpayable",
      "type": "constructor"
    },
    {
      "anonymous": false,
      "inputs": [
        {
          "indexed": true,
          "internalType": "bytes32",
          "name": "role",
          "type": "bytes32"
        },
        {
          "indexed": true,
          "internalType": "bytes32",
          "name": "previousAdminRole",
          "type": "bytes32"
        },
        {
          "indexed": true,
          "internalType": "bytes32",
          "name": "newAdminRole",
          "type": "bytes32"
        }
      ],
      "name": "RoleAdminChanged",
      "type": "event"
    },
    {
      "anonymous": false,
      "inputs": [
        {
          "indexed": true,
          "internalType": "bytes32",
          "name": "role",
          "type": "bytes32"
        },
        {
          "indexed": true,
          "internalType": "address",
          "name": "account",
          "type": "address"
        },
        {
          "indexed": true,
          "internalType": "address",
          "name": "sender",
          "type": "address"
        }
      ],
      "name": "RoleGranted",
      "type": "event"
    },
    {
      "anonymous": false,
      "inputs": [
        {
          "indexed": true,
          "internalType": "bytes32",
          "name": "role",
          "type": "bytes32"
        },
        {
          "indexed": true,
          "internalType": "address",
          "name": "account",
          "type": "address"
        },
        {
          "indexed": true,
          "internalType": "address",
          "name": "sender",
          "type": "address"
        }
      ],
      "name": "RoleRevoked",
      "type": "event"
    },
    {
      "inputs": [],
      "name": "DEFAULT_ADMIN_ROLE",
      "outputs": [
        {
          "internalType": "bytes32",
          "name": "",
          "type": "bytes32"
        }
      ],
      "stateMutability": "view",
      "type": "function"
    },
    {
      "inputs": [
        {
          "internalType": "bytes32",
          "name": "role",
          "type": "bytes32"
        }
      ],
      "name": "getRoleAdmin",
      "outputs": [
        {
          "internalType": "bytes32",
          "name": "",
          "type": "bytes32"
        }
      ],
      "stateMutability": "view",
      "type": "function"
    },
    {
      "inputs": [
        {
          "internalType": "bytes32",
          "name": "role",
          "type": "bytes32"
        },
        {
          "internalType": "uint256",
          "name": "index",
          "type": "uint256"
        }
      ],
      "name": "getRoleMember",
      "outputs": [
        {
          "internalType": "address",
          "name": "",
          "type": "address"
        }
      ],
      "stateMutability": "view",
      "type": "function"
    },
    {
      "inputs": [
        {
          "internalType": "bytes32",
          "name": "role",
          "type": "bytes32"
        }
      ],
      "name": "getRoleMemberCount",
      "outputs": [
        {
          "internalType": "uint256",
          "name": "",
          "type": "uint256"
        }
      ],
      "stateMutability": "view",
      "type": "function"
    },
    {
      "inputs": [
        {
          "internalType": "bytes32",
          "name": "role",
          "type": "bytes32"
        },
        {
          "internalType": "address",
          "name": "account",
          "type": "address"
        }
      ],
      "name": "grantRole",
      "outputs": [],
      "stateMutability": "nonpayable",
      "type": "function"
    },
    {
      "inputs": [
        {
          "internalType": "bytes32",
          "name": "role",
          "type": "bytes32"
        },
        {
          "internalType": "address",
          "name": "account",
          "type": "address"
        }
      ],
      "name": "hasRole",
      "outputs": [
        {
          "internalType": "bool",
          "name": "",
          "type": "bool"
        }
      ],
      "stateMutability": "view",
      "type": "function"
    },
    {
      "inputs": [
        {
          "internalType": "bytes32",
          "name": "role",
          "type": "bytes32"
        },
        {
          "internalType": "address",
          "name": "account",
          "type": "address"
        }
      ],
      "name": "renounceRole",
      "outputs": [],
      "stateMutability": "nonpayable",
      "type": "function"
    },
    {
      "inputs": [
        {
          "internalType": "bytes32",
          "name": "role",
          "type": "bytes32"
        },
        {
          "internalType": "address",
          "name": "account",
          "type": "address"
        }
      ],
      "name": "revokeRole",
      "outputs": [],
      "stateMutability": "nonpayable",
      "type": "function"
    },
    {
      "inputs": [
        {
          "internalType": "bytes4",
          "name": "interfaceId",
          "type": "bytes4"
        }
      ],
      "name": "supportsInterface",
      "outputs": [
        {
          "internalType": "bool",
          "name": "",
          "type": "bool"
        }
      ],
      "stateMutability": "view",
      "type": "function"
    },
    {
      "inputs": [
        {
          "internalType": "bytes32",
          "name": "roleId",
          "type": "bytes32"
        },
        {
          "internalType": "bytes32",
          "name": "adminRoleId",
          "type": "bytes32"
        }
      ],
      "name": "setRoleAdmin",
      "outputs": [],
      "stateMutability": "nonpayable",
      "type": "function"
    }
  ],
  "bytecode": "0x60806040523480156200001157600080fd5b50620000366000801b6200002a6200003c60201b60201c565b6200004460201b60201c565b620002d2565b600033905090565b6200005b82826200008c60201b620004281760201c565b620000878160016000858152602001908152602001600020620000a260201b620004361790919060201c565b505050565b6200009e8282620000da60201b60201c565b5050565b6000620000d2836000018373ffffffffffffffffffffffffffffffffffffffff1660001b620001cb60201b60201c565b905092915050565b620000ec82826200024560201b60201c565b620001c757600160008084815260200190815260200160002060000160008373ffffffffffffffffffffffffffffffffffffffff1673ffffffffffffffffffffffffffffffffffffffff16815260200190815260200160002060006101000a81548160ff0219169083151502179055506200016c6200003c60201b60201c565b73ffffffffffffffffffffffffffffffffffffffff168173ffffffffffffffffffffffffffffffffffffffff16837f2f8788117e7eff1d82e926ec794901d17c78024a50270940304540a733656f0d60405160405180910390a45b5050565b6000620001df8383620002af60201b60201c565b6200023a5782600001829080600181540180825580915050600190039060005260206000200160009091909190915055826000018054905083600101600084815260200190815260200160002081905550600190506200023f565b600090505b92915050565b600080600084815260200190815260200160002060000160008373ffffffffffffffffffffffffffffffffffffffff1673ffffffffffffffffffffffffffffffffffffffff16815260200190815260200160002060009054906101000a900460ff16905092915050565b600080836001016000848152602001908152602001600020541415905092915050565b6111a080620002e26000396000f3fe608060405234801561001057600080fd5b506004361061009e5760003560e01c80639010d07c116100665780639010d07c1461015757806391d1485414610187578063a217fddf146101b7578063ca15c873146101d5578063d547741f146102055761009e565b806301ffc9a7146100a35780631e4e0091146100d3578063248a9ca3146100ef5780632f2ff15d1461011f57806336568abe1461013b575b600080fd5b6100bd60048036038101906100b89190610d03565b610221565b6040516100ca9190610e0f565b60405180910390f35b6100ed60048036038101906100e89190610c8b565b61029b565b005b61010960048036038101906101049190610c26565b6102a9565b6040516101169190610e2a565b60405180910390f35b61013960048036038101906101349190610c4f565b6102c8565b005b61015560048036038101906101509190610c4f565b6102fc565b005b610171600480360381019061016c9190610cc7565b610330565b60405161017e9190610df4565b60405180910390f35b6101a1600480360381019061019c9190610c4f565b61035f565b6040516101ae9190610e0f565b60405180910390f35b6101bf6103c9565b6040516101cc9190610e2a565b60405180910390f35b6101ef60048036038101906101ea9190610c26565b6103d0565b6040516101fc9190610ec5565b60405180910390f35b61021f600480360381019061021a9190610c4f565b6103f4565b005b60007f5a05180f000000000000000000000000000000000000000000000000000000007bffffffffffffffffffffffffffffffffffffffffffffffffffffffff1916827bffffffffffffffffffffffffffffffffffffffffffffffffffffffff19161480610294575061029382610466565b5b9050919050565b6102a582826104e0565b5050565b6000806000838152602001908152602001600020600101549050919050565b6102d28282610535565b6102f7816001600085815260200190815260200160002061043690919063ffffffff16565b505050565b610306828261059b565b61032b816001600085815260200190815260200160002061061e90919063ffffffff16565b505050565b6000610357826001600086815260200190815260200160002061064e90919063ffffffff16565b905092915050565b600080600084815260200190815260200160002060000160008373ffffffffffffffffffffffffffffffffffffffff1673ffffffffffffffffffffffffffffffffffffffff16815260200190815260200160002060009054906101000a900460ff16905092915050565b6000801b81565b60006103ed60016000848152602001908152602001600020610668565b9050919050565b6103fe828261067d565b610423816001600085815260200190815260200160002061061e90919063ffffffff16565b505050565b61043282826106e3565b5050565b600061045e836000018373ffffffffffffffffffffffffffffffffffffffff1660001b6107c3565b905092915050565b60007f7965db0b000000000000000000000000000000000000000000000000000000007bffffffffffffffffffffffffffffffffffffffffffffffffffffffff1916827bffffffffffffffffffffffffffffffffffffffffffffffffffffffff191614806104d957506104d882610833565b5b9050919050565b806104ea836102a9565b837fbd79b86ffe0ab8e8776151514217cd7cacd52c909f66475c3af44e129f0b00ff60405160405180910390a480600080848152602001908152602001600020600101819055505050565b61054e610541836102a9565b61054961089d565b61035f565b61058d576040517f08c379a000000000000000000000000000000000000000000000000000000000815260040161058490610e65565b60405180910390fd5b61059782826106e3565b5050565b6105a361089d565b73ffffffffffffffffffffffffffffffffffffffff168173ffffffffffffffffffffffffffffffffffffffff1614610610576040517f08c379a000000000000000000000000000000000000000000000000000000000815260040161060790610ea5565b60405180910390fd5b61061a82826108a5565b5050565b6000610646836000018373ffffffffffffffffffffffffffffffffffffffff1660001b610986565b905092915050565b600061065d8360000183610b04565b60001c905092915050565b600061067682600001610b9e565b9050919050565b610696610689836102a9565b61069161089d565b61035f565b6106d5576040517f08c379a00000000000000000000000000000000000000000000000000000000081526004016106cc90610e85565b60405180910390fd5b6106df82826108a5565b5050565b6106ed828261035f565b6107bf57600160008084815260200190815260200160002060000160008373ffffffffffffffffffffffffffffffffffffffff1673ffffffffffffffffffffffffffffffffffffffff16815260200190815260200160002060006101000a81548160ff02191690831515021790555061076461089d565b73ffffffffffffffffffffffffffffffffffffffff168173ffffffffffffffffffffffffffffffffffffffff16837f2f8788117e7eff1d82e926ec794901d17c78024a50270940304540a733656f0d60405160405180910390a45b5050565b60006107cf8383610baf565b61082857826000018290806001815401808255809150506001900390600052602060002001600090919091909150558260000180549050836001016000848152602001908152602001600020819055506001905061082d565b600090505b92915050565b60007f01ffc9a7000000000000000000000000000000000000000000000000000000007bffffffffffffffffffffffffffffffffffffffffffffffffffffffff1916827bffffffffffffffffffffffffffffffffffffffffffffffffffffffff1916149050919050565b600033905090565b6108af828261035f565b1561098257600080600084815260200190815260200160002060000160008373ffffffffffffffffffffffffffffffffffffffff1673ffffffffffffffffffffffffffffffffffffffff16815260200190815260200160002060006101000a81548160ff02191690831515021790555061092761089d565b73ffffffffffffffffffffffffffffffffffffffff168173ffffffffffffffffffffffffffffffffffffffff16837ff6391f5c32d9c69d2a47ea670b442974b53935d1edc7fd64eb21e047a839171b60405160405180910390a45b5050565b60008083600101600084815260200190815260200160002054905060008114610af85760006001826109b89190610ef1565b90506000600186600001805490506109d09190610ef1565b90506000866000018281548110610a10577f4e487b7100000000000000000000000000000000000000000000000000000000600052603260045260246000fd5b9060005260206000200154905080876000018481548110610a5a577f4e487b7100000000000000000000000000000000000000000000000000000000600052603260045260246000fd5b9060005260206000200181905550838760010160008381526020019081526020016000208190555086600001805480610abc577f4e487b7100000000000000000000000000000000000000000000000000000000600052603160045260246000fd5b60019003818190600052602060002001600090559055866001016000878152602001908152602001600020600090556001945050505050610afe565b60009150505b92915050565b600081836000018054905011610b4f576040517f08c379a0000000000000000000000000000000000000000000000000000000008152600401610b4690610e45565b60405180910390fd5b826000018281548110610b8b577f4e487b7100000000000000000000000000000000000000000000000000000000600052603260045260246000fd5b9060005260206000200154905092915050565b600081600001805490509050919050565b600080836001016000848152602001908152602001600020541415905092915050565b600081359050610be18161110e565b92915050565b600081359050610bf681611125565b92915050565b600081359050610c0b8161113c565b92915050565b600081359050610c2081611153565b92915050565b600060208284031215610c3857600080fd5b6000610c4684828501610be7565b91505092915050565b60008060408385031215610c6257600080fd5b6000610c7085828601610be7565b9250506020610c8185828601610bd2565b9150509250929050565b60008060408385031215610c9e57600080fd5b6000610cac85828601610be7565b9250506020610cbd85828601610be7565b9150509250929050565b60008060408385031215610cda57600080fd5b6000610ce885828601610be7565b9250506020610cf985828601610c11565b9150509250929050565b600060208284031215610d1557600080fd5b6000610d2384828501610bfc565b91505092915050565b610d3581610f25565b82525050565b610d4481610f37565b82525050565b610d5381610f43565b82525050565b6000610d66602283610ee0565b9150610d7182610fd2565b604082019050919050565b6000610d89602f83610ee0565b9150610d9482611021565b604082019050919050565b6000610dac603083610ee0565b9150610db782611070565b604082019050919050565b6000610dcf602f83610ee0565b9150610dda826110bf565b604082019050919050565b610dee81610f99565b82525050565b6000602082019050610e096000830184610d2c565b92915050565b6000602082019050610e246000830184610d3b565b92915050565b6000602082019050610e3f6000830184610d4a565b92915050565b60006020820190508181036000830152610e5e81610d59565b9050919050565b60006020820190508181036000830152610e7e81610d7c565b9050919050565b60006020820190508181036000830152610e9e81610d9f565b9050919050565b60006020820190508181036000830152610ebe81610dc2565b9050919050565b6000602082019050610eda6000830184610de5565b92915050565b600082825260208201905092915050565b6000610efc82610f99565b9150610f0783610f99565b925082821015610f1a57610f19610fa3565b5b828203905092915050565b6000610f3082610f79565b9050919050565b60008115159050919050565b6000819050919050565b60007fffffffff0000000000000000000000000000000000000000000000000000000082169050919050565b600073ffffffffffffffffffffffffffffffffffffffff82169050919050565b6000819050919050565b7f4e487b7100000000000000000000000000000000000000000000000000000000600052601160045260246000fd5b7f456e756d657261626c655365743a20696e646578206f7574206f6620626f756e60008201527f6473000000000000000000000000000000000000000000000000000000000000602082015250565b7f416363657373436f6e74726f6c3a2073656e646572206d75737420626520616e60008201527f2061646d696e20746f206772616e740000000000000000000000000000000000602082015250565b7f416363657373436f6e74726f6c3a2073656e646572206d75737420626520616e60008201527f2061646d696e20746f207265766f6b6500000000000000000000000000000000602082015250565b7f416363657373436f6e74726f6c3a2063616e206f6e6c792072656e6f756e636560008201527f20726f6c657320666f722073656c660000000000000000000000000000000000602082015250565b61111781610f25565b811461112257600080fd5b50565b61112e81610f43565b811461113957600080fd5b50565b61114581610f4d565b811461115057600080fd5b50565b61115c81610f99565b811461116757600080fd5b5056fea2646970667358221220c0d506155da0b9b0de1e9b45cc9399a8ea7395e3f2d4b08184341349720c1e3b64736f6c63430008020033",
  "immutableReferences": {},
  "source": "// SPDX-License-Identifier: MIT\n\npragma solidity ^0.8.0;\n\nimport \"../access/AccessControlEnumerable.sol\";\n\ncontract AccessControlEnumerableMock is AccessControlEnumerable {\n    constructor() {\n        _setupRole(DEFAULT_ADMIN_ROLE, _msgSender());\n    }\n\n    function setRoleAdmin(bytes32 roleId, bytes32 adminRoleId) public {\n        _setRoleAdmin(roleId, adminRoleId);\n    }\n}\n",
  "sourcePath": "/home/semiott/Apps/eth-apps/EddyNet/core/contracts/external/contracts/mocks/AccessControlEnumerableMock.sol",
  "compiler": {
    "name": "solc",
    "version": "0.8.2+commit.661d1103.Emscripten.clang"
  },
  "schemaVersion": "3.3.4",
  "updatedAt": "2021-03-21T17:16:14.364Z",
  "devdoc": {
    "kind": "dev",
    "methods": {
      "getRoleAdmin(bytes32)": {
        "details": "Returns the admin role that controls `role`. See {grantRole} and {revokeRole}. To change a role's admin, use {_setRoleAdmin}."
      },
      "getRoleMember(bytes32,uint256)": {
        "details": "Returns one of the accounts that have `role`. `index` must be a value between 0 and {getRoleMemberCount}, non-inclusive. Role bearers are not sorted in any particular way, and their ordering may change at any point. WARNING: When using {getRoleMember} and {getRoleMemberCount}, make sure you perform all queries on the same block. See the following https://forum.openzeppelin.com/t/iterating-over-elements-on-enumerableset-in-openzeppelin-contracts/2296[forum post] for more information."
      },
      "getRoleMemberCount(bytes32)": {
        "details": "Returns the number of accounts that have `role`. Can be used together with {getRoleMember} to enumerate all bearers of a role."
      },
      "grantRole(bytes32,address)": {
        "details": "Overload {grantRole} to track enumerable memberships"
      },
      "hasRole(bytes32,address)": {
        "details": "Returns `true` if `account` has been granted `role`."
      },
      "renounceRole(bytes32,address)": {
        "details": "Overload {renounceRole} to track enumerable memberships"
      },
      "revokeRole(bytes32,address)": {
        "details": "Overload {revokeRole} to track enumerable memberships"
      },
      "supportsInterface(bytes4)": {
        "details": "See {IERC165-supportsInterface}."
      }
    },
    "version": 1
  },
  "userdoc": {
    "kind": "user",
    "methods": {},
    "version": 1
  }
}