{
  "contractName": "BurnVerifier",
  "abi": [
    {
      "inputs": [
        {
          "internalType": "address",
          "name": "_ip",
          "type": "address"
        }
      ],
      "stateMutability": "nonpayable",
      "type": "constructor"
    },
    {
      "inputs": [
        {
          "components": [
            {
              "internalType": "bytes32",
              "name": "x",
              "type": "bytes32"
            },
            {
              "internalType": "bytes32",
              "name": "y",
              "type": "bytes32"
            }
          ],
          "internalType": "struct Utils.G1Point",
          "name": "CLn",
          "type": "tuple"
        },
        {
          "components": [
            {
              "internalType": "bytes32",
              "name": "x",
              "type": "bytes32"
            },
            {
              "internalType": "bytes32",
              "name": "y",
              "type": "bytes32"
            }
          ],
          "internalType": "struct Utils.G1Point",
          "name": "CRn",
          "type": "tuple"
        },
        {
          "components": [
            {
              "internalType": "bytes32",
              "name": "x",
              "type": "bytes32"
            },
            {
              "internalType": "bytes32",
              "name": "y",
              "type": "bytes32"
            }
          ],
          "internalType": "struct Utils.G1Point",
          "name": "y",
          "type": "tuple"
        },
        {
          "internalType": "uint256",
          "name": "epoch",
          "type": "uint256"
        },
        {
          "components": [
            {
              "internalType": "bytes32",
              "name": "x",
              "type": "bytes32"
            },
            {
              "internalType": "bytes32",
              "name": "y",
              "type": "bytes32"
            }
          ],
          "internalType": "struct Utils.G1Point",
          "name": "u",
          "type": "tuple"
        },
        {
          "internalType": "address",
          "name": "sender",
          "type": "address"
        },
        {
          "internalType": "bytes",
          "name": "proof",
          "type": "bytes"
        }
      ],
      "name": "verifyBurn",
      "outputs": [
        {
          "internalType": "bool",
          "name": "",
          "type": "bool"
        }
      ],
      "stateMutability": "view",
      "type": "function"
    }
  ],
  "bytecode": "0x60806040523480156200001157600080fd5b50604051620028a7380380620028a7833981810160405281019062000037919062000095565b806000806101000a81548173ffffffffffffffffffffffffffffffffffffffff021916908373ffffffffffffffffffffffffffffffffffffffff160217905550506200010f565b6000815190506200008f81620000f5565b92915050565b600060208284031215620000a857600080fd5b6000620000b8848285016200007e565b91505092915050565b6000620000ce82620000d5565b9050919050565b600073ffffffffffffffffffffffffffffffffffffffff82169050919050565b6200010081620000c1565b81146200010c57600080fd5b50565b612788806200011f6000396000f3fe608060405234801561001057600080fd5b506004361061002b5760003560e01c806391d16ac814610030575b600080fd5b61004a60048036038101906100459190611d89565b610060565b6040516100579190612140565b60405180910390f35b600061006a611965565b88816000018190525087816020018190525086816040018190525085816060018181525050848160a0018190525083816080019073ffffffffffffffffffffffffffffffffffffffff16908173ffffffffffffffffffffffffffffffffffffffff168152505060006100db846100f6565b90506100e7828261051c565b92505050979650505050505050565b6100fe6119c9565b604051806040016040528061011484600061136c565b815260200161012484602061136c565b8152508160000181905250604051806040016040528061014584604061136c565b815260200161015584606061136c565b8152508160200181905250604051806040016040528061017684608061136c565b81526020016101868460a061136c565b815250816040018190525060405180604001604052806101a78460c061136c565b81526020016101b78460e061136c565b81525081606001819052506101ce8261010061136c565b60001c8160800181815250506101e68261012061136c565b60001c8160a00181815250506101fe8261014061136c565b60001c8160c00181815250506102168261016061136c565b60001c8160e001818152505061022e8261018061136c565b60001c81610100018181525050610247826101a061136c565b60001c8161012001818152505061025c611a41565b600567ffffffffffffffff81111561029d577f4e487b7100000000000000000000000000000000000000000000000000000000600052604160045260246000fd5b6040519080825280602002602001820160405280156102d657816020015b6102c3611a69565b8152602001906001900390816102bb5790505b508160000181905250600567ffffffffffffffff811115610320577f4e487b7100000000000000000000000000000000000000000000000000000000600052604160045260246000fd5b60405190808252806020026020018201604052801561035957816020015b610346611a69565b81526020019060019003908161033e5790505b50816020018190525060005b60058110156104db57604051806040016040528061039c8660408561038a91906123e3565b6101c0610397919061235c565b61136c565b81526020016103c4866040856103b291906123e3565b6101e06103bf919061235c565b61136c565b81525082600001518281518110610404577f4e487b7100000000000000000000000000000000000000000000000000000000600052603260045260246000fd5b6020026020010181905250604051806040016040528061044986604085600561042d919061235c565b61043791906123e3565b6101c0610444919061235c565b61136c565b815260200161047d866040856005610461919061235c565b61046b91906123e3565b6101e0610478919061235c565b61136c565b815250826020015182815181106104bd577f4e487b7100000000000000000000000000000000000000000000000000000000600052603260045260246000fd5b602002602001018190525080806104d390612536565b915050610365565b506104e88361044061136c565b60001c8160400181815250506105008361046061136c565b60001c8160600181815250508082610140018190525050919050565b60008061056d8460000151856020015186604001518760600151886080015160405160200161054f95949392919061219b565b6040516020818303038152906040528051906020012060001c611385565b9050610577611a89565b6105b582856000015186602001516040516020016105979392919061220a565b6040516020818303038152906040528051906020012060001c611385565b816000018181525050600181602001516000602081106105fe577f4e487b7100000000000000000000000000000000000000000000000000000000600052603260045260246000fd5b6020020181815250506001816101000181815250506000600190505b6020811015610743576106878260000151836020015160018461063d919061243d565b60208110610674577f4e487b7100000000000000000000000000000000000000000000000000000000600052603260045260246000fd5b60200201516113ba90919063ffffffff16565b826020015182602081106106c4577f4e487b7100000000000000000000000000000000000000000000000000000000600052603260045260246000fd5b6020020181815250506107268260200151826020811061070d577f4e487b7100000000000000000000000000000000000000000000000000000000600052603260045260246000fd5b602002015183610100015161141c90919063ffffffff16565b82610100018181525050808061073b90612536565b91505061061a565b5061077a816000015160405160200161075c91906121ef565b6040516020818303038152906040528051906020012060001c611385565b81604001818152505061079e816040015182604001516113ba90919063ffffffff16565b81606001516000600181106107dc577f4e487b7100000000000000000000000000000000000000000000000000000000600052603260045260246000fd5b60200201818152505061083e8160400151826060015160006001811061082b577f4e487b7100000000000000000000000000000000000000000000000000000000600052603260045260246000fd5b60200201516113ba90919063ffffffff16565b8160800181815250506108fa61087c826080015161086e64010000000085608001516113ba90919063ffffffff16565b61147e90919063ffffffff16565b6108ec6108d884606001516000600181106108c0577f4e487b7100000000000000000000000000000000000000000000000000000000600052603260045260246000fd5b6020020151856040015161147e90919063ffffffff16565b8461010001516113ba90919063ffffffff16565b61147e90919063ffffffff16565b81610100018181525050610920816101000151856080015161147e90919063ffffffff16565b8160e001818152505060005b60208110156109e75761098e816001901b836060015160006001811061097b577f4e487b7100000000000000000000000000000000000000000000000000000000600052603260045260246000fd5b60200201516113ba90919063ffffffff16565b8260a0015182602081106109cb577f4e487b7100000000000000000000000000000000000000000000000000000000600052603260045260246000fd5b60200201818152505080806109df90612536565b91505061092c565b50610a2a816040015185604001518660600151604051602001610a0c9392919061220a565b6040516020818303038152906040528051906020012060001c611385565b8160c0018181525050610a90610a67610a548360c001518460c001516113ba90919063ffffffff16565b86606001516114d990919063ffffffff16565b610a828360c0015187604001516114d990919063ffffffff16565b61151290919063ffffffff16565b816101200181905250610aa1611af4565b610af3610ac7610ab48760c00151611556565b88604001516114d990919063ffffffff16565b610ae58760e00151610ad761158b565b6114d990919063ffffffff16565b61151290919063ffffffff16565b8160200181905250610bce610ba18360600151600060018110610b3f577f4e487b7100000000000000000000000000000000000000000000000000000000600052603260045260246000fd5b6020020151610b93610b6a610b578a60c00151611556565b8b600001516114d990919063ffffffff16565b610b858a60e001518c602001516114d990919063ffffffff16565b61151290919063ffffffff16565b6114d990919063ffffffff16565b610bc0876101000151610bb261158b565b6114d990919063ffffffff16565b61151290919063ffffffff16565b8160400181905250610c91610c00610bea876101000151611556565b610bf261158b565b6114d990919063ffffffff16565b610c83610c22886101200151610c146115f3565b6114d990919063ffffffff16565b610c758960c00151610c67610c3b89610120015161165b565b610c598a60e00151610c4b61158b565b6114d990919063ffffffff16565b61151290919063ffffffff16565b6114d990919063ffffffff16565b61151290919063ffffffff16565b61151290919063ffffffff16565b8160600181905250610cdc6040518060400160405280600681526020017f5a6574686572000000000000000000000000000000000000000000000000000081525087606001516116b8565b8160800181905250610d33610d0a610cf78760c00151611556565b8860a001516114d990919063ffffffff16565b610d258760e0015184608001516114d990919063ffffffff16565b61151290919063ffffffff16565b8160a00181905250610d898260c001518260200151836040015184606001518560a00151604051602001610d6b959493929190612241565b6040516020818303038152906040528051906020012060001c611385565b8160000181815250508460c00151816000015114610ddc576040517f08c379a0000000000000000000000000000000000000000000000000000000008152600401610dd39061215b565b60405180910390fd5b610de4611b48565b610e1a8260000151604051602001610dfc91906121ef565b6040516020818303038152906040528051906020012060001c611385565b816080018181525050610e418160800151610e336115f3565b6114d990919063ffffffff16565b8160200181905250602067ffffffffffffffff811115610e8a577f4e487b7100000000000000000000000000000000000000000000000000000000600052604160045260246000fd5b604051908082528060200260200182016040528015610ec357816020015b610eb0611a69565b815260200190600190039081610ea85790505b50816040018190525060005b602081101561115557610fdb610f2585602001518360208110610f1b577f4e487b7100000000000000000000000000000000000000000000000000000000600052603260045260246000fd5b6020020151611727565b60008054906101000a900473ffffffffffffffffffffffffffffffffffffffff1673ffffffffffffffffffffffffffffffffffffffff16633844923b846040518263ffffffff1660e01b8152600401610f7e91906121ef565b604080518083038186803b158015610f9557600080fd5b505afa158015610fa9573d6000803e3d6000fd5b505050506040513d601f19601f82011682018060405250810190610fcd9190611d60565b6114d990919063ffffffff16565b82604001518281518110611018577f4e487b7100000000000000000000000000000000000000000000000000000000600052603260045260246000fd5b602002602001018190525061113a6111276110d48660a001518460208110611069577f4e487b7100000000000000000000000000000000000000000000000000000000600052603260045260246000fd5b60200201516110c68860400151896020015187602081106110b3577f4e487b7100000000000000000000000000000000000000000000000000000000600052603260045260246000fd5b60200201516113ba90919063ffffffff16565b61141c90919063ffffffff16565b84604001518481518110611111577f4e487b7100000000000000000000000000000000000000000000000000000000600052603260045260246000fd5b60200260200101516114d990919063ffffffff16565b836060015161151290919063ffffffff16565b8260600181905250808061114d90612536565b915050610ecf565b506111d481606001516111c66111876111718760400151611556565b611179611766565b6114d990919063ffffffff16565b6111b86111a58860c001518c602001516114d990919063ffffffff16565b8b6000015161151290919063ffffffff16565b61151290919063ffffffff16565b61151290919063ffffffff16565b81600001819052506112186112056111ef8860a00151611556565b6111f76115f3565b6114d990919063ffffffff16565b826000015161151290919063ffffffff16565b816000018190525061125161123e876080015183602001516114d990919063ffffffff16565b826000015161151290919063ffffffff16565b816000018190525060008054906101000a900473ffffffffffffffffffffffffffffffffffffffff1673ffffffffffffffffffffffffffffffffffffffff166397fa72ae8260400151836020015184600001518a610140015186608001516040518663ffffffff1660e01b81526004016112cf9594939291906120df565b60206040518083038186803b1580156112e757600080fd5b505afa1580156112fb573d6000803e3d6000fd5b505050506040513d601f19601f8201168201806040525081019061131f9190611d37565b61135e576040517f08c379a00000000000000000000000000000000000000000000000000000000081526004016113559061217b565b60405180910390fd5b600194505050505092915050565b6000604051826020850101518152805191505092915050565b60007f30644e72e131a029b85045b68181585d2833e84879b9709143e1f593f0000001826113b39190612589565b9050919050565b60007f30644e72e131a029b85045b68181585d2833e84879b9709143e1f593f000000180611411577f4e487b7100000000000000000000000000000000000000000000000000000000600052601260045260246000fd5b828409905092915050565b60007f30644e72e131a029b85045b68181585d2833e84879b9709143e1f593f000000180611473577f4e487b7100000000000000000000000000000000000000000000000000000000600052601260045260246000fd5b828408905092915050565b6000818310156114c45782827f30644e72e131a029b85045b68181585d2833e84879b9709143e1f593f00000016114b5919061243d565b6114bf919061235c565b6114d1565b81836114d0919061243d565b5b905092915050565b6114e1611a69565b604051835181526020840151602082015282604082015260408260608360075afa61150b57600080fd5b5092915050565b61151a611a69565b6040518351815260208401516020820152825160408201526020830151606082015260408260808360065afa61154f57600080fd5b5092915050565b6000817f30644e72e131a029b85045b68181585d2833e84879b9709143e1f593f0000001611584919061243d565b9050919050565b611593611a69565b60405180604001604052807f077da99d806abd13c9f15ece5398525119d11e11e9836b2ee7d23f6159ad87d460001b81526020017f01485efa927f2ad41bff567eec88f32fb0a0f706588b4e41a8d587d008b7f87560001b815250905090565b6115fb611a69565b60405180604001604052807f01b7de3dcf359928dd19f643d54dc487478b68a5b2634f9f1903c9fb78331aef60001b81526020017f2bda7d3ae6a557c716477c108be0d0f94abc6c4dc6b1bd93caccbcceaaa71d6b60001b815250905090565b611663611a69565b604051806040016040528083600001518152602001836020015160001c7f30644e72e131a029b85045b68181585d97816a916871ca8d3c208c16d87cfd476116ab919061243d565b60001b8152509050919050565b6116c0611a69565b61171f7f30644e72e131a029b85045b68181585d97816a916871ca8d3c208c16d87cfd4784846040516020016116f79291906120b7565b6040516020818303038152906040528051906020012060001c61171a9190612589565b6117ce565b905092915050565b600061175f8260027f30644e72e131a029b85045b68181585d2833e84879b9709143e1f593f000000161175a919061243d565b61188f565b9050919050565b61176e611a69565b60405180604001604052807f2257118d30fe5064dda298b2fac15cf96fd51f0e7e3df342d0aed40b8d7bb15160001b81526020017f0d4250e7509c99370e6b15ebfe4f1aa5e65a691133357901aa4b0641f96c80a860001b815250905090565b6117d6611a69565b60005b60011561186c57600060036117ef8560036118fa565b6117f9919061235c565b905061183d81600460017f30644e72e131a029b85045b68181585d97816a916871ca8d3c208c16d87cfd4761182e919061235c565b61183891906123b2565b6118fa565b91508061184b8360026118fa565b1415611857575061186c565b600184611864919061235c565b9350506117d9565b60405180604001604052808460001b81526020018260001b815250915050919050565b6000807f30644e72e131a029b85045b68181585d2833e84879b9709143e1f593f0000001905060405160208152602080820152602060408201528460608201528360808201528160a082015260208160c08360055afa6118ee57600080fd5b80519250505092915050565b6000807f30644e72e131a029b85045b68181585d97816a916871ca8d3c208c16d87cfd47905060405160208152602080820152602060408201528460608201528360808201528160a082015260208160c08360055afa61195957600080fd5b80519250505092915050565b6040518060c00160405280611978611a69565b8152602001611985611a69565b8152602001611992611a69565b815260200160008152602001600073ffffffffffffffffffffffffffffffffffffffff1681526020016119c3611a69565b81525090565b6040518061016001604052806119dd611a69565b81526020016119ea611a69565b81526020016119f7611a69565b8152602001611a04611a69565b8152602001600081526020016000815260200160008152602001600081526020016000815260200160008152602001611a3b611a41565b81525090565b6040518060800160405280606081526020016060815260200160008152602001600081525090565b604051806040016040528060008019168152602001600080191681525090565b60405180610140016040528060008152602001611aa4611b89565b815260200160008152602001611ab8611bac565b815260200160008152602001611acc611b89565b8152602001600081526020016000815260200160008152602001611aee611a69565b81525090565b6040518060c0016040528060008152602001611b0e611a69565b8152602001611b1b611a69565b8152602001611b28611a69565b8152602001611b35611a69565b8152602001611b42611a69565b81525090565b6040518060a00160405280611b5b611a69565b8152602001611b68611a69565b815260200160608152602001611b7c611a69565b8152602001600081525090565b604051806104000160405280602090602082028036833780820191505090505090565b6040518060200160405280600190602082028036833780820191505090505090565b6000611be1611bdc846122ba565b612295565b905082815260208101848484011115611bf957600080fd5b611c048482856124c3565b509392505050565b600081359050611c1b816126f6565b92915050565b600081519050611c308161270d565b92915050565b600081359050611c4581612724565b92915050565b600081519050611c5a81612724565b92915050565b600082601f830112611c7157600080fd5b8135611c81848260208601611bce565b91505092915050565b600060408284031215611c9c57600080fd5b611ca66040612295565b90506000611cb684828501611c36565b6000830152506020611cca84828501611c36565b60208301525092915050565b600060408284031215611ce857600080fd5b611cf26040612295565b90506000611d0284828501611c4b565b6000830152506020611d1684828501611c4b565b60208301525092915050565b600081359050611d318161273b565b92915050565b600060208284031215611d4957600080fd5b6000611d5784828501611c21565b91505092915050565b600060408284031215611d7257600080fd5b6000611d8084828501611cd6565b91505092915050565b6000806000806000806000610160888a031215611da557600080fd5b6000611db38a828b01611c8a565b9750506040611dc48a828b01611c8a565b9650506080611dd58a828b01611c8a565b95505060c0611de68a828b01611d22565b94505060e0611df78a828b01611c8a565b935050610120611e098a828b01611c0c565b92505061014088013567ffffffffffffffff811115611e2757600080fd5b611e338a828b01611c60565b91505092959891949750929550565b6000611e4e8383611fba565b60408301905092915050565b611e6381612471565b82525050565b6000611e74826122fb565b611e7e818561231e565b9350611e89836122eb565b8060005b83811015611eba578151611ea18882611e42565b9750611eac83612311565b925050600181019050611e8d565b5085935050505092915050565b6000611ed2826122fb565b611edc818561232f565b9350611ee7836122eb565b8060005b83811015611f18578151611eff8882611e42565b9750611f0a83612311565b925050600181019050611eeb565b5085935050505092915050565b611f2e81612483565b82525050565b611f3d8161248f565b82525050565b6000611f4e82612306565b611f588185612351565b9350611f688185602086016124d2565b80840191505092915050565b6000611f81602a83612340565b9150611f8c82612658565b604082019050919050565b6000611fa4602883612340565b9150611faf826126a7565b604082019050919050565b604082016000820151611fd06000850182611f34565b506020820151611fe36020850182611f34565b50505050565b604082016000820151611fff6000850182611f34565b5060208201516120126020850182611f34565b50505050565b600060808301600083015184820360008601526120358282611e69565b9150506020830151848203602086015261204f8282611e69565b91505060408301516120646040860182612082565b5060608301516120776060860182612082565b508091505092915050565b61208b816124b9565b82525050565b61209a816124b9565b82525050565b6120b16120ac826124b9565b61257f565b82525050565b60006120c38285611f43565b91506120cf82846120a0565b6020820191508190509392505050565b600060e08201905081810360008301526120f98188611ec7565b90506121086020830187611fe9565b6121156060830186611fe9565b81810360a08301526121278185612018565b905061213660c0830184612091565b9695505050505050565b60006020820190506121556000830184611f25565b92915050565b6000602082019050818103600083015261217481611f74565b9050919050565b6000602082019050818103600083015261219481611f97565b9050919050565b6000610100820190506121b16000830188611fe9565b6121be6040830187611fe9565b6121cb6080830186611fe9565b6121d860c0830185612091565b6121e560e0830184611e5a565b9695505050505050565b60006020820190506122046000830184612091565b92915050565b600060a08201905061221f6000830186612091565b61222c6020830185611fe9565b6122396060830184611fe9565b949350505050565b6000610120820190506122576000830188612091565b6122646020830187611fe9565b6122716060830186611fe9565b61227e60a0830185611fe9565b61228b60e0830184611fe9565b9695505050505050565b600061229f6122b0565b90506122ab8282612505565b919050565b6000604051905090565b600067ffffffffffffffff8211156122d5576122d4612618565b5b6122de82612647565b9050602081019050919050565b6000819050602082019050919050565b600081519050919050565b600081519050919050565b6000602082019050919050565b600082825260208201905092915050565b600082825260208201905092915050565b600082825260208201905092915050565b600081905092915050565b6000612367826124b9565b9150612372836124b9565b9250827fffffffffffffffffffffffffffffffffffffffffffffffffffffffffffffffff038211156123a7576123a66125ba565b5b828201905092915050565b60006123bd826124b9565b91506123c8836124b9565b9250826123d8576123d76125e9565b5b828204905092915050565b60006123ee826124b9565b91506123f9836124b9565b9250817fffffffffffffffffffffffffffffffffffffffffffffffffffffffffffffffff0483118215151615612432576124316125ba565b5b828202905092915050565b6000612448826124b9565b9150612453836124b9565b925082821015612466576124656125ba565b5b828203905092915050565b600061247c82612499565b9050919050565b60008115159050919050565b6000819050919050565b600073ffffffffffffffffffffffffffffffffffffffff82169050919050565b6000819050919050565b82818337600083830152505050565b60005b838110156124f05780820151818401526020810190506124d5565b838111156124ff576000848401525b50505050565b61250e82612647565b810181811067ffffffffffffffff8211171561252d5761252c612618565b5b80604052505050565b6000612541826124b9565b91507fffffffffffffffffffffffffffffffffffffffffffffffffffffffffffffffff821415612574576125736125ba565b5b600182019050919050565b6000819050919050565b6000612594826124b9565b915061259f836124b9565b9250826125af576125ae6125e9565b5b828206905092915050565b7f4e487b7100000000000000000000000000000000000000000000000000000000600052601160045260246000fd5b7f4e487b7100000000000000000000000000000000000000000000000000000000600052601260045260246000fd5b7f4e487b7100000000000000000000000000000000000000000000000000000000600052604160045260246000fd5b6000601f19601f8301169050919050565b7f5369676d612070726f746f636f6c206368616c6c656e676520657175616c697460008201527f79206661696c7572652e00000000000000000000000000000000000000000000602082015250565b7f496e6e65722070726f647563742070726f6f6620766572696669636174696f6e60008201527f206661696c65642e000000000000000000000000000000000000000000000000602082015250565b6126ff81612471565b811461270a57600080fd5b50565b61271681612483565b811461272157600080fd5b50565b61272d8161248f565b811461273857600080fd5b50565b612744816124b9565b811461274f57600080fd5b5056fea264697066735822122098093b73731b2276d8ff4f327888eb43d90263f1d84662f6f3d156be36e941e464736f6c63430008020033",
  "immutableReferences": {},
  "source": "// SPDX-License-Identifier: Apache License 2.0\n\npragma solidity ^0.8.0;\npragma experimental ABIEncoderV2;\n\nimport \"./Utils.sol\";\nimport \"./InnerProductVerifier.sol\";\n\ncontract BurnVerifier {\n    using Utils for uint256;\n    using Utils for Utils.G1Point;\n\n    InnerProductVerifier ip;\n\n    struct BurnStatement {\n        Utils.G1Point CLn;\n        Utils.G1Point CRn;\n        Utils.G1Point y;\n        uint256 epoch; // or uint8?\n        address sender;\n        Utils.G1Point u;\n    }\n\n    struct BurnProof {\n        Utils.G1Point BA;\n        Utils.G1Point BS;\n\n        Utils.G1Point T_1;\n        Utils.G1Point T_2;\n        uint256 tHat;\n        uint256 mu;\n\n        uint256 c;\n        uint256 s_sk;\n        uint256 s_b;\n        uint256 s_tau;\n\n        InnerProductVerifier.InnerProductProof ipProof;\n    }\n\n    constructor(address _ip) {\n        ip = InnerProductVerifier(_ip);\n    }\n\n    function verifyBurn(Utils.G1Point memory CLn, Utils.G1Point memory CRn, Utils.G1Point memory y, uint256 epoch, Utils.G1Point memory u, address sender, bytes memory proof) public view returns (bool) {\n        BurnStatement memory statement; // WARNING: if this is called directly in the console,\n        // and your strings are less than 64 characters, they will be padded on the right, not the left. should hopefully not be an issue,\n        // as this will typically be called simply by the other contract. still though, beware\n        statement.CLn = CLn;\n        statement.CRn = CRn;\n        statement.y = y;\n        statement.epoch = epoch;\n        statement.u = u;\n        statement.sender = sender;\n        BurnProof memory burnProof = unserialize(proof);\n        return verify(statement, burnProof);\n    }\n\n    struct BurnAuxiliaries {\n        uint256 y;\n        uint256[32] ys;\n        uint256 z;\n        uint256[1] zs; // silly. just to match zether.\n        uint256 zSum;\n        uint256[32] twoTimesZSquared;\n        uint256 x;\n        uint256 t;\n        uint256 k;\n        Utils.G1Point tEval;\n    }\n\n    struct SigmaAuxiliaries {\n        uint256 c;\n        Utils.G1Point A_y;\n        Utils.G1Point A_b;\n        Utils.G1Point A_t;\n        Utils.G1Point gEpoch;\n        Utils.G1Point A_u;\n    }\n\n    struct IPAuxiliaries {\n        Utils.G1Point P;\n        Utils.G1Point u_x;\n        Utils.G1Point[] hPrimes;\n        Utils.G1Point hPrimeSum;\n        uint256 o;\n    }\n\n    function gSum() internal pure returns (Utils.G1Point memory) {\n        return Utils.G1Point(0x2257118d30fe5064dda298b2fac15cf96fd51f0e7e3df342d0aed40b8d7bb151, 0x0d4250e7509c99370e6b15ebfe4f1aa5e65a691133357901aa4b0641f96c80a8);\n    }\n\n    function verify(BurnStatement memory statement, BurnProof memory proof) internal view returns (bool) {\n        uint256 statementHash = uint256(keccak256(abi.encode(statement.CLn, statement.CRn, statement.y, statement.epoch, statement.sender))).mod(); // stacktoodeep?\n\n        BurnAuxiliaries memory burnAuxiliaries;\n        burnAuxiliaries.y = uint256(keccak256(abi.encode(statementHash, proof.BA, proof.BS))).mod();\n        burnAuxiliaries.ys[0] = 1;\n        burnAuxiliaries.k = 1;\n        for (uint256 i = 1; i < 32; i++) {\n            burnAuxiliaries.ys[i] = burnAuxiliaries.ys[i - 1].mul(burnAuxiliaries.y);\n            burnAuxiliaries.k = burnAuxiliaries.k.add(burnAuxiliaries.ys[i]);\n        }\n        burnAuxiliaries.z = uint256(keccak256(abi.encode(burnAuxiliaries.y))).mod();\n        burnAuxiliaries.zs[0] = burnAuxiliaries.z.mul(burnAuxiliaries.z);\n        burnAuxiliaries.zSum = burnAuxiliaries.zs[0].mul(burnAuxiliaries.z); // trivial sum\n        burnAuxiliaries.k = burnAuxiliaries.k.mul(burnAuxiliaries.z.sub(burnAuxiliaries.zs[0])).sub(burnAuxiliaries.zSum.mul(1 << 32).sub(burnAuxiliaries.zSum));\n        burnAuxiliaries.t = proof.tHat.sub(burnAuxiliaries.k);\n        for (uint256 i = 0; i < 32; i++) {\n            burnAuxiliaries.twoTimesZSquared[i] = burnAuxiliaries.zs[0].mul(1 << i);\n        }\n\n        burnAuxiliaries.x = uint256(keccak256(abi.encode(burnAuxiliaries.z, proof.T_1, proof.T_2))).mod();\n        burnAuxiliaries.tEval = proof.T_1.mul(burnAuxiliaries.x).add(proof.T_2.mul(burnAuxiliaries.x.mul(burnAuxiliaries.x))); // replace with \"commit\"?\n\n        SigmaAuxiliaries memory sigmaAuxiliaries;\n        sigmaAuxiliaries.A_y = Utils.g().mul(proof.s_sk).add(statement.y.mul(proof.c.neg()));\n        sigmaAuxiliaries.A_b = Utils.g().mul(proof.s_b).add(statement.CRn.mul(proof.s_sk).add(statement.CLn.mul(proof.c.neg())).mul(burnAuxiliaries.zs[0]));\n        sigmaAuxiliaries.A_t = Utils.g().mul(burnAuxiliaries.t).add(burnAuxiliaries.tEval.neg()).mul(proof.c).add(Utils.h().mul(proof.s_tau)).add(Utils.g().mul(proof.s_b.neg()));\n        sigmaAuxiliaries.gEpoch = Utils.mapInto(\"Zether\", statement.epoch);\n        sigmaAuxiliaries.A_u = sigmaAuxiliaries.gEpoch.mul(proof.s_sk).add(statement.u.mul(proof.c.neg()));\n\n        sigmaAuxiliaries.c = uint256(keccak256(abi.encode(burnAuxiliaries.x, sigmaAuxiliaries.A_y, sigmaAuxiliaries.A_b, sigmaAuxiliaries.A_t, sigmaAuxiliaries.A_u))).mod();\n        require(sigmaAuxiliaries.c == proof.c, \"Sigma protocol challenge equality failure.\");\n\n        IPAuxiliaries memory ipAuxiliaries;\n        ipAuxiliaries.o = uint256(keccak256(abi.encode(sigmaAuxiliaries.c))).mod();\n        ipAuxiliaries.u_x = Utils.h().mul(ipAuxiliaries.o);\n        ipAuxiliaries.hPrimes = new Utils.G1Point[](32);\n        for (uint256 i = 0; i < 32; i++) {\n            ipAuxiliaries.hPrimes[i] = ip.hs(i).mul(burnAuxiliaries.ys[i].inv());\n            ipAuxiliaries.hPrimeSum = ipAuxiliaries.hPrimeSum.add(ipAuxiliaries.hPrimes[i].mul(burnAuxiliaries.ys[i].mul(burnAuxiliaries.z).add(burnAuxiliaries.twoTimesZSquared[i])));\n        }\n        ipAuxiliaries.P = proof.BA.add(proof.BS.mul(burnAuxiliaries.x)).add(gSum().mul(burnAuxiliaries.z.neg())).add(ipAuxiliaries.hPrimeSum);\n        ipAuxiliaries.P = ipAuxiliaries.P.add(Utils.h().mul(proof.mu.neg()));\n        ipAuxiliaries.P = ipAuxiliaries.P.add(ipAuxiliaries.u_x.mul(proof.tHat));\n        require(ip.verifyInnerProduct(ipAuxiliaries.hPrimes, ipAuxiliaries.u_x, ipAuxiliaries.P, proof.ipProof, ipAuxiliaries.o), \"Inner product proof verification failed.\");\n\n        return true;\n    }\n\n    function unserialize(bytes memory arr) internal pure returns (BurnProof memory proof) {\n        proof.BA = Utils.G1Point(Utils.slice(arr, 0), Utils.slice(arr, 32));\n        proof.BS = Utils.G1Point(Utils.slice(arr, 64), Utils.slice(arr, 96));\n\n        proof.T_1 = Utils.G1Point(Utils.slice(arr, 128), Utils.slice(arr, 160));\n        proof.T_2 = Utils.G1Point(Utils.slice(arr, 192), Utils.slice(arr, 224));\n        proof.tHat = uint256(Utils.slice(arr, 256));\n        proof.mu = uint256(Utils.slice(arr, 288));\n\n        proof.c = uint256(Utils.slice(arr, 320));\n        proof.s_sk = uint256(Utils.slice(arr, 352));\n        proof.s_b = uint256(Utils.slice(arr, 384));\n        proof.s_tau = uint256(Utils.slice(arr, 416));\n\n        InnerProductVerifier.InnerProductProof memory ipProof;\n        ipProof.L = new Utils.G1Point[](5);\n        ipProof.R = new Utils.G1Point[](5);\n        for (uint256 i = 0; i < 5; i++) { // 2^5 = 32.\n            ipProof.L[i] = Utils.G1Point(Utils.slice(arr, 448 + i * 64), Utils.slice(arr, 480 + i * 64));\n            ipProof.R[i] = Utils.G1Point(Utils.slice(arr, 448 + (5 + i) * 64), Utils.slice(arr, 480 + (5 + i) * 64));\n        }\n        ipProof.a = uint256(Utils.slice(arr, 448 + 5 * 128));\n        ipProof.b = uint256(Utils.slice(arr, 480 + 5 * 128));\n        proof.ipProof = ipProof;\n\n        return proof;\n    }\n}\n",
  "sourcePath": "/home/semiott/Apps/eth-apps/EddyNet/core/contracts/BurnVerifier.sol",
  "compiler": {
    "name": "solc",
    "version": "0.8.2+commit.661d1103.Emscripten.clang"
  },
  "schemaVersion": "3.3.4",
  "updatedAt": "2021-03-21T17:16:14.065Z",
  "devdoc": {
    "kind": "dev",
    "methods": {},
    "version": 1
  },
  "userdoc": {
    "kind": "user",
    "methods": {},
    "version": 1
  }
}