{
  "contractName": "ECDSAMock",
  "abi": [
    {
      "inputs": [
        {
          "internalType": "bytes32",
          "name": "hash",
          "type": "bytes32"
        },
        {
          "internalType": "bytes",
          "name": "signature",
          "type": "bytes"
        }
      ],
      "name": "recover",
      "outputs": [
        {
          "internalType": "address",
          "name": "",
          "type": "address"
        }
      ],
      "stateMutability": "pure",
      "type": "function"
    },
    {
      "inputs": [
        {
          "internalType": "bytes32",
          "name": "hash",
          "type": "bytes32"
        }
      ],
      "name": "toEthSignedMessageHash",
      "outputs": [
        {
          "internalType": "bytes32",
          "name": "",
          "type": "bytes32"
        }
      ],
      "stateMutability": "pure",
      "type": "function"
    }
  ],
  "bytecode": "0x608060405234801561001057600080fd5b506108b8806100206000396000f3fe608060405234801561001057600080fd5b50600436106100365760003560e01c806319045a251461003b578063918a15cf1461006b575b600080fd5b610055600480360381019061005091906103a5565b61009b565b6040516100629190610512565b60405180910390f35b6100856004803603810190610080919061037c565b6100b8565b604051610092919061052d565b60405180910390f35b60006100b082846100ca90919063ffffffff16565b905092915050565b60006100c382610144565b9050919050565b60006041825114610110576040517f08c379a0000000000000000000000000000000000000000000000000000000008152600401610107906105ad565b60405180910390fd5b60008060006020850151925060408501519150606085015160001a905061013986828585610174565b935050505092915050565b60008160405160200161015791906104ec565b604051602081830303815290604052805190602001209050919050565b60007f7fffffffffffffffffffffffffffffff5d576e7357a4501ddfe92f46681b20a08260001c11156101dc576040517f08c379a00000000000000000000000000000000000000000000000000000000081526004016101d3906105cd565b60405180910390fd5b601b8460ff1614806101f15750601c8460ff16145b610230576040517f08c379a0000000000000000000000000000000000000000000000000000000008152600401610227906105ed565b60405180910390fd5b6000600186868686604051600081526020016040526040516102559493929190610548565b6020604051602081039080840390855afa158015610277573d6000803e3d6000fd5b505050602060405103519050600073ffffffffffffffffffffffffffffffffffffffff168173ffffffffffffffffffffffffffffffffffffffff1614156102f3576040517f08c379a00000000000000000000000000000000000000000000000000000000081526004016102ea9061058d565b60405180910390fd5b80915050949350505050565b600061031261030d84610632565b61060d565b90508281526020810184848401111561032a57600080fd5b6103358482856106c8565b509392505050565b60008135905061034c8161086b565b92915050565b600082601f83011261036357600080fd5b81356103738482602086016102ff565b91505092915050565b60006020828403121561038e57600080fd5b600061039c8482850161033d565b91505092915050565b600080604083850312156103b857600080fd5b60006103c68582860161033d565b925050602083013567ffffffffffffffff8111156103e357600080fd5b6103ef85828601610352565b9150509250929050565b6104028161067f565b82525050565b61041181610691565b82525050565b61042861042382610691565b610708565b82525050565b600061043b601883610663565b915061044682610752565b602082019050919050565b600061045e601f83610663565b91506104698261077b565b602082019050919050565b6000610481601c83610674565b915061048c826107a4565b601c82019050919050565b60006104a4602283610663565b91506104af826107cd565b604082019050919050565b60006104c7602283610663565b91506104d28261081c565b604082019050919050565b6104e6816106bb565b82525050565b60006104f782610474565b91506105038284610417565b60208201915081905092915050565b600060208201905061052760008301846103f9565b92915050565b60006020820190506105426000830184610408565b92915050565b600060808201905061055d6000830187610408565b61056a60208301866104dd565b6105776040830185610408565b6105846060830184610408565b95945050505050565b600060208201905081810360008301526105a68161042e565b9050919050565b600060208201905081810360008301526105c681610451565b9050919050565b600060208201905081810360008301526105e681610497565b9050919050565b60006020820190508181036000830152610606816104ba565b9050919050565b6000610617610628565b905061062382826106d7565b919050565b6000604051905090565b600067ffffffffffffffff82111561064d5761064c610712565b5b61065682610741565b9050602081019050919050565b600082825260208201905092915050565b600081905092915050565b600061068a8261069b565b9050919050565b6000819050919050565b600073ffffffffffffffffffffffffffffffffffffffff82169050919050565b600060ff82169050919050565b82818337600083830152505050565b6106e082610741565b810181811067ffffffffffffffff821117156106ff576106fe610712565b5b80604052505050565b6000819050919050565b7f4e487b7100000000000000000000000000000000000000000000000000000000600052604160045260246000fd5b6000601f19601f8301169050919050565b7f45434453413a20696e76616c6964207369676e61747572650000000000000000600082015250565b7f45434453413a20696e76616c6964207369676e6174757265206c656e67746800600082015250565b7f19457468657265756d205369676e6564204d6573736167653a0a333200000000600082015250565b7f45434453413a20696e76616c6964207369676e6174757265202773272076616c60008201527f7565000000000000000000000000000000000000000000000000000000000000602082015250565b7f45434453413a20696e76616c6964207369676e6174757265202776272076616c60008201527f7565000000000000000000000000000000000000000000000000000000000000602082015250565b61087481610691565b811461087f57600080fd5b5056fea2646970667358221220db66423939f56f6b42aedfe249221abe7b751ddda9768370d67d8330c1ae517864736f6c63430008020033",
  "immutableReferences": {},
  "source": "// SPDX-License-Identifier: MIT\n\npragma solidity ^0.8.0;\n\nimport \"../utils/cryptography/ECDSA.sol\";\n\ncontract ECDSAMock {\n    using ECDSA for bytes32;\n\n    function recover(bytes32 hash, bytes memory signature) public pure returns (address) {\n        return hash.recover(signature);\n    }\n\n    function toEthSignedMessageHash(bytes32 hash) public pure returns (bytes32) {\n        return hash.toEthSignedMessageHash();\n    }\n}\n",
  "sourcePath": "/home/semiott/Apps/eth-apps/EddyNet/core/contracts/external/contracts/mocks/ECDSAMock.sol",
  "compiler": {
    "name": "solc",
    "version": "0.8.2+commit.661d1103.Emscripten.clang"
  },
  "schemaVersion": "3.3.4",
  "updatedAt": "2021-03-21T17:16:14.389Z",
  "devdoc": {
    "kind": "dev",
    "methods": {},
    "version": 1
  },
  "userdoc": {
    "kind": "user",
    "methods": {},
    "version": 1
  }
}