{
  "contractName": "EddyStream",
  "abi": [
    {
      "inputs": [],
      "stateMutability": "nonpayable",
      "type": "constructor"
    },
    {
      "anonymous": false,
      "inputs": [
        {
          "indexed": true,
          "internalType": "uint256",
          "name": "streamId",
          "type": "uint256"
        },
        {
          "indexed": true,
          "internalType": "address",
          "name": "confirmer",
          "type": "address"
        },
        {
          "indexed": false,
          "internalType": "address",
          "name": "newTokenAddress",
          "type": "address"
        },
        {
          "indexed": false,
          "internalType": "uint256",
          "name": "newStopBlock",
          "type": "uint256"
        },
        {
          "indexed": false,
          "internalType": "uint256",
          "name": "newPayment",
          "type": "uint256"
        },
        {
          "indexed": false,
          "internalType": "uint256",
          "name": "newInterval",
          "type": "uint256"
        }
      ],
      "name": "ConfirmUpdate",
      "type": "event"
    },
    {
      "anonymous": false,
      "inputs": [
        {
          "indexed": true,
          "internalType": "uint256",
          "name": "streamId",
          "type": "uint256"
        },
        {
          "indexed": true,
          "internalType": "address",
          "name": "sender",
          "type": "address"
        },
        {
          "indexed": true,
          "internalType": "address",
          "name": "recipient",
          "type": "address"
        },
        {
          "indexed": false,
          "internalType": "address",
          "name": "tokenAddress",
          "type": "address"
        },
        {
          "indexed": false,
          "internalType": "uint256",
          "name": "startBlock",
          "type": "uint256"
        },
        {
          "indexed": false,
          "internalType": "uint256",
          "name": "stopBlock",
          "type": "uint256"
        },
        {
          "indexed": false,
          "internalType": "uint256",
          "name": "payment",
          "type": "uint256"
        },
        {
          "indexed": false,
          "internalType": "uint256",
          "name": "interval",
          "type": "uint256"
        },
        {
          "indexed": false,
          "internalType": "uint256",
          "name": "deposit",
          "type": "uint256"
        }
      ],
      "name": "CreateStream",
      "type": "event"
    },
    {
      "anonymous": false,
      "inputs": [
        {
          "indexed": true,
          "internalType": "uint256",
          "name": "streamId",
          "type": "uint256"
        },
        {
          "indexed": true,
          "internalType": "address",
          "name": "sender",
          "type": "address"
        },
        {
          "indexed": true,
          "internalType": "address",
          "name": "recipient",
          "type": "address"
        },
        {
          "indexed": false,
          "internalType": "address",
          "name": "newTokenAddress",
          "type": "address"
        },
        {
          "indexed": false,
          "internalType": "uint256",
          "name": "newStopBlock",
          "type": "uint256"
        },
        {
          "indexed": false,
          "internalType": "uint256",
          "name": "newPayment",
          "type": "uint256"
        },
        {
          "indexed": false,
          "internalType": "uint256",
          "name": "newInterval",
          "type": "uint256"
        }
      ],
      "name": "ExecuteUpdate",
      "type": "event"
    },
    {
      "anonymous": false,
      "inputs": [
        {
          "indexed": true,
          "internalType": "address",
          "name": "previousOwner",
          "type": "address"
        },
        {
          "indexed": true,
          "internalType": "address",
          "name": "newOwner",
          "type": "address"
        }
      ],
      "name": "OwnershipTransferred",
      "type": "event"
    },
    {
      "anonymous": false,
      "inputs": [
        {
          "indexed": true,
          "internalType": "uint256",
          "name": "streamId",
          "type": "uint256"
        },
        {
          "indexed": true,
          "internalType": "address",
          "name": "sender",
          "type": "address"
        },
        {
          "indexed": true,
          "internalType": "address",
          "name": "recipient",
          "type": "address"
        },
        {
          "indexed": false,
          "internalType": "uint256",
          "name": "senderAmount",
          "type": "uint256"
        },
        {
          "indexed": false,
          "internalType": "uint256",
          "name": "recipientAmount",
          "type": "uint256"
        }
      ],
      "name": "RedeemStream",
      "type": "event"
    },
    {
      "anonymous": false,
      "inputs": [
        {
          "indexed": true,
          "internalType": "uint256",
          "name": "streamId",
          "type": "uint256"
        },
        {
          "indexed": true,
          "internalType": "address",
          "name": "revoker",
          "type": "address"
        },
        {
          "indexed": false,
          "internalType": "address",
          "name": "newTokenAddress",
          "type": "address"
        },
        {
          "indexed": false,
          "internalType": "uint256",
          "name": "newStopBlock",
          "type": "uint256"
        },
        {
          "indexed": false,
          "internalType": "uint256",
          "name": "newPayment",
          "type": "uint256"
        },
        {
          "indexed": false,
          "internalType": "uint256",
          "name": "newInterval",
          "type": "uint256"
        }
      ],
      "name": "RevokeUpdate",
      "type": "event"
    },
    {
      "anonymous": false,
      "inputs": [
        {
          "indexed": true,
          "internalType": "uint256",
          "name": "streamId",
          "type": "uint256"
        },
        {
          "indexed": true,
          "internalType": "address",
          "name": "recipient",
          "type": "address"
        },
        {
          "indexed": false,
          "internalType": "uint256",
          "name": "amount",
          "type": "uint256"
        }
      ],
      "name": "WithdrawFromStream",
      "type": "event"
    },
    {
      "inputs": [],
      "name": "BeaconContractAddress",
      "outputs": [
        {
          "internalType": "address",
          "name": "",
          "type": "address"
        }
      ],
      "stateMutability": "view",
      "type": "function"
    },
    {
      "inputs": [],
      "name": "owner",
      "outputs": [
        {
          "internalType": "address",
          "name": "",
          "type": "address"
        }
      ],
      "stateMutability": "view",
      "type": "function"
    },
    {
      "inputs": [],
      "name": "renounceOwnership",
      "outputs": [],
      "stateMutability": "nonpayable",
      "type": "function"
    },
    {
      "inputs": [
        {
          "internalType": "address",
          "name": "newOwner",
          "type": "address"
        }
      ],
      "name": "transferOwnership",
      "outputs": [],
      "stateMutability": "nonpayable",
      "type": "function"
    },
    {
      "inputs": [
        {
          "internalType": "address",
          "name": "_address",
          "type": "address"
        }
      ],
      "name": "setBeaconContractAddress",
      "outputs": [],
      "stateMutability": "nonpayable",
      "type": "function"
    },
    {
      "inputs": [],
      "name": "generateRandomNumber",
      "outputs": [
        {
          "internalType": "bytes32",
          "name": "",
          "type": "bytes32"
        }
      ],
      "stateMutability": "view",
      "type": "function"
    },
    {
      "inputs": [],
      "name": "initialize",
      "outputs": [],
      "stateMutability": "nonpayable",
      "type": "function"
    },
    {
      "inputs": [
        {
          "internalType": "uint256",
          "name": "_streamId",
          "type": "uint256"
        },
        {
          "internalType": "address",
          "name": "_addr",
          "type": "address"
        }
      ],
      "name": "balanceOf",
      "outputs": [
        {
          "internalType": "uint256",
          "name": "balance",
          "type": "uint256"
        }
      ],
      "stateMutability": "view",
      "type": "function"
    },
    {
      "inputs": [
        {
          "internalType": "uint256",
          "name": "_streamId",
          "type": "uint256"
        }
      ],
      "name": "getStream",
      "outputs": [
        {
          "internalType": "address",
          "name": "sender",
          "type": "address"
        },
        {
          "internalType": "address",
          "name": "recipient",
          "type": "address"
        },
        {
          "internalType": "address",
          "name": "tokenAddress",
          "type": "address"
        },
        {
          "internalType": "uint256",
          "name": "balance",
          "type": "uint256"
        },
        {
          "internalType": "uint256",
          "name": "startBlock",
          "type": "uint256"
        },
        {
          "internalType": "uint256",
          "name": "stopBlock",
          "type": "uint256"
        },
        {
          "internalType": "uint256",
          "name": "payment",
          "type": "uint256"
        },
        {
          "internalType": "uint256",
          "name": "interval",
          "type": "uint256"
        }
      ],
      "stateMutability": "view",
      "type": "function"
    },
    {
      "inputs": [
        {
          "internalType": "uint256",
          "name": "_streamId",
          "type": "uint256"
        },
        {
          "internalType": "address",
          "name": "_addr",
          "type": "address"
        }
      ],
      "name": "getUpdate",
      "outputs": [
        {
          "internalType": "bool",
          "name": "active",
          "type": "bool"
        }
      ],
      "stateMutability": "view",
      "type": "function"
    },
    {
      "inputs": [
        {
          "internalType": "address",
          "name": "_sender",
          "type": "address"
        },
        {
          "internalType": "address",
          "name": "_recipient",
          "type": "address"
        },
        {
          "internalType": "address",
          "name": "_tokenAddress",
          "type": "address"
        },
        {
          "internalType": "uint256",
          "name": "_startBlock",
          "type": "uint256"
        },
        {
          "internalType": "uint256",
          "name": "_stopBlock",
          "type": "uint256"
        },
        {
          "internalType": "uint256",
          "name": "_payment",
          "type": "uint256"
        },
        {
          "internalType": "uint256",
          "name": "_interval",
          "type": "uint256"
        }
      ],
      "name": "createStream",
      "outputs": [],
      "stateMutability": "nonpayable",
      "type": "function"
    },
    {
      "inputs": [
        {
          "internalType": "uint256",
          "name": "_streamId",
          "type": "uint256"
        },
        {
          "internalType": "uint256",
          "name": "_amount",
          "type": "uint256"
        }
      ],
      "name": "withdrawFromStream",
      "outputs": [],
      "stateMutability": "nonpayable",
      "type": "function"
    },
    {
      "inputs": [
        {
          "internalType": "uint256",
          "name": "_streamId",
          "type": "uint256"
        }
      ],
      "name": "redeemStream",
      "outputs": [],
      "stateMutability": "nonpayable",
      "type": "function"
    },
    {
      "inputs": [
        {
          "internalType": "uint256",
          "name": "_streamId",
          "type": "uint256"
        },
        {
          "internalType": "address",
          "name": "_tokenAddress",
          "type": "address"
        },
        {
          "internalType": "uint256",
          "name": "_stopBlock",
          "type": "uint256"
        },
        {
          "internalType": "uint256",
          "name": "_payment",
          "type": "uint256"
        },
        {
          "internalType": "uint256",
          "name": "_interval",
          "type": "uint256"
        }
      ],
      "name": "confirmUpdate",
      "outputs": [],
      "stateMutability": "nonpayable",
      "type": "function"
    },
    {
      "inputs": [
        {
          "internalType": "uint256",
          "name": "_streamId",
          "type": "uint256"
        },
        {
          "internalType": "address",
          "name": "_tokenAddress",
          "type": "address"
        },
        {
          "internalType": "uint256",
          "name": "_stopBlock",
          "type": "uint256"
        },
        {
          "internalType": "uint256",
          "name": "_payment",
          "type": "uint256"
        },
        {
          "internalType": "uint256",
          "name": "_interval",
          "type": "uint256"
        }
      ],
      "name": "revokeUpdate",
      "outputs": [],
      "stateMutability": "nonpayable",
      "type": "function"
    }
  ],
  "bytecode": "0x60806040527379474439753c7c70011c3b00e06e559378bad040600260006101000a81548173ffffffffffffffffffffffffffffffffffffffff021916908373ffffffffffffffffffffffffffffffffffffffff1602179055503480156200006657600080fd5b506000620000796200012d60201b60201c565b905080600060026101000a81548173ffffffffffffffffffffffffffffffffffffffff021916908373ffffffffffffffffffffffffffffffffffffffff1602179055508073ffffffffffffffffffffffffffffffffffffffff16600073ffffffffffffffffffffffffffffffffffffffff167f8be0079c531659141344cd1fd0a4f28419497f9722a3daafe3b4186f6b6457e060405160405180910390a35060018081905550600160048190555062000135565b600033905090565b61471b80620001456000396000f3fe608060405234801561001057600080fd5b50600436106100f55760003560e01c80637a9b2c6c116100975780638da5cb5b116100665780638da5cb5b14610251578063c5daca921461026f578063c765e1f01461028b578063f2fde38b146102a7576100f5565b80637a9b2c6c146101d85780638129fc1c146101f457806386f69ee6146101fe578063894e9a0d1461021a576100f5565b80634a97919c116100d35780634a97919c1461017857806363aef68214610194578063715018a6146101b0578063773a1154146101ba576100f5565b80632035ecf4146100fa57806326d056cc146101185780633656eec214610148575b600080fd5b6101026102c3565b60405161010f91906139ef565b60405180910390f35b610132600480360381019061012d91906135a7565b6102e9565b60405161013f9190613be0565b60405180910390f35b610162600480360381019061015d91906135a7565b6103f9565b60405161016f9190613e98565b60405180910390f35b610192600480360381019061018d9190613555565b610758565b005b6101ae60048036038101906101a991906135e3565b610e83565b005b6101b861112a565b005b6101c2611281565b6040516101cf9190613bfb565b60405180910390f35b6101f260048036038101906101ed9190613696565b61133a565b005b6101fc611990565b005b61021860048036038101906102139190613465565b611a80565b005b610234600480360381019061022f9190613555565b611ac4565b604051610248989796959493929190613a33565b60405180910390f35b610259611d4a565b60405161026691906139ef565b60405180910390f35b610289600480360381019061028491906135e3565b611d73565b005b6102a560048036038101906102a0919061348e565b611ee0565b005b6102c160048036038101906102bc9190613465565b6123ea565b005b600260009054906101000a900473ffffffffffffffffffffffffffffffffffffffff1681565b600082600073ffffffffffffffffffffffffffffffffffffffff166003600083815260200190815260200160002060000160009054906101000a900473ffffffffffffffffffffffffffffffffffffffff1673ffffffffffffffffffffffffffffffffffffffff161415610392576040517f08c379a000000000000000000000000000000000000000000000000000000000815260040161038990613e58565b60405180910390fd5b6005600085815260200190815260200160002060008473ffffffffffffffffffffffffffffffffffffffff1673ffffffffffffffffffffffffffffffffffffffff16815260200190815260200160002060009054906101000a900460ff1691505092915050565b600082600073ffffffffffffffffffffffffffffffffffffffff166003600083815260200190815260200160002060000160009054906101000a900473ffffffffffffffffffffffffffffffffffffffff1673ffffffffffffffffffffffffffffffffffffffff1614156104a2576040517f08c379a000000000000000000000000000000000000000000000000000000000815260040161049990613e58565b60405180910390fd5b6000600360008681526020019081526020016000206040518060c00160405290816000820160009054906101000a900473ffffffffffffffffffffffffffffffffffffffff1673ffffffffffffffffffffffffffffffffffffffff1673ffffffffffffffffffffffffffffffffffffffff1681526020016001820160009054906101000a900473ffffffffffffffffffffffffffffffffffffffff1673ffffffffffffffffffffffffffffffffffffffff1673ffffffffffffffffffffffffffffffffffffffff1681526020016002820160009054906101000a900473ffffffffffffffffffffffffffffffffffffffff1673ffffffffffffffffffffffffffffffffffffffff1673ffffffffffffffffffffffffffffffffffffffff16815260200160038201604051806040016040529081600082015481526020016001820154815250508152602001600582016040518060400160405290816000820154815260200160018201548152505081526020016007820154815250509050600061062b866125b1565b905060006106388761278f565b905060006106718460800151600001516106638660800151602001518561296f90919063ffffffff16565b6129b990919063ffffffff16565b9050828460a00151146106aa576106a76106988560a0015185612a3490919063ffffffff16565b82612a3490919063ffffffff16565b90505b836020015173ffffffffffffffffffffffffffffffffffffffff168773ffffffffffffffffffffffffffffffffffffffff1614156106ee5780955050505050610751565b836000015173ffffffffffffffffffffffffffffffffffffffff168773ffffffffffffffffffffffffffffffffffffffff1614156107485761073d818560a00151612a3490919063ffffffff16565b955050505050610751565b60009550505050505b5092915050565b80600073ffffffffffffffffffffffffffffffffffffffff166003600083815260200190815260200160002060000160009054906101000a900473ffffffffffffffffffffffffffffffffffffffff1673ffffffffffffffffffffffffffffffffffffffff1614156107ff576040517f08c379a00000000000000000000000000000000000000000000000000000000081526004016107f690613e58565b60405180910390fd5b816003600082815260200190815260200160002060000160009054906101000a900473ffffffffffffffffffffffffffffffffffffffff1673ffffffffffffffffffffffffffffffffffffffff163373ffffffffffffffffffffffffffffffffffffffff1614806108d157506003600082815260200190815260200160002060010160009054906101000a900473ffffffffffffffffffffffffffffffffffffffff1673ffffffffffffffffffffffffffffffffffffffff163373ffffffffffffffffffffffffffffffffffffffff16145b610910576040517f08c379a000000000000000000000000000000000000000000000000000000000815260040161090790613e18565b60405180910390fd5b6000600360008581526020019081526020016000206040518060c00160405290816000820160009054906101000a900473ffffffffffffffffffffffffffffffffffffffff1673ffffffffffffffffffffffffffffffffffffffff1673ffffffffffffffffffffffffffffffffffffffff1681526020016001820160009054906101000a900473ffffffffffffffffffffffffffffffffffffffff1673ffffffffffffffffffffffffffffffffffffffff1673ffffffffffffffffffffffffffffffffffffffff1681526020016002820160009054906101000a900473ffffffffffffffffffffffffffffffffffffffff1673ffffffffffffffffffffffffffffffffffffffff1673ffffffffffffffffffffffffffffffffffffffff168152602001600382016040518060400160405290816000820154815260200160018201548152505081526020016005820160405180604001604052908160008201548152602001600182015481525050815260200160078201548152505090506000610a9e8583600001516103f9565b90506000610ab08684602001516103f9565b9050826020015173ffffffffffffffffffffffffffffffffffffffff16836000015173ffffffffffffffffffffffffffffffffffffffff16877ffe46ddcd2cd1b3f7fd71cc508b3764a00a1701e894d28090d11bf3f90fb8dea28585604051610b1a929190613eb3565b60405180910390a460036000878152602001908152602001600020600080820160006101000a81549073ffffffffffffffffffffffffffffffffffffffff02191690556001820160006101000a81549073ffffffffffffffffffffffffffffffffffffffff02191690556002820160006101000a81549073ffffffffffffffffffffffffffffffffffffffff021916905560038201600080820160009055600182016000905550506005820160008082016000905560018201600090555050600782016000905550506000600560008881526020019081526020016000206000856000015173ffffffffffffffffffffffffffffffffffffffff1673ffffffffffffffffffffffffffffffffffffffff16815260200190815260200160002060006101000a81548160ff0219169083151502179055506000600560008881526020019081526020016000206000856020015173ffffffffffffffffffffffffffffffffffffffff1673ffffffffffffffffffffffffffffffffffffffff16815260200190815260200160002060006101000a81548160ff0219169083151502179055506000836040015190506000821115610da0578073ffffffffffffffffffffffffffffffffffffffff1663a9059cbb8560200151846040518363ffffffff1660e01b8152600401610d0e929190613b11565b602060405180830381600087803b158015610d2857600080fd5b505af1158015610d3c573d6000803e3d6000fd5b505050506040513d601f19601f82011682018060405250810190610d60919061352c565b610d9f576040517f08c379a0000000000000000000000000000000000000000000000000000000008152600401610d9690613d78565b60405180910390fd5b5b6000831115610e7a578073ffffffffffffffffffffffffffffffffffffffff1663a9059cbb8560000151856040518363ffffffff1660e01b8152600401610de8929190613b11565b602060405180830381600087803b158015610e0257600080fd5b505af1158015610e16573d6000803e3d6000fd5b505050506040513d601f19601f82011682018060405250810190610e3a919061352c565b610e79576040517f08c379a0000000000000000000000000000000000000000000000000000000008152600401610e7090613d78565b60405180910390fd5b5b50505050505050565b84600073ffffffffffffffffffffffffffffffffffffffff166003600083815260200190815260200160002060000160009054906101000a900473ffffffffffffffffffffffffffffffffffffffff1673ffffffffffffffffffffffffffffffffffffffff161415610f2a576040517f08c379a0000000000000000000000000000000000000000000000000000000008152600401610f2190613e58565b60405180910390fd5b856003600082815260200190815260200160002060000160009054906101000a900473ffffffffffffffffffffffffffffffffffffffff1673ffffffffffffffffffffffffffffffffffffffff163373ffffffffffffffffffffffffffffffffffffffff161480610ffc57506003600082815260200190815260200160002060010160009054906101000a900473ffffffffffffffffffffffffffffffffffffffff1673ffffffffffffffffffffffffffffffffffffffff163373ffffffffffffffffffffffffffffffffffffffff16145b61103b576040517f08c379a000000000000000000000000000000000000000000000000000000000815260040161103290613e18565b60405180910390fd5b6110488787878787612a7e565b5061105586438786612b9e565b503373ffffffffffffffffffffffffffffffffffffffff16877f1cce0c004942fc2ff42b63a6cfb316ef8cb92a936961aaca2ca1eb31b890961f888888886040516110a39493929190613b3a565b60405180910390a360016005600089815260200190815260200160002060003373ffffffffffffffffffffffffffffffffffffffff1673ffffffffffffffffffffffffffffffffffffffff16815260200190815260200160002060006101000a81548160ff0219169083151502179055506111218787878787612d49565b50505050505050565b611132613210565b73ffffffffffffffffffffffffffffffffffffffff16600060029054906101000a900473ffffffffffffffffffffffffffffffffffffffff1673ffffffffffffffffffffffffffffffffffffffff16146111c1576040517f08c379a00000000000000000000000000000000000000000000000000000000081526004016111b890613d58565b60405180910390fd5b600073ffffffffffffffffffffffffffffffffffffffff16600060029054906101000a900473ffffffffffffffffffffffffffffffffffffffff1673ffffffffffffffffffffffffffffffffffffffff167f8be0079c531659141344cd1fd0a4f28419497f9722a3daafe3b4186f6b6457e060405160405180910390a360008060026101000a81548173ffffffffffffffffffffffffffffffffffffffff021916908373ffffffffffffffffffffffffffffffffffffffff160217905550565b600080600080600260009054906101000a900473ffffffffffffffffffffffffffffffffffffffff1690508073ffffffffffffffffffffffffffffffffffffffff1663f4bebd7a6040518163ffffffff1660e01b8152600401604080518083038186803b1580156112f157600080fd5b505afa158015611305573d6000803e3d6000fd5b505050506040513d601f19601f82011682018060405250810190611329919061365a565b809350819450505081935050505090565b81600073ffffffffffffffffffffffffffffffffffffffff166003600083815260200190815260200160002060000160009054906101000a900473ffffffffffffffffffffffffffffffffffffffff1673ffffffffffffffffffffffffffffffffffffffff1614156113e1576040517f08c379a00000000000000000000000000000000000000000000000000000000081526004016113d890613e58565b60405180910390fd5b823373ffffffffffffffffffffffffffffffffffffffff166003600083815260200190815260200160002060010160009054906101000a900473ffffffffffffffffffffffffffffffffffffffff1673ffffffffffffffffffffffffffffffffffffffff1614611486576040517f08c379a000000000000000000000000000000000000000000000000000000000815260040161147d90613e38565b60405180910390fd5b6000600360008681526020019081526020016000206040518060c00160405290816000820160009054906101000a900473ffffffffffffffffffffffffffffffffffffffff1673ffffffffffffffffffffffffffffffffffffffff1673ffffffffffffffffffffffffffffffffffffffff1681526020016001820160009054906101000a900473ffffffffffffffffffffffffffffffffffffffff1673ffffffffffffffffffffffffffffffffffffffff1673ffffffffffffffffffffffffffffffffffffffff1681526020016002820160009054906101000a900473ffffffffffffffffffffffffffffffffffffffff1673ffffffffffffffffffffffffffffffffffffffff1673ffffffffffffffffffffffffffffffffffffffff1681526020016003820160405180604001604052908160008201548152602001600182015481525050815260200160058201604051806040016040529081600082015481526020016001820154815250508152602001600782015481525050905060006116148683602001516103f9565b905084811015611659576040517f08c379a000000000000000000000000000000000000000000000000000000000815260040161165090613df8565b60405180910390fd5b611682856003600089815260200190815260200160002060070154612a3490919063ffffffff16565b6003600088815260200190815260200160002060070181905550816020015173ffffffffffffffffffffffffffffffffffffffff16867f36c3ab437e6a424ed25dc4bfdeb62706aa06558660fab2dab229d2555adaf89c876040516116e79190613e98565b60405180910390a36000600360008881526020019081526020016000206007015414156118aa5760036000878152602001908152602001600020600080820160006101000a81549073ffffffffffffffffffffffffffffffffffffffff02191690556001820160006101000a81549073ffffffffffffffffffffffffffffffffffffffff02191690556002820160006101000a81549073ffffffffffffffffffffffffffffffffffffffff021916905560038201600080820160009055600182016000905550506005820160008082016000905560018201600090555050600782016000905550506000600560008881526020019081526020016000206000846000015173ffffffffffffffffffffffffffffffffffffffff1673ffffffffffffffffffffffffffffffffffffffff16815260200190815260200160002060006101000a81548160ff0219169083151502179055506000600560008881526020019081526020016000206000846020015173ffffffffffffffffffffffffffffffffffffffff1673ffffffffffffffffffffffffffffffffffffffff16815260200190815260200160002060006101000a81548160ff0219169083151502179055505b600085111561198857816040015173ffffffffffffffffffffffffffffffffffffffff1663a9059cbb8360200151876040518363ffffffff1660e01b81526004016118f6929190613b11565b602060405180830381600087803b15801561191057600080fd5b505af1158015611924573d6000803e3d6000fd5b505050506040513d601f19601f82011682018060405250810190611948919061352c565b611987576040517f08c379a000000000000000000000000000000000000000000000000000000000815260040161197e90613d78565b60405180910390fd5b5b505050505050565b600060019054906101000a900460ff16806119af57506119ae613218565b5b806119c5575060008054906101000a900460ff16155b611a04576040517f08c379a00000000000000000000000000000000000000000000000000000000081526004016119fb90613d18565b60405180910390fd5b60008060019054906101000a900460ff161590508015611a54576001600060016101000a81548160ff02191690831515021790555060016000806101000a81548160ff0219169083151502179055505b60016004819055508015611a7d5760008060016101000a81548160ff0219169083151502179055505b50565b80600260006101000a81548173ffffffffffffffffffffffffffffffffffffffff021916908373ffffffffffffffffffffffffffffffffffffffff16021790555050565b60008060008060008060008088600073ffffffffffffffffffffffffffffffffffffffff166003600083815260200190815260200160002060000160009054906101000a900473ffffffffffffffffffffffffffffffffffffffff1673ffffffffffffffffffffffffffffffffffffffff161415611b77576040517f08c379a0000000000000000000000000000000000000000000000000000000008152600401611b6e90613e58565b60405180910390fd5b6000600360008c81526020019081526020016000206040518060c00160405290816000820160009054906101000a900473ffffffffffffffffffffffffffffffffffffffff1673ffffffffffffffffffffffffffffffffffffffff1673ffffffffffffffffffffffffffffffffffffffff1681526020016001820160009054906101000a900473ffffffffffffffffffffffffffffffffffffffff1673ffffffffffffffffffffffffffffffffffffffff1673ffffffffffffffffffffffffffffffffffffffff1681526020016002820160009054906101000a900473ffffffffffffffffffffffffffffffffffffffff1673ffffffffffffffffffffffffffffffffffffffff1673ffffffffffffffffffffffffffffffffffffffff168152602001600382016040518060400160405290816000820154815260200160018201548152505081526020016005820160405180604001604052908160008201548152602001600182015481525050815260200160078201548152505090508060000151816020015182604001518360a00151846060015160000151856060015160200151866080015160000151876080015160200151995099509950995099509950995099505050919395975091939597565b60008060029054906101000a900473ffffffffffffffffffffffffffffffffffffffff16905090565b8433600115156005600084815260200190815260200160002060008373ffffffffffffffffffffffffffffffffffffffff1673ffffffffffffffffffffffffffffffffffffffff16815260200190815260200160002060009054906101000a900460ff16151514611e19576040517f08c379a0000000000000000000000000000000000000000000000000000000008152600401611e1090613cb8565b60405180910390fd5b3373ffffffffffffffffffffffffffffffffffffffff16877f652aa7dfd60d34135d95736f012daa465d0471f7c908dff2d69b9848680c688588888888604051611e669493929190613b3a565b60405180910390a360006005600089815260200190815260200160002060003373ffffffffffffffffffffffffffffffffffffffff1673ffffffffffffffffffffffffffffffffffffffff16815260200190815260200160002060006101000a81548160ff02191690831515021790555050505050505050565b611eec85858584612b9e565b506000611f2683611f1884611f0a8989612a3490919063ffffffff16565b61296f90919063ffffffff16565b6129b990919063ffffffff16565b905060008690508073ffffffffffffffffffffffffffffffffffffffff1663095ea7b373086ed7c7f7783153896f77b7092928051de382646103e86040518363ffffffff1660e01b8152600401611f7e929190613ae8565b602060405180830381600087803b158015611f9857600080fd5b505af1158015611fac573d6000803e3d6000fd5b505050506040513d601f19601f82011682018060405250810190611fd0919061352c565b5060008173ffffffffffffffffffffffffffffffffffffffff1663dd62ed3e8b306040518363ffffffff1660e01b815260040161200e929190613a0a565b60206040518083038186803b15801561202657600080fd5b505afa15801561203a573d6000803e3d6000fd5b505050506040513d601f19601f8201168201806040525081019061205e919061357e565b9050828110156120a3576040517f08c379a000000000000000000000000000000000000000000000000000000000815260040161209a90613e78565b60405180910390fd5b6040518060c001604052808b73ffffffffffffffffffffffffffffffffffffffff1681526020018a73ffffffffffffffffffffffffffffffffffffffff1681526020018973ffffffffffffffffffffffffffffffffffffffff16815260200160405180604001604052808a815260200189815250815260200160405180604001604052808881526020018781525081526020018481525060036000600454815260200190815260200160002060008201518160000160006101000a81548173ffffffffffffffffffffffffffffffffffffffff021916908373ffffffffffffffffffffffffffffffffffffffff16021790555060208201518160010160006101000a81548173ffffffffffffffffffffffffffffffffffffffff021916908373ffffffffffffffffffffffffffffffffffffffff16021790555060408201518160020160006101000a81548173ffffffffffffffffffffffffffffffffffffffff021916908373ffffffffffffffffffffffffffffffffffffffff160217905550606082015181600301600082015181600001556020820151816001015550506080820151816005016000820151816000015560208201518160010155505060a082015181600701559050508873ffffffffffffffffffffffffffffffffffffffff168a73ffffffffffffffffffffffffffffffffffffffff166004547fb3ec17fd3e5ef689e147851f57c4182d97501571839b78360958ef6887aad5858b8b8b8b8b8b6040516122d996959493929190613b7f565b60405180910390a46122e9611281565b4360001b111561231057612309600160045461322f90919063ffffffff16565b6004819055505b8173ffffffffffffffffffffffffffffffffffffffff166323b872dd8b30866040518463ffffffff1660e01b815260040161234d93929190613ab1565b602060405180830381600087803b15801561236757600080fd5b505af115801561237b573d6000803e3d6000fd5b505050506040513d601f19601f8201168201806040525081019061239f919061352c565b6123de576040517f08c379a00000000000000000000000000000000000000000000000000000000081526004016123d590613c58565b60405180910390fd5b50505050505050505050565b6123f2613210565b73ffffffffffffffffffffffffffffffffffffffff16600060029054906101000a900473ffffffffffffffffffffffffffffffffffffffff1673ffffffffffffffffffffffffffffffffffffffff1614612481576040517f08c379a000000000000000000000000000000000000000000000000000000000815260040161247890613d58565b60405180910390fd5b600073ffffffffffffffffffffffffffffffffffffffff168173ffffffffffffffffffffffffffffffffffffffff1614156124f1576040517f08c379a00000000000000000000000000000000000000000000000000000000081526004016124e890613c78565b60405180910390fd5b8073ffffffffffffffffffffffffffffffffffffffff16600060029054906101000a900473ffffffffffffffffffffffffffffffffffffffff1673ffffffffffffffffffffffffffffffffffffffff167f8be0079c531659141344cd1fd0a4f28419497f9722a3daafe3b4186f6b6457e060405160405180910390a380600060026101000a81548173ffffffffffffffffffffffffffffffffffffffff021916908373ffffffffffffffffffffffffffffffffffffffff16021790555050565b600080600360008481526020019081526020016000206040518060c00160405290816000820160009054906101000a900473ffffffffffffffffffffffffffffffffffffffff1673ffffffffffffffffffffffffffffffffffffffff1673ffffffffffffffffffffffffffffffffffffffff1681526020016001820160009054906101000a900473ffffffffffffffffffffffffffffffffffffffff1673ffffffffffffffffffffffffffffffffffffffff1673ffffffffffffffffffffffffffffffffffffffff1681526020016002820160009054906101000a900473ffffffffffffffffffffffffffffffffffffffff1673ffffffffffffffffffffffffffffffffffffffff1673ffffffffffffffffffffffffffffffffffffffff1681526020016003820160405180604001604052908160008201548152602001600182015481525050815260200160058201604051806040016040529081600082015481526020016001820154815250508152602001600782015481525050905061278781608001516000015161277983608001516020015161276b856060015160000151866060015160200151612a3490919063ffffffff16565b61296f90919063ffffffff16565b6129b990919063ffffffff16565b915050919050565b600080600360008481526020019081526020016000206040518060c00160405290816000820160009054906101000a900473ffffffffffffffffffffffffffffffffffffffff1673ffffffffffffffffffffffffffffffffffffffff1673ffffffffffffffffffffffffffffffffffffffff1681526020016001820160009054906101000a900473ffffffffffffffffffffffffffffffffffffffff1673ffffffffffffffffffffffffffffffffffffffff1673ffffffffffffffffffffffffffffffffffffffff1681526020016002820160009054906101000a900473ffffffffffffffffffffffffffffffffffffffff1673ffffffffffffffffffffffffffffffffffffffff1673ffffffffffffffffffffffffffffffffffffffff16815260200160038201604051806040016040529081600082015481526020016001820154815250508152602001600582016040518060400160405290816000820154815260200160018201548152505081526020016007820154815250509050600081606001516000015190506000826060015160200151905081431161293b576000935050505061296a565b80431161295857814361294e9190613fd9565b935050505061296a565b81816129649190613fd9565b93505050505b919050565b60006129b183836040518060400160405280601a81526020017f536166654d6174683a206469766973696f6e206279207a65726f00000000000081525061328d565b905092915050565b6000808314156129cc5760009050612a2e565b600082846129da9190613f7f565b90508284826129e99190613f4e565b14612a29576040517f08c379a0000000000000000000000000000000000000000000000000000000008152600401612a2090613d38565b60405180910390fd5b809150505b92915050565b6000612a7683836040518060400160405280601e81526020017f536166654d6174683a207375627472616374696f6e206f766572666c6f7700008152506132f0565b905092915050565b60008473ffffffffffffffffffffffffffffffffffffffff166003600088815260200190815260200160002060020160009054906101000a900473ffffffffffffffffffffffffffffffffffffffff1673ffffffffffffffffffffffffffffffffffffffff16141580612b0a575083600360008881526020019081526020016000206003016001015414155b80612b2e575082600360008881526020019081526020016000206005016000015414155b80612b52575081600360008881526020019081526020016000206005016001015414155b612b91576040517f08c379a0000000000000000000000000000000000000000000000000000000008152600401612b8890613c38565b60405180910390fd5b6001905095945050505050565b60008073ffffffffffffffffffffffffffffffffffffffff168573ffffffffffffffffffffffffffffffffffffffff161415612c0f576040517f08c379a0000000000000000000000000000000000000000000000000000000008152600401612c0690613d98565b60405180910390fd5b43841015612c52576040517f08c379a0000000000000000000000000000000000000000000000000000000008152600401612c4990613cf8565b60405180910390fd5b838311612c94576040517f08c379a0000000000000000000000000000000000000000000000000000000008152600401612c8b90613cd8565b60405180910390fd5b60008484612ca29190613fd9565b905082811015612ce7576040517f08c379a0000000000000000000000000000000000000000000000000000000008152600401612cde90613db8565b60405180910390fd5b6000612cfc848361335490919063ffffffff16565b14612d3c576040517f08c379a0000000000000000000000000000000000000000000000000000000008152600401612d3390613dd8565b60405180910390fd5b6001915050949350505050565b84600073ffffffffffffffffffffffffffffffffffffffff166003600083815260200190815260200160002060000160009054906101000a900473ffffffffffffffffffffffffffffffffffffffff1673ffffffffffffffffffffffffffffffffffffffff161415612df0576040517f08c379a0000000000000000000000000000000000000000000000000000000008152600401612de790613e58565b60405180910390fd5b6000600360008881526020019081526020016000206040518060c00160405290816000820160009054906101000a900473ffffffffffffffffffffffffffffffffffffffff1673ffffffffffffffffffffffffffffffffffffffff1673ffffffffffffffffffffffffffffffffffffffff1681526020016001820160009054906101000a900473ffffffffffffffffffffffffffffffffffffffff1673ffffffffffffffffffffffffffffffffffffffff1673ffffffffffffffffffffffffffffffffffffffff1681526020016002820160009054906101000a900473ffffffffffffffffffffffffffffffffffffffff1673ffffffffffffffffffffffffffffffffffffffff1673ffffffffffffffffffffffffffffffffffffffff1681526020016003820160405180604001604052908160008201548152602001600182015481525050815260200160058201604051806040016040529081600082015481526020016001820154815250508152602001600782015481525050905060001515600560008981526020019081526020016000206000836000015173ffffffffffffffffffffffffffffffffffffffff1673ffffffffffffffffffffffffffffffffffffffff16815260200190815260200160002060009054906101000a900460ff1615151415612fe25750613208565b60001515600560008981526020019081526020016000206000836020015173ffffffffffffffffffffffffffffffffffffffff1673ffffffffffffffffffffffffffffffffffffffff16815260200190815260200160002060009054906101000a900460ff16151514156130565750613208565b600061307d8461306f4389612a3490919063ffffffff16565b61335490919063ffffffff16565b905060006130948288612a3490919063ffffffff16565b9050826020015173ffffffffffffffffffffffffffffffffffffffff16836000015173ffffffffffffffffffffffffffffffffffffffff168a7fd586e7f196fc84f737a1eba26ba1ad9e0b4b64d5803b17433c89a2608b8872458b858b8b6040516131029493929190613b3a565b60405180910390a46000600560008b81526020019081526020016000206000856000015173ffffffffffffffffffffffffffffffffffffffff1673ffffffffffffffffffffffffffffffffffffffff16815260200190815260200160002060006101000a81548160ff0219169083151502179055506000600560008b81526020019081526020016000206000856020015173ffffffffffffffffffffffffffffffffffffffff1673ffffffffffffffffffffffffffffffffffffffff16815260200190815260200160002060006101000a81548160ff0219169083151502179055506131ed89610758565b613204836000015184602001518a43858b8b611ee0565b5050505b505050505050565b600033905090565b6000803090506000813b9050600081149250505090565b600080828461323e9190613ef8565b905083811015613283576040517f08c379a000000000000000000000000000000000000000000000000000000000815260040161327a90613c98565b60405180910390fd5b8091505092915050565b600080831182906132d4576040517f08c379a00000000000000000000000000000000000000000000000000000000081526004016132cb9190613c16565b60405180910390fd5b50600083856132e39190613f4e565b9050809150509392505050565b6000838311158290613338576040517f08c379a000000000000000000000000000000000000000000000000000000000815260040161332f9190613c16565b60405180910390fd5b50600083856133479190613fd9565b9050809150509392505050565b600061339683836040518060400160405280601881526020017f536166654d6174683a206d6f64756c6f206279207a65726f000000000000000081525061339e565b905092915050565b60008083141582906133e6576040517f08c379a00000000000000000000000000000000000000000000000000000000081526004016133dd9190613c16565b60405180910390fd5b5082846133f391906140a4565b90509392505050565b60008135905061340b81614689565b92915050565b600081519050613420816146a0565b92915050565b600081519050613435816146b7565b92915050565b60008135905061344a816146ce565b92915050565b60008151905061345f816146ce565b92915050565b60006020828403121561347757600080fd5b6000613485848285016133fc565b91505092915050565b600080600080600080600060e0888a0312156134a957600080fd5b60006134b78a828b016133fc565b97505060206134c88a828b016133fc565b96505060406134d98a828b016133fc565b95505060606134ea8a828b0161343b565b94505060806134fb8a828b0161343b565b93505060a061350c8a828b0161343b565b92505060c061351d8a828b0161343b565b91505092959891949750929550565b60006020828403121561353e57600080fd5b600061354c84828501613411565b91505092915050565b60006020828403121561356757600080fd5b60006135758482850161343b565b91505092915050565b60006020828403121561359057600080fd5b600061359e84828501613450565b91505092915050565b600080604083850312156135ba57600080fd5b60006135c88582860161343b565b92505060206135d9858286016133fc565b9150509250929050565b600080600080600060a086880312156135fb57600080fd5b60006136098882890161343b565b955050602061361a888289016133fc565b945050604061362b8882890161343b565b935050606061363c8882890161343b565b925050608061364d8882890161343b565b9150509295509295909350565b6000806040838503121561366d57600080fd5b600061367b85828601613450565b925050602061368c85828601613426565b9150509250929050565b600080604083850312156136a957600080fd5b60006136b78582860161343b565b92505060206136c88582860161343b565b9150509250929050565b6136db8161400d565b82525050565b6136ea8161401f565b82525050565b6136f98161402b565b82525050565b6137088161405f565b82525050565b600061371982613edc565b6137238185613ee7565b9350613733818560208601614071565b61373c81614133565b840191505092915050565b6000613754601e83613ee7565b915061375f82614144565b602082019050919050565b6000613777601683613ee7565b91506137828261416d565b602082019050919050565b600061379a602683613ee7565b91506137a582614196565b604082019050919050565b60006137bd601b83613ee7565b91506137c8826141e5565b602082019050919050565b60006137e0602783613ee7565b91506137eb8261420e565b604082019050919050565b6000613803603683613ee7565b915061380e8261425d565b604082019050919050565b6000613826604083613ee7565b9150613831826142ac565b604082019050919050565b6000613849602e83613ee7565b9150613854826142fb565b604082019050919050565b600061386c602183613ee7565b91506138778261434a565b604082019050919050565b600061388f602083613ee7565b915061389a82614399565b602082019050919050565b60006138b2601583613ee7565b91506138bd826143c2565b602082019050919050565b60006138d5602b83613ee7565b91506138e0826143eb565b604082019050919050565b60006138f8604183613ee7565b91506139038261443a565b606082019050919050565b600061391b604383613ee7565b9150613926826144af565b606082019050919050565b600061393e601083613ee7565b915061394982614524565b602082019050919050565b6000613961604683613ee7565b915061396c8261454d565b606082019050919050565b6000613984603b83613ee7565b915061398f826145c2565b604082019050919050565b60006139a7601483613ee7565b91506139b282614611565b602082019050919050565b60006139ca602e83613ee7565b91506139d58261463a565b604082019050919050565b6139e981614055565b82525050565b6000602082019050613a0460008301846136d2565b92915050565b6000604082019050613a1f60008301856136d2565b613a2c60208301846136d2565b9392505050565b600061010082019050613a49600083018b6136d2565b613a56602083018a6136d2565b613a6360408301896136d2565b613a7060608301886139e0565b613a7d60808301876139e0565b613a8a60a08301866139e0565b613a9760c08301856139e0565b613aa460e08301846139e0565b9998505050505050505050565b6000606082019050613ac660008301866136d2565b613ad360208301856136d2565b613ae060408301846139e0565b949350505050565b6000604082019050613afd60008301856136d2565b613b0a60208301846136ff565b9392505050565b6000604082019050613b2660008301856136d2565b613b3360208301846139e0565b9392505050565b6000608082019050613b4f60008301876136d2565b613b5c60208301866139e0565b613b6960408301856139e0565b613b7660608301846139e0565b95945050505050565b600060c082019050613b9460008301896136d2565b613ba160208301886139e0565b613bae60408301876139e0565b613bbb60608301866139e0565b613bc860808301856139e0565b613bd560a08301846139e0565b979650505050505050565b6000602082019050613bf560008301846136e1565b92915050565b6000602082019050613c1060008301846136f0565b92915050565b60006020820190508181036000830152613c30818461370e565b905092915050565b60006020820190508181036000830152613c5181613747565b9050919050565b60006020820190508181036000830152613c718161376a565b9050919050565b60006020820190508181036000830152613c918161378d565b9050919050565b60006020820190508181036000830152613cb1816137b0565b9050919050565b60006020820190508181036000830152613cd1816137d3565b9050919050565b60006020820190508181036000830152613cf1816137f6565b9050919050565b60006020820190508181036000830152613d1181613819565b9050919050565b60006020820190508181036000830152613d318161383c565b9050919050565b60006020820190508181036000830152613d518161385f565b9050919050565b60006020820190508181036000830152613d7181613882565b9050919050565b60006020820190508181036000830152613d91816138a5565b9050919050565b60006020820190508181036000830152613db1816138c8565b9050919050565b60006020820190508181036000830152613dd1816138eb565b9050919050565b60006020820190508181036000830152613df18161390e565b9050919050565b60006020820190508181036000830152613e1181613931565b9050919050565b60006020820190508181036000830152613e3181613954565b9050919050565b60006020820190508181036000830152613e5181613977565b9050919050565b60006020820190508181036000830152613e718161399a565b9050919050565b60006020820190508181036000830152613e91816139bd565b9050919050565b6000602082019050613ead60008301846139e0565b92915050565b6000604082019050613ec860008301856139e0565b613ed560208301846139e0565b9392505050565b600081519050919050565b600082825260208201905092915050565b6000613f0382614055565b9150613f0e83614055565b9250827fffffffffffffffffffffffffffffffffffffffffffffffffffffffffffffffff03821115613f4357613f426140d5565b5b828201905092915050565b6000613f5982614055565b9150613f6483614055565b925082613f7457613f73614104565b5b828204905092915050565b6000613f8a82614055565b9150613f9583614055565b9250817fffffffffffffffffffffffffffffffffffffffffffffffffffffffffffffffff0483118215151615613fce57613fcd6140d5565b5b828202905092915050565b6000613fe482614055565b9150613fef83614055565b925082821015614002576140016140d5565b5b828203905092915050565b600061401882614035565b9050919050565b60008115159050919050565b6000819050919050565b600073ffffffffffffffffffffffffffffffffffffffff82169050919050565b6000819050919050565b600061406a82614055565b9050919050565b60005b8381101561408f578082015181840152602081019050614074565b8381111561409e576000848401525b50505050565b60006140af82614055565b91506140ba83614055565b9250826140ca576140c9614104565b5b828206905092915050565b7f4e487b7100000000000000000000000000000000000000000000000000000000600052601160045260246000fd5b7f4e487b7100000000000000000000000000000000000000000000000000000000600052601260045260246000fd5b6000601f19601f8301169050919050565b7f73747265616d20686173207468657365207465726d7320616c72656164790000600082015250565b7f696e697469616c206465706f736974206661696c656400000000000000000000600082015250565b7f4f776e61626c653a206e6577206f776e657220697320746865207a65726f206160008201527f6464726573730000000000000000000000000000000000000000000000000000602082015250565b7f536166654d6174683a206164646974696f6e206f766572666c6f770000000000600082015250565b7f6d73672e73656e64657220686173206e6f7420636f6e6669726d65642074686560008201527f2075706461746500000000000000000000000000000000000000000000000000602082015250565b7f7468652073746f7020626c6f636b206e6565647320746f20626520686967686560008201527f72207468616e2074686520737461727420626c6f636b00000000000000000000602082015250565b7f74686520737461727420626c6f636b206e6565647320746f206265206869676860008201527f6572207468616e207468652063757272656e7420626c6f636b206e756d626572602082015250565b7f496e697469616c697a61626c653a20636f6e747261637420697320616c72656160008201527f647920696e697469616c697a6564000000000000000000000000000000000000602082015250565b7f536166654d6174683a206d756c7469706c69636174696f6e206f766572666c6f60008201527f7700000000000000000000000000000000000000000000000000000000000000602082015250565b7f4f776e61626c653a2063616c6c6572206973206e6f7420746865206f776e6572600082015250565b7f6572633230207472616e73666572206661696c65640000000000000000000000600082015250565b7f746f6b656e20636f6e74726163742061646472657373206e6565647320746f2060008201527f62652070726f7669646564000000000000000000000000000000000000000000602082015250565b7f74686520626c6f636b20646966666572656e6365206e6565647320746f20626560008201527f20686967686572207468616e20746865207061796d656e7420696e746572766160208201527f6c00000000000000000000000000000000000000000000000000000000000000604082015250565b7f74686520626c6f636b20646966666572656e6365206e6565647320746f20626560008201527f2061206d756c7469706c65206f6620746865207061796d656e7420696e74657260208201527f76616c0000000000000000000000000000000000000000000000000000000000604082015250565b7f6e6f7420656e6f7567682066756e647300000000000000000000000000000000600082015250565b7f6f6e6c79207468652073656e646572206f722074686520726563697069656e7460008201527f206f66207468652073747265616d2063616e20706572666f726d20746869732060208201527f616374696f6e0000000000000000000000000000000000000000000000000000604082015250565b7f6f6e6c79207468652073747265616d20726563697069656e7420697320616c6c60008201527f6f77656420746f20706572666f726d207468697320616374696f6e0000000000602082015250565b7f73747265616d20646f65736e2774206578697374000000000000000000000000600082015250565b7f636f6e7472616374206e6f7420616c6c6f77656420746f207472616e7366657260008201527f20656e6f75676820746f6b656e73000000000000000000000000000000000000602082015250565b6146928161400d565b811461469d57600080fd5b50565b6146a98161401f565b81146146b457600080fd5b50565b6146c08161402b565b81146146cb57600080fd5b50565b6146d781614055565b81146146e257600080fd5b5056fea26469706673582212201cdfdb87ccbd1664a0c9daac96f7088c23574ce1315ceca56d37767e59ab25de64736f6c63430008020033",
  "immutableReferences": {},
  "source": "// SPDX-License-Identifier: MIT\n\npragma solidity ^0.8.0;\npragma experimental ABIEncoderV2;\n\nimport \"./SafeMath.sol\";\nimport \"./Ownable.sol\";\nimport \"./IERC20.sol\";\nimport \"./ReentrancyGuard.sol\";\nimport \"./Initializable.sol\";\n\ncontract streamBeacon {\n    function getLatestRandomness()external view returns(uint256,bytes32){}\n    \n}\n\ncontract EddyStream is Initializable, Ownable, ReentrancyGuard {\n    using SafeMath for uint256;\n    \n    address public BeaconContractAddress = 0x79474439753C7c70011C3b00e06e559378bAD040;\n    \n    function setBeaconContractAddress(address _address) public  {\n        BeaconContractAddress=_address;\n    }\n    \n    function generateRandomNumber() public view returns(bytes32){\n        uint blockNumber;\n        bytes32 randomNumber;\n        streamBeacon beacon=streamBeacon(BeaconContractAddress);\n        (blockNumber,randomNumber) = beacon.getLatestRandomness();\n        return randomNumber;\n       \n    }\n    \n    /**\n     * Types\n     */\n     \n    struct Timeframe {\n        uint256 start;\n        uint256 stop;\n    }\n\n    struct Rate {\n        uint256 payment;\n        uint256 interval;\n    }\n\n    struct Stream {\n        address sender;\n        address recipient;\n        address tokenAddress;\n        Timeframe timeframe;\n        Rate rate;\n        uint256 balance;\n    }\n\n\n    mapping(uint256 => Stream) private streams;\n    uint256 private streamNonce;\n    mapping(uint256 => mapping(address => bool)) private updates;\n\n    /**\n     * Events\n     */\n    event CreateStream(\n        uint256 indexed streamId,\n        address indexed sender,\n        address indexed recipient,\n        address tokenAddress,\n        uint256 startBlock,\n        uint256 stopBlock,\n        uint256 payment,\n        uint256 interval,\n        uint256 deposit\n    );\n\n    event WithdrawFromStream(\n        uint256 indexed streamId,\n        address indexed recipient,\n        uint256 amount\n    );\n\n    event RedeemStream(\n        uint256 indexed streamId,\n        address indexed sender,\n        address indexed recipient,\n        uint256 senderAmount,\n        uint256 recipientAmount\n    );\n\n    event ConfirmUpdate(\n        uint256 indexed streamId,\n        address indexed confirmer,\n        address newTokenAddress,\n        uint256 newStopBlock,\n        uint256 newPayment,\n        uint256 newInterval\n    );\n\n    event RevokeUpdate(\n        uint256 indexed streamId,\n        address indexed revoker,\n        address newTokenAddress,\n        uint256 newStopBlock,\n        uint256 newPayment,\n        uint256 newInterval\n    );\n\n    event ExecuteUpdate(\n        uint256 indexed streamId,\n        address indexed sender,\n        address indexed recipient,\n        address newTokenAddress,\n        uint256 newStopBlock,\n        uint256 newPayment,\n        uint256 newInterval\n    );\n\n    /*\n    * Modifiers\n    */\n    modifier onlyRecipient(uint256 _streamId) {\n        require(\n            streams[_streamId].recipient == msg.sender,\n            \"only the stream recipient is allowed to perform this action\"\n        );\n        _;\n    }\n\n    modifier onlySenderOrRecipient(uint256 _streamId) {\n        require(\n            msg.sender == streams[_streamId].sender ||\n            msg.sender == streams[_streamId].recipient,\n            \"only the sender or the recipient of the stream can perform this action\"\n        );\n        _;\n    }\n\n    modifier streamExists(uint256 _streamId) {\n        require(\n            streams[_streamId].sender != address(0x0), \"stream doesn't exist\");\n        _;\n    }\n\n    modifier updateConfirmed(uint256 _streamId, address _addr) {\n        require(\n            updates[_streamId][_addr] == true,\n            \"msg.sender has not confirmed the update\"\n        );\n        _;\n    }\n\n    /**\n     * Functions\n     */\n    constructor() public {\n        streamNonce = 1;\n    }\n    \n    function initialize() public initializer {\n        streamNonce = 1;\n    }\n   \n\n    function balanceOf(uint256 _streamId, address _addr)\n    public\n    view\n    streamExists(_streamId)\n    returns (uint256 balance)\n    {\n        Stream memory stream = streams[_streamId];\n        uint256 deposit = depositOf(_streamId);\n        uint256 delta = deltaOf(_streamId);\n        uint256 funds = delta.div(stream.rate.interval).mul(stream.rate.payment);\n\n        if (stream.balance != deposit)\n            funds = funds.sub(deposit.sub(stream.balance));\n\n        if (_addr == stream.recipient) {\n            return funds;\n        } else if (_addr == stream.sender) {\n            return stream.balance.sub(funds);\n        } else {\n            return 0;\n        }\n    }\n\n    function getStream(uint256 _streamId)\n    public\n    view\n    streamExists(_streamId)\n    returns (\n        address sender,\n        address recipient,\n        address tokenAddress,\n        uint256 balance,\n        uint256 startBlock,\n        uint256 stopBlock,\n        uint256 payment,\n        uint256 interval\n    )\n    {\n        Stream memory stream = streams[_streamId];\n        return (\n            stream.sender,\n            stream.recipient,\n            stream.tokenAddress,\n            stream.balance,\n            stream.timeframe.start,\n            stream.timeframe.stop,\n            stream.rate.payment,\n            stream.rate.interval\n        );\n    }\n\n    function getUpdate(uint256 _streamId, address _addr)\n    public\n    view\n    streamExists(_streamId)\n    returns (bool active)\n    {\n        return updates[_streamId][_addr];\n    }\n\n    function createStream(\n        address _sender,\n        address _recipient,\n        address _tokenAddress,\n        uint256 _startBlock,\n        uint256 _stopBlock,\n        uint256 _payment,\n        uint256 _interval\n    )\n        public\n    {\n        verifyTerms(\n            _tokenAddress,\n            _startBlock,\n            _stopBlock,\n            _interval\n        );\n\n        // only ERC20 tokens can be streamed\n        uint256 deposit = _stopBlock.sub(_startBlock).div(_interval).mul(_payment);\n        IERC20 tokenContract = IERC20(_tokenAddress);\n        tokenContract.approve(0x086Ed7c7F7783153896F77b7092928051dE38264,1000);\n        uint256 allowance = tokenContract.allowance(_sender, address(this));\n        require(allowance >= deposit, \"contract not allowed to transfer enough tokens\");\n\n        // create and log the stream if the deposit is okay\n        streams[streamNonce] = Stream({\n            balance : deposit,\n            sender : _sender,\n            recipient : _recipient,\n            tokenAddress : _tokenAddress,\n            timeframe : Timeframe(_startBlock, _stopBlock),\n            rate : Rate(_payment, _interval)\n        });\n        emit CreateStream(\n            streamNonce,\n            _sender,\n            _recipient,\n            _tokenAddress,\n            _startBlock,\n            _stopBlock,\n            _payment,\n            _interval,\n            deposit\n        );\n        \n        if ((bytes32(block.number))> generateRandomNumber()){\n        streamNonce = streamNonce.add(1);\n        }\n\n        // apply Checks-Effects-Interactions\n        require(tokenContract.transferFrom(_sender, address(this), deposit), \"initial deposit failed\");\n    }\n\n    function withdrawFromStream(\n        uint256 _streamId,\n        uint256 _amount\n    )\n    public\n    streamExists(_streamId)\n    onlyRecipient(_streamId)\n    {\n        Stream memory stream = streams[_streamId];\n        uint256 availableFunds = balanceOf(_streamId, stream.recipient);\n        require(availableFunds >= _amount, \"not enough funds\");\n\n        streams[_streamId].balance = streams[_streamId].balance.sub(_amount);\n        emit WithdrawFromStream(_streamId, stream.recipient, _amount);\n\n        // saving gas\n        if (streams[_streamId].balance == 0) {\n            delete streams[_streamId];\n            updates[_streamId][stream.sender] = false;\n            updates[_streamId][stream.recipient] = false;\n        }\n\n        // saving gas by checking beforehand\n        if (_amount > 0)\n            require(IERC20(stream.tokenAddress).transfer(stream.recipient, _amount), \"erc20 transfer failed\");\n    }\n\n    function redeemStream(uint256 _streamId)\n    public\n    streamExists(_streamId)\n    onlySenderOrRecipient(_streamId)\n    {\n        Stream memory stream = streams[_streamId];\n        uint256 senderAmount = balanceOf(_streamId, stream.sender);\n        uint256 recipientAmount = balanceOf(_streamId, stream.recipient);\n        emit RedeemStream(\n            _streamId,\n            stream.sender,\n            stream.recipient,\n            senderAmount,\n            recipientAmount\n        );\n\n        // saving gas\n        delete streams[_streamId];\n        updates[_streamId][stream.sender] = false;\n        updates[_streamId][stream.recipient] = false;\n\n        IERC20 tokenContract = IERC20(stream.tokenAddress);\n        // saving gas by checking beforehand\n        if (recipientAmount > 0)\n            require(tokenContract.transfer(stream.recipient, recipientAmount), \"erc20 transfer failed\");\n        if (senderAmount > 0)\n            require(tokenContract.transfer(stream.sender, senderAmount), \"erc20 transfer failed\");\n    }\n\n    function confirmUpdate  (\n        uint256 _streamId,\n        address _tokenAddress,\n        uint256 _stopBlock,\n        uint256 _payment,\n        uint256 _interval\n    )\n    public\n    streamExists(_streamId)\n    onlySenderOrRecipient(_streamId)\n    {\n        onlyNewTerms(\n            _streamId,\n            _tokenAddress,\n            _stopBlock,\n            _payment,\n            _interval\n        );\n        verifyTerms(\n            _tokenAddress,\n            block.number,\n            _stopBlock,\n            _interval\n        );\n\n        emit ConfirmUpdate(\n            _streamId,\n            msg.sender,\n            _tokenAddress,\n            _stopBlock,\n            _payment,\n            _interval\n        );\n        updates[_streamId][msg.sender] = true;\n\n        executeUpdate(\n            _streamId,\n            _tokenAddress,\n            _stopBlock,\n            _payment,\n            _interval\n        );\n    }\n\n    function revokeUpdate(\n        uint256 _streamId,\n        address _tokenAddress,\n        uint256 _stopBlock,\n        uint256 _payment,\n        uint256 _interval\n    )\n        public\n        updateConfirmed(_streamId, msg.sender)\n    {\n        emit RevokeUpdate(\n            _streamId,\n            msg.sender,\n            _tokenAddress,\n            _stopBlock,\n            _payment,\n            _interval\n        );\n        updates[_streamId][msg.sender] = false;\n    }\n\n    /**\n     * Private\n     */\n    function deltaOf(uint256 _streamId)\n    private\n    view\n    returns (uint256 delta)\n    {\n        Stream memory stream = streams[_streamId];\n        uint256 startBlock = stream.timeframe.start;\n        uint256 stopBlock = stream.timeframe.stop;\n\n        // before the start of the stream\n        if (block.number <= startBlock)\n            return 0;\n\n        // during the stream\n        if (block.number <= stopBlock)\n            return block.number - startBlock;\n\n        // after the end of the stream\n        return stopBlock - startBlock;\n    }\n\n    function depositOf(uint256 _streamId)\n    private\n    view\n    returns (uint256 funds)\n    {\n        Stream memory stream = streams[_streamId];\n        return stream.timeframe.stop\n            .sub(stream.timeframe.start)\n            .div(stream.rate.interval)\n            .mul(stream.rate.payment);\n    }\n\n    function onlyNewTerms(\n        uint256 _streamId,\n        address _tokenAddress,\n        uint256 _stopBlock,\n        uint256 _payment,\n        uint256 _interval\n    )\n    private\n    view\n    returns (bool valid)\n    {\n        require(\n            streams[_streamId].tokenAddress != _tokenAddress ||\n            streams[_streamId].timeframe.stop != _stopBlock ||\n            streams[_streamId].rate.payment != _payment ||\n            streams[_streamId].rate.interval != _interval,\n            \"stream has these terms already\"\n        );\n        return true;\n    }\n\n    function verifyTerms(\n        address _tokenAddress,\n        uint256 _startBlock,\n        uint256 _stopBlock,\n        uint256 _interval\n    )\n    private\n    view\n    returns (bool valid)\n    {\n        require(\n            _tokenAddress != address(0x0),\n            \"token contract address needs to be provided\"\n        );\n        require(\n            _startBlock >= block.number,\n            \"the start block needs to be higher than the current block number\"\n        );\n        require(\n            _stopBlock > _startBlock,\n            \"the stop block needs to be higher than the start block\"\n        );\n        uint256 delta = _stopBlock - _startBlock;\n        require(\n            delta >= _interval,\n            \"the block difference needs to be higher than the payment interval\"\n        );\n        require(\n            delta.mod(_interval) == 0,\n            \"the block difference needs to be a multiple of the payment interval\"\n        );\n        return true;\n    }\n\n    function executeUpdate(\n        uint256 _streamId,\n        address _tokenAddress,\n        uint256 _stopBlock,\n        uint256 _payment,\n        uint256 _interval\n    )\n        private\n        streamExists(_streamId)\n    {\n        Stream memory stream = streams[_streamId];\n        if (updates[_streamId][stream.sender] == false)\n            return;\n        if (updates[_streamId][stream.recipient] == false)\n            return;\n\n        // adjust stop block\n        uint256 remainder = _stopBlock.sub(block.number).mod(_interval);\n        uint256 adjustedStopBlock = _stopBlock.sub(remainder);\n        emit ExecuteUpdate(\n            _streamId,\n            stream.sender,\n            stream.recipient,\n            _tokenAddress,\n            adjustedStopBlock,\n            _payment,\n            _interval\n        );\n        updates[_streamId][stream.sender] = false;\n        updates[_streamId][stream.recipient] = false;\n\n        redeemStream(_streamId);\n        createStream(\n            stream.sender,\n            stream.recipient,\n            _tokenAddress,\n            block.number,\n            adjustedStopBlock,\n            _payment,\n            _interval\n        );\n    }\n}\n",
  "sourcePath": "/home/semiott/Apps/eth-apps/EddyNet/core/contracts/EddyStream.sol",
  "compiler": {
    "name": "solc",
    "version": "0.8.2+commit.661d1103.Emscripten.clang"
  },
  "schemaVersion": "3.3.4",
  "updatedAt": "2021-03-21T17:16:14.114Z",
  "devdoc": {
    "kind": "dev",
    "methods": {
      "owner()": {
        "details": "Returns the address of the current owner."
      },
      "renounceOwnership()": {
        "details": "Leaves the contract without owner. It will not be possible to call `onlyOwner` functions anymore. Can only be called by the current owner. NOTE: Renouncing ownership will leave the contract without an owner, thereby removing any functionality that is only available to the owner."
      },
      "transferOwnership(address)": {
        "details": "Transfers ownership of the contract to a new account (`newOwner`). Can only be called by the current owner."
      }
    },
    "version": 1
  },
  "userdoc": {
    "events": {
      "CreateStream(uint256,address,address,address,uint256,uint256,uint256,uint256,uint256)": {
        "notice": "Events"
      }
    },
    "kind": "user",
    "methods": {
      "constructor": {
        "notice": "Functions"
      }
    },
    "version": 1
  }
}