{
  "contractName": "EddyDistribution",
  "abi": [
    {
      "inputs": [
        {
          "internalType": "address",
          "name": "_tokenAddress",
          "type": "address"
        }
      ],
      "stateMutability": "nonpayable",
      "type": "constructor"
    },
    {
      "anonymous": false,
      "inputs": [
        {
          "indexed": true,
          "internalType": "address",
          "name": "previousOwner",
          "type": "address"
        },
        {
          "indexed": true,
          "internalType": "address",
          "name": "newOwner",
          "type": "address"
        }
      ],
      "name": "OwnershipTransferred",
      "type": "event"
    },
    {
      "inputs": [
        {
          "internalType": "uint256",
          "name": "",
          "type": "uint256"
        }
      ],
      "name": "arrayHolders",
      "outputs": [
        {
          "internalType": "address",
          "name": "",
          "type": "address"
        }
      ],
      "stateMutability": "view",
      "type": "function"
    },
    {
      "inputs": [
        {
          "internalType": "uint256",
          "name": "_supply",
          "type": "uint256"
        },
        {
          "internalType": "uint256",
          "name": "_reserveBalance",
          "type": "uint256"
        },
        {
          "internalType": "uint32",
          "name": "_reserveRatio",
          "type": "uint32"
        },
        {
          "internalType": "uint256",
          "name": "_depositAmount",
          "type": "uint256"
        }
      ],
      "name": "calculatePurchaseReturn",
      "outputs": [
        {
          "internalType": "uint256",
          "name": "",
          "type": "uint256"
        }
      ],
      "stateMutability": "view",
      "type": "function"
    },
    {
      "inputs": [
        {
          "internalType": "uint256",
          "name": "_supply",
          "type": "uint256"
        },
        {
          "internalType": "uint256",
          "name": "_reserveBalance",
          "type": "uint256"
        },
        {
          "internalType": "uint32",
          "name": "_reserveRatio",
          "type": "uint32"
        },
        {
          "internalType": "uint256",
          "name": "_sellAmount",
          "type": "uint256"
        }
      ],
      "name": "calculateSaleReturn",
      "outputs": [
        {
          "internalType": "uint256",
          "name": "",
          "type": "uint256"
        }
      ],
      "stateMutability": "view",
      "type": "function"
    },
    {
      "inputs": [],
      "name": "curSoldPrice",
      "outputs": [
        {
          "internalType": "uint256",
          "name": "",
          "type": "uint256"
        }
      ],
      "stateMutability": "view",
      "type": "function"
    },
    {
      "inputs": [],
      "name": "initPrice",
      "outputs": [
        {
          "internalType": "uint256",
          "name": "",
          "type": "uint256"
        }
      ],
      "stateMutability": "view",
      "type": "function"
    },
    {
      "inputs": [
        {
          "internalType": "address",
          "name": "",
          "type": "address"
        }
      ],
      "name": "mHolders",
      "outputs": [
        {
          "internalType": "address",
          "name": "holder",
          "type": "address"
        },
        {
          "internalType": "uint256",
          "name": "ntoken",
          "type": "uint256"
        },
        {
          "internalType": "uint256",
          "name": "target",
          "type": "uint256"
        }
      ],
      "stateMutability": "view",
      "type": "function"
    },
    {
      "inputs": [],
      "name": "mToken",
      "outputs": [
        {
          "internalType": "contract EddyStreetToken",
          "name": "",
          "type": "address"
        }
      ],
      "stateMutability": "view",
      "type": "function"
    },
    {
      "inputs": [],
      "name": "owner",
      "outputs": [
        {
          "internalType": "address",
          "name": "",
          "type": "address"
        }
      ],
      "stateMutability": "view",
      "type": "function"
    },
    {
      "inputs": [],
      "name": "renounceOwnership",
      "outputs": [],
      "stateMutability": "nonpayable",
      "type": "function"
    },
    {
      "inputs": [],
      "name": "reserveRatio",
      "outputs": [
        {
          "internalType": "uint32",
          "name": "",
          "type": "uint32"
        }
      ],
      "stateMutability": "view",
      "type": "function"
    },
    {
      "inputs": [],
      "name": "supply",
      "outputs": [
        {
          "internalType": "uint256",
          "name": "",
          "type": "uint256"
        }
      ],
      "stateMutability": "view",
      "type": "function"
    },
    {
      "inputs": [
        {
          "internalType": "address",
          "name": "newOwner",
          "type": "address"
        }
      ],
      "name": "transferOwnership",
      "outputs": [],
      "stateMutability": "nonpayable",
      "type": "function"
    },
    {
      "inputs": [],
      "name": "version",
      "outputs": [
        {
          "internalType": "string",
          "name": "",
          "type": "string"
        }
      ],
      "stateMutability": "view",
      "type": "function"
    },
    {
      "inputs": [
        {
          "internalType": "uint256",
          "name": "_ntoken",
          "type": "uint256"
        },
        {
          "internalType": "uint256",
          "name": "_target",
          "type": "uint256"
        }
      ],
      "name": "buyTokens",
      "outputs": [
        {
          "internalType": "bool",
          "name": "",
          "type": "bool"
        }
      ],
      "stateMutability": "nonpayable",
      "type": "function"
    },
    {
      "inputs": [
        {
          "internalType": "uint256",
          "name": "amount",
          "type": "uint256"
        }
      ],
      "name": "sellTokens",
      "outputs": [
        {
          "internalType": "bool",
          "name": "",
          "type": "bool"
        }
      ],
      "stateMutability": "nonpayable",
      "type": "function"
    },
    {
      "inputs": [
        {
          "internalType": "uint256",
          "name": "_price",
          "type": "uint256"
        }
      ],
      "name": "changeTargetPrice",
      "outputs": [
        {
          "internalType": "bool",
          "name": "",
          "type": "bool"
        }
      ],
      "stateMutability": "nonpayable",
      "type": "function"
    },
    {
      "inputs": [],
      "name": "queryNextPrice",
      "outputs": [
        {
          "internalType": "uint256",
          "name": "",
          "type": "uint256"
        }
      ],
      "stateMutability": "view",
      "type": "function"
    },
    {
      "inputs": [],
      "name": "getTokenSupply",
      "outputs": [
        {
          "internalType": "uint256",
          "name": "",
          "type": "uint256"
        }
      ],
      "stateMutability": "view",
      "type": "function"
    },
    {
      "inputs": [],
      "name": "getTokenBalance",
      "outputs": [
        {
          "internalType": "uint256",
          "name": "",
          "type": "uint256"
        }
      ],
      "stateMutability": "view",
      "type": "function"
    }
  ],
  "bytecode": "0x60806040526040518060400160405280600381526020017f302e3300000000000000000000000000000000000000000000000000000000008152506002908051906020019062000051929190620020e7565b503480156200005f57600080fd5b50604051620066af380380620066af8339818101604052810190620000859190620021ae565b600062000097620020df60201b60201c565b9050806000806101000a81548173ffffffffffffffffffffffffffffffffffffffff021916908373ffffffffffffffffffffffffffffffffffffffff1602179055508073ffffffffffffffffffffffffffffffffffffffff16600073ffffffffffffffffffffffffffffffffffffffff167f8be0079c531659141344cd1fd0a4f28419497f9722a3daafe3b4186f6b6457e060405160405180910390a35060018081905550701c35fedd14ffffffffffffffffffffffff60036020608081106200018a577f4e487b7100000000000000000000000000000000000000000000000000000000600052603260045260246000fd5b0181905550701b0ce43b323fffffffffffffffffffffff6003602160808110620001dd577f4e487b7100000000000000000000000000000000000000000000000000000000600052603260045260246000fd5b01819055507019f0028ec1ffffffffffffffffffffffff600360226080811062000230577f4e487b7100000000000000000000000000000000000000000000000000000000600052603260045260246000fd5b01819055507018ded91f0e7fffffffffffffffffffffff600360236080811062000283577f4e487b7100000000000000000000000000000000000000000000000000000000600052603260045260246000fd5b01819055507017d8ec7f0417ffffffffffffffffffffff6003602460808110620002d6577f4e487b7100000000000000000000000000000000000000000000000000000000600052603260045260246000fd5b01819055507016ddc6556cdbffffffffffffffffffffff600360256080811062000329577f4e487b7100000000000000000000000000000000000000000000000000000000600052603260045260246000fd5b01819055507015ecf52776a1ffffffffffffffffffffff60036026608081106200037c577f4e487b7100000000000000000000000000000000000000000000000000000000600052603260045260246000fd5b01819055507015060c256cb2ffffffffffffffffffffff6003602760808110620003cf577f4e487b7100000000000000000000000000000000000000000000000000000000600052603260045260246000fd5b0181905550701428a2f98d72ffffffffffffffffffffff600360286080811062000422577f4e487b7100000000000000000000000000000000000000000000000000000000600052603260045260246000fd5b01819055507013545598e5c23fffffffffffffffffffff600360296080811062000475577f4e487b7100000000000000000000000000000000000000000000000000000000600052603260045260246000fd5b0181905550701288c4161ce1dfffffffffffffffffffff6003602a60808110620004c8577f4e487b7100000000000000000000000000000000000000000000000000000000600052603260045260246000fd5b01819055507011c592761c666fffffffffffffffffffff6003602b608081106200051b577f4e487b7100000000000000000000000000000000000000000000000000000000600052603260045260246000fd5b018190555070110a688680a757ffffffffffffffffffff6003602c608081106200056e577f4e487b7100000000000000000000000000000000000000000000000000000000600052603260045260246000fd5b0181905550701056f1b5bedf77ffffffffffffffffffff6003602d60808110620005c1577f4e487b7100000000000000000000000000000000000000000000000000000000600052603260045260246000fd5b0181905550700faadceceeff8bffffffffffffffffffff6003602e6080811062000614577f4e487b7100000000000000000000000000000000000000000000000000000000600052603260045260246000fd5b0181905550700f05dc6b27edadffffffffffffffffffff6003602f6080811062000667577f4e487b7100000000000000000000000000000000000000000000000000000000600052603260045260246000fd5b0181905550700e67a5a25da4107fffffffffffffffffff6003603060808110620006ba577f4e487b7100000000000000000000000000000000000000000000000000000000600052603260045260246000fd5b0181905550700dcff115b14eedffffffffffffffffffff60036031608081106200070d577f4e487b7100000000000000000000000000000000000000000000000000000000600052603260045260246000fd5b0181905550700d3e7a392431239fffffffffffffffffff600360326080811062000760577f4e487b7100000000000000000000000000000000000000000000000000000000600052603260045260246000fd5b0181905550700cb2ff529eb71e4fffffffffffffffffff6003603360808110620007b3577f4e487b7100000000000000000000000000000000000000000000000000000000600052603260045260246000fd5b0181905550700c2d415c3db974afffffffffffffffffff600360346080811062000806577f4e487b7100000000000000000000000000000000000000000000000000000000600052603260045260246000fd5b0181905550700bad03e7d883f69bffffffffffffffffff600360356080811062000859577f4e487b7100000000000000000000000000000000000000000000000000000000600052603260045260246000fd5b0181905550700b320d03b2c343d5ffffffffffffffffff6003603660808110620008ac577f4e487b7100000000000000000000000000000000000000000000000000000000600052603260045260246000fd5b0181905550700abc25204e02828dffffffffffffffffff6003603760808110620008ff577f4e487b7100000000000000000000000000000000000000000000000000000000600052603260045260246000fd5b0181905550700a4b16f74ee4bb207fffffffffffffffff600360386080811062000952577f4e487b7100000000000000000000000000000000000000000000000000000000600052603260045260246000fd5b01819055507009deaf736ac1f569ffffffffffffffffff6003603960808110620009a5577f4e487b7100000000000000000000000000000000000000000000000000000000600052603260045260246000fd5b0181905550700976bd9952c7aa957fffffffffffffffff6003603a60808110620009f8577f4e487b7100000000000000000000000000000000000000000000000000000000600052603260045260246000fd5b01819055507009131271922eaa606fffffffffffffffff6003603b6080811062000a4b577f4e487b7100000000000000000000000000000000000000000000000000000000600052603260045260246000fd5b01819055507008b380f3558668c46fffffffffffffffff6003603c6080811062000a9e577f4e487b7100000000000000000000000000000000000000000000000000000000600052603260045260246000fd5b0181905550700857ddf0117efa215bffffffffffffffff6003603d6080811062000af1577f4e487b7100000000000000000000000000000000000000000000000000000000600052603260045260246000fd5b01819055507007ffffffffffffffffffffffffffffffff6003603e6080811062000b44577f4e487b7100000000000000000000000000000000000000000000000000000000600052603260045260246000fd5b01819055507007abbf6f6abb9d087fffffffffffffffff6003603f6080811062000b97577f4e487b7100000000000000000000000000000000000000000000000000000000600052603260045260246000fd5b018190555070075af62cbac95f7dfa7fffffffffffffff600360406080811062000bea577f4e487b7100000000000000000000000000000000000000000000000000000000600052603260045260246000fd5b018190555070070d7fb7452e187ac13fffffffffffffff600360416080811062000c3d577f4e487b7100000000000000000000000000000000000000000000000000000000600052603260045260246000fd5b01819055507006c3390ecc8af379295fffffffffffffff600360426080811062000c90577f4e487b7100000000000000000000000000000000000000000000000000000000600052603260045260246000fd5b018190555070067c00a3b07ffc01fd6fffffffffffffff600360436080811062000ce3577f4e487b7100000000000000000000000000000000000000000000000000000000600052603260045260246000fd5b0181905550700637b647c39cbb9d3d27ffffffffffffff600360446080811062000d36577f4e487b7100000000000000000000000000000000000000000000000000000000600052603260045260246000fd5b01819055507005f63b1fc104dbd39587ffffffffffffff600360456080811062000d89577f4e487b7100000000000000000000000000000000000000000000000000000000600052603260045260246000fd5b01819055507005b771955b36e12f7235ffffffffffffff600360466080811062000ddc577f4e487b7100000000000000000000000000000000000000000000000000000000600052603260045260246000fd5b018190555070057b3d49dda84556d6f6ffffffffffffff600360476080811062000e2f577f4e487b7100000000000000000000000000000000000000000000000000000000600052603260045260246000fd5b018190555070054183095b2c8ececf30ffffffffffffff600360486080811062000e82577f4e487b7100000000000000000000000000000000000000000000000000000000600052603260045260246000fd5b018190555070050a28be635ca2b888f77fffffffffffff600360496080811062000ed5577f4e487b7100000000000000000000000000000000000000000000000000000000600052603260045260246000fd5b01819055507004d5156639708c9db33c3fffffffffffff6003604a6080811062000f28577f4e487b7100000000000000000000000000000000000000000000000000000000600052603260045260246000fd5b01819055507004a23105873875bd52dfdfffffffffffff6003604b6080811062000f7b577f4e487b7100000000000000000000000000000000000000000000000000000000600052603260045260246000fd5b0181905550700471649d87199aa990756fffffffffffff6003604c6080811062000fce577f4e487b7100000000000000000000000000000000000000000000000000000000600052603260045260246000fd5b01819055507004429a21a029d4c1457cfbffffffffffff6003604d6080811062001021577f4e487b7100000000000000000000000000000000000000000000000000000000600052603260045260246000fd5b0181905550700415bc6d6fb7dd71af2cb3ffffffffffff6003604e6080811062001074577f4e487b7100000000000000000000000000000000000000000000000000000000600052603260045260246000fd5b01819055507003eab73b3bbfe282243ce1ffffffffffff6003604f60808110620010c7577f4e487b7100000000000000000000000000000000000000000000000000000000600052603260045260246000fd5b01819055507003c1771ac9fb6b4c18e229ffffffffffff60036050608081106200111a577f4e487b7100000000000000000000000000000000000000000000000000000000600052603260045260246000fd5b0181905550700399e96897690418f785257fffffffffff60036051608081106200116d577f4e487b7100000000000000000000000000000000000000000000000000000000600052603260045260246000fd5b0181905550700373fc456c53bb779bf0ea9fffffffffff6003605260808110620011c0577f4e487b7100000000000000000000000000000000000000000000000000000000600052603260045260246000fd5b018190555070034f9e8e490c48e67e6ab8bfffffffffff600360536080811062001213577f4e487b7100000000000000000000000000000000000000000000000000000000600052603260045260246000fd5b018190555070032cbfd4a7adc790560b3337ffffffffff600360546080811062001266577f4e487b7100000000000000000000000000000000000000000000000000000000600052603260045260246000fd5b018190555070030b50570f6e5d2acca94613ffffffffff6003605560808110620012b9577f4e487b7100000000000000000000000000000000000000000000000000000000600052603260045260246000fd5b01819055507002eb40f9f620fda6b56c2861ffffffffff60036056608081106200130c577f4e487b7100000000000000000000000000000000000000000000000000000000600052603260045260246000fd5b01819055507002cc8340ecb0d0f520a6af58ffffffffff60036057608081106200135f577f4e487b7100000000000000000000000000000000000000000000000000000000600052603260045260246000fd5b01819055507002af09481380a0a35cf1ba02ffffffffff6003605860808110620013b2577f4e487b7100000000000000000000000000000000000000000000000000000000600052603260045260246000fd5b0181905550700292c5bdd3b92ec810287b1b3fffffffff600360596080811062001405577f4e487b7100000000000000000000000000000000000000000000000000000000600052603260045260246000fd5b0181905550700277abdcdab07d5a77ac6d6b9fffffffff6003605a6080811062001458577f4e487b7100000000000000000000000000000000000000000000000000000000600052603260045260246000fd5b018190555070025daf6654b1eaa55fd64df5efffffffff6003605b60808110620014ab577f4e487b7100000000000000000000000000000000000000000000000000000000600052603260045260246000fd5b0181905550700244c49c648baa98192dce88b7ffffffff6003605c60808110620014fe577f4e487b7100000000000000000000000000000000000000000000000000000000600052603260045260246000fd5b018190555070022ce03cd5619a311b2471268bffffffff6003605d6080811062001551577f4e487b7100000000000000000000000000000000000000000000000000000000600052603260045260246000fd5b0181905550700215f77c045fbe885654a44a0fffffffff6003605e60808110620015a4577f4e487b7100000000000000000000000000000000000000000000000000000000600052603260045260246000fd5b01819055507001ffffffffffffffffffffffffffffffff6003605f60808110620015f7577f4e487b7100000000000000000000000000000000000000000000000000000000600052603260045260246000fd5b01819055507001eaefdbdaaee7421fc4d3ede5ffffffff60036060608081106200164a577f4e487b7100000000000000000000000000000000000000000000000000000000600052603260045260246000fd5b01819055507001d6bd8b2eb257df7e8ca57b09bfffffff60036061608081106200169d577f4e487b7100000000000000000000000000000000000000000000000000000000600052603260045260246000fd5b01819055507001c35fedd14b861eb0443f7f133fffffff6003606260808110620016f0577f4e487b7100000000000000000000000000000000000000000000000000000000600052603260045260246000fd5b01819055507001b0ce43b322bcde4a56e8ada5afffffff600360636080811062001743577f4e487b7100000000000000000000000000000000000000000000000000000000600052603260045260246000fd5b018190555070019f0028ec1fff007f5a195a39dfffffff600360646080811062001796577f4e487b7100000000000000000000000000000000000000000000000000000000600052603260045260246000fd5b018190555070018ded91f0e72ee74f49b15ba527ffffff6003606560808110620017e9577f4e487b7100000000000000000000000000000000000000000000000000000000600052603260045260246000fd5b018190555070017d8ec7f04136f4e5615fd41a63ffffff60036066608081106200183c577f4e487b7100000000000000000000000000000000000000000000000000000000600052603260045260246000fd5b018190555070016ddc6556cdb84bdc8d12d22e6fffffff60036067608081106200188f577f4e487b7100000000000000000000000000000000000000000000000000000000600052603260045260246000fd5b018190555070015ecf52776a1155b5bd8395814f7fffff6003606860808110620018e2577f4e487b7100000000000000000000000000000000000000000000000000000000600052603260045260246000fd5b018190555070015060c256cb23b3b3cc3754cf40ffffff600360696080811062001935577f4e487b7100000000000000000000000000000000000000000000000000000000600052603260045260246000fd5b01819055507001428a2f98d728ae223ddab715be3fffff6003606a6080811062001988577f4e487b7100000000000000000000000000000000000000000000000000000000600052603260045260246000fd5b018190555070013545598e5c23276ccf0ede68034fffff6003606b60808110620019db577f4e487b7100000000000000000000000000000000000000000000000000000000600052603260045260246000fd5b01819055507001288c4161ce1d6f54b7f61081194fffff6003606c6080811062001a2e577f4e487b7100000000000000000000000000000000000000000000000000000000600052603260045260246000fd5b018190555070011c592761c666aa641d5a01a40f17ffff6003606d6080811062001a81577f4e487b7100000000000000000000000000000000000000000000000000000000600052603260045260246000fd5b0181905550700110a688680a7530515f3e6e6cfdcdffff6003606e6080811062001ad4577f4e487b7100000000000000000000000000000000000000000000000000000000600052603260045260246000fd5b01819055507001056f1b5bedf75c6bcb2ce8aed428ffff6003606f6080811062001b27577f4e487b7100000000000000000000000000000000000000000000000000000000600052603260045260246000fd5b01819055506ffaadceceeff8a0890f3875f008277fff600360706080811062001b79577f4e487b7100000000000000000000000000000000000000000000000000000000600052603260045260246000fd5b01819055506ff05dc6b27edad306388a600f6ba0bfff600360716080811062001bcb577f4e487b7100000000000000000000000000000000000000000000000000000000600052603260045260246000fd5b01819055506fe67a5a25da41063de1495d5b18cdbfff600360726080811062001c1d577f4e487b7100000000000000000000000000000000000000000000000000000000600052603260045260246000fd5b01819055506fdcff115b14eedde6fc3aa5353f2e4fff600360736080811062001c6f577f4e487b7100000000000000000000000000000000000000000000000000000000600052603260045260246000fd5b01819055506fd3e7a3924312399f9aae2e0f868f8fff600360746080811062001cc1577f4e487b7100000000000000000000000000000000000000000000000000000000600052603260045260246000fd5b01819055506fcb2ff529eb71e41582cccd5a1ee26fff600360756080811062001d13577f4e487b7100000000000000000000000000000000000000000000000000000000600052603260045260246000fd5b01819055506fc2d415c3db974ab32a51840c0b67edff600360766080811062001d65577f4e487b7100000000000000000000000000000000000000000000000000000000600052603260045260246000fd5b01819055506fbad03e7d883f69ad5b0a186184e06bff600360776080811062001db7577f4e487b7100000000000000000000000000000000000000000000000000000000600052603260045260246000fd5b01819055506fb320d03b2c343d4829abd6075f0cc5ff600360786080811062001e09577f4e487b7100000000000000000000000000000000000000000000000000000000600052603260045260246000fd5b01819055506fabc25204e02828d73c6e80bcdb1a95bf600360796080811062001e5b577f4e487b7100000000000000000000000000000000000000000000000000000000600052603260045260246000fd5b01819055506fa4b16f74ee4bb2040a1ec6c15fbbf2df6003607a6080811062001ead577f4e487b7100000000000000000000000000000000000000000000000000000000600052603260045260246000fd5b01819055506f9deaf736ac1f569deb1b5ae3f36c130f6003607b6080811062001eff577f4e487b7100000000000000000000000000000000000000000000000000000000600052603260045260246000fd5b01819055506f976bd9952c7aa957f5937d790ef650376003607c6080811062001f51577f4e487b7100000000000000000000000000000000000000000000000000000000600052603260045260246000fd5b01819055506f9131271922eaa6064b73a22d0bd4f2bf6003607d6080811062001fa3577f4e487b7100000000000000000000000000000000000000000000000000000000600052603260045260246000fd5b01819055506f8b380f3558668c46c91c49a2f8e967b96003607e6080811062001ff5577f4e487b7100000000000000000000000000000000000000000000000000000000600052603260045260246000fd5b01819055506f857ddf0117efa215952912839f6473e66003607f6080811062002047577f4e487b7100000000000000000000000000000000000000000000000000000000600052603260045260246000fd5b0181905550600073ffffffffffffffffffffffffffffffffffffffff168173ffffffffffffffffffffffffffffffffffffffff1614156200208757600080fd5b80608360006101000a81548173ffffffffffffffffffffffffffffffffffffffff021916908373ffffffffffffffffffffffffffffffffffffffff16021790555060646087819055506001608881905550506200228d565b600033905090565b828054620020f5906200220e565b90600052602060002090601f01602090048101928262002119576000855562002165565b82601f106200213457805160ff191683800117855562002165565b8280016001018555821562002165579182015b828111156200216457825182559160200191906001019062002147565b5b50905062002174919062002178565b5090565b5b808211156200219357600081600090555060010162002179565b5090565b600081519050620021a88162002273565b92915050565b600060208284031215620021c157600080fd5b6000620021d18482850162002197565b91505092915050565b6000620021e782620021ee565b9050919050565b600073ffffffffffffffffffffffffffffffffffffffff82169050919050565b600060028204905060018216806200222757607f821691505b602082108114156200223e576200223d62002244565b5b50919050565b7f4e487b7100000000000000000000000000000000000000000000000000000000600052602260045260246000fd5b6200227e81620021da565b81146200228a57600080fd5b50565b614412806200229d6000396000f3fe608060405234801561001057600080fd5b50600436106101215760003560e01c80636c11bcd3116100ad578063ad974f4c11610071578063ad974f4c14610324578063b6add0f414610342578063c3b6f93914610360578063f2fde38b1461037e578063fddbcc7a1461039a57610121565b80636c11bcd31461027e578063715018a6146102ae5780637975ce28146102b857806382b2e257146102e85780638da5cb5b1461030657610121565b806329a00e7c116100f457806329a00e7c146101b25780634644d17e146101e257806349f9b0f7146102125780634ad685f91461024257806354fd4d501461026057610121565b8063047fc9aa146101265780630c7d5cd81461014457806314fc35de1461016257806324eee4ca14610180575b600080fd5b61012e6103ca565b60405161013b9190613de2565b60405180910390f35b61014c6103d0565b6040516101599190613dfd565b60405180910390f35b61016a6103e6565b6040516101779190613de2565b60405180910390f35b61019a6004803603810190610195919061393c565b61045c565b6040516101a993929190613c73565b60405180910390f35b6101cc60048036038101906101c79190613a1c565b6104a6565b6040516101d99190613de2565b60405180910390f35b6101fc60048036038101906101f7919061398e565b6105e8565b6040516102099190613caa565b60405180910390f35b61022c60048036038101906102279190613a1c565b6106d5565b6040516102399190613de2565b60405180910390f35b61024a61084b565b6040516102579190613de2565b60405180910390f35b610268610851565b6040516102759190613ce0565b60405180910390f35b6102986004803603810190610293919061398e565b6108df565b6040516102a59190613caa565b60405180910390f35b6102b6610c13565b005b6102d260048036038101906102cd91906139e0565b610d66565b6040516102df9190613caa565b60405180910390f35b6102f06114cf565b6040516102fd9190613de2565b60405180910390f35b61030e6115b4565b60405161031b9190613bf8565b60405180910390f35b61032c6115dd565b6040516103399190613de2565b60405180910390f35b61034a6115e7565b6040516103579190613de2565b60405180910390f35b6103686115ed565b6040516103759190613cc5565b60405180910390f35b6103986004803603810190610393919061393c565b611613565b005b6103b460048036038101906103af919061398e565b6117d5565b6040516103c19190613bf8565b60405180910390f35b60875481565b608360149054906101000a900463ffffffff1681565b60008060875411156103fc576088549050610459565b600060875414156104585760846000610413611814565b73ffffffffffffffffffffffffffffffffffffffff1673ffffffffffffffffffffffffffffffffffffffff168152602001908152602001600020600201549050610459565b5b90565b60846020528060005260406000206000915090508060000160009054906101000a900473ffffffffffffffffffffffffffffffffffffffff16908060010154908060020154905083565b600080851180156104b75750600084115b80156104c9575060008363ffffffff16115b80156104e45750620f424063ffffffff168363ffffffff1611155b610523576040517f08c379a000000000000000000000000000000000000000000000000000000000815260040161051a90613dc2565b60405180910390fd5b600082141561053557600090506105e0565b620f424063ffffffff168363ffffffff16141561057857610571846105638488611b1990919063ffffffff16565b611b9490919063ffffffff16565b90506105e0565b60008060006105908786611bde90919063ffffffff16565b90506105a1818888620f4240611c3c565b809350819450505060008260ff166105c2858b611b1990919063ffffffff16565b901c90506105d98982611dc990919063ffffffff16565b9450505050505b949350505050565b60008073ffffffffffffffffffffffffffffffffffffffff16608460003373ffffffffffffffffffffffffffffffffffffffff1673ffffffffffffffffffffffffffffffffffffffff16815260200190815260200160002060000160009054906101000a900473ffffffffffffffffffffffffffffffffffffffff1673ffffffffffffffffffffffffffffffffffffffff16141561068557600080fd5b81608460003373ffffffffffffffffffffffffffffffffffffffff1673ffffffffffffffffffffffffffffffffffffffff1681526020019081526020016000206002018190555060019050919050565b600080851180156106e65750600084115b80156106f8575060008363ffffffff16115b80156107135750620f424063ffffffff168363ffffffff1611155b801561071f5750848211155b61075e576040517f08c379a000000000000000000000000000000000000000000000000000000000815260040161075590613dc2565b60405180910390fd5b60008214156107705760009050610843565b8482141561078057839050610843565b620f424063ffffffff168363ffffffff1614156107c3576107bc856107ae8487611b1990919063ffffffff16565b611b9490919063ffffffff16565b9050610843565b60008060006107db8589611dc990919063ffffffff16565b90506107ec8882620f424089611c3c565b809350819450505060006108098489611b1990919063ffffffff16565b905060008360ff1689901b905061083b8561082d8385611dc990919063ffffffff16565b611b9490919063ffffffff16565b955050505050505b949350505050565b60865481565b6002805461085e906140cb565b80601f016020809104026020016040519081016040528092919081815260200182805461088a906140cb565b80156108d75780601f106108ac576101008083540402835291602001916108d7565b820191906000526020600020905b8154815290600101906020018083116108ba57829003601f168201915b505050505081565b60008073ffffffffffffffffffffffffffffffffffffffff16608460003373ffffffffffffffffffffffffffffffffffffffff1673ffffffffffffffffffffffffffffffffffffffff16815260200190815260200160002060000160009054906101000a900473ffffffffffffffffffffffffffffffffffffffff1673ffffffffffffffffffffffffffffffffffffffff16141561097c57600080fd5b81608460003373ffffffffffffffffffffffffffffffffffffffff1673ffffffffffffffffffffffffffffffffffffffff1681526020019081526020016000206001015410156109cb57600080fd5b60006109e260885484611b1990919063ffffffff16565b905080608360009054906101000a900473ffffffffffffffffffffffffffffffffffffffff1673ffffffffffffffffffffffffffffffffffffffff166370a08231306040518263ffffffff1660e01b8152600401610a409190613bf8565b60206040518083038186803b158015610a5857600080fd5b505afa158015610a6c573d6000803e3d6000fd5b505050506040513d601f19601f82011682018060405250810190610a9091906139b7565b1015610a9b57600080fd5b608360009054906101000a900473ffffffffffffffffffffffffffffffffffffffff1673ffffffffffffffffffffffffffffffffffffffff1663a9059cbb33836040518363ffffffff1660e01b8152600401610af8929190613c4a565b602060405180830381600087803b158015610b1257600080fd5b505af1158015610b26573d6000803e3d6000fd5b505050506040513d601f19601f82011682018060405250810190610b4a9190613965565b610b5357600080fd5b610ba883608460003373ffffffffffffffffffffffffffffffffffffffff1673ffffffffffffffffffffffffffffffffffffffff16815260200190815260200160002060010154611dc990919063ffffffff16565b608460003373ffffffffffffffffffffffffffffffffffffffff1673ffffffffffffffffffffffffffffffffffffffff16815260200190815260200160002060010181905550610c0383608754611bde90919063ffffffff16565b6087819055506001915050919050565b610c1b611e13565b73ffffffffffffffffffffffffffffffffffffffff1660008054906101000a900473ffffffffffffffffffffffffffffffffffffffff1673ffffffffffffffffffffffffffffffffffffffff1614610ca8576040517f08c379a0000000000000000000000000000000000000000000000000000000008152600401610c9f90613d62565b60405180910390fd5b600073ffffffffffffffffffffffffffffffffffffffff1660008054906101000a900473ffffffffffffffffffffffffffffffffffffffff1673ffffffffffffffffffffffffffffffffffffffff167f8be0079c531659141344cd1fd0a4f28419497f9722a3daafe3b4186f6b6457e060405160405180910390a360008060006101000a81548173ffffffffffffffffffffffffffffffffffffffff021916908373ffffffffffffffffffffffffffffffffffffffff160217905550565b60008073ffffffffffffffffffffffffffffffffffffffff16608460003373ffffffffffffffffffffffffffffffffffffffff1673ffffffffffffffffffffffffffffffffffffffff16815260200190815260200160002060000160009054906101000a900473ffffffffffffffffffffffffffffffffffffffff1673ffffffffffffffffffffffffffffffffffffffff161415610f325760405180606001604052803373ffffffffffffffffffffffffffffffffffffffff168152602001600081526020016000815250608460003373ffffffffffffffffffffffffffffffffffffffff1673ffffffffffffffffffffffffffffffffffffffff16815260200190815260200160002060008201518160000160006101000a81548173ffffffffffffffffffffffffffffffffffffffff021916908373ffffffffffffffffffffffffffffffffffffffff16021790555060208201518160010155604082015181600201559050506085339080600181540180825580915050600190039060005260206000200160009091909190916101000a81548173ffffffffffffffffffffffffffffffffffffffff021916908373ffffffffffffffffffffffffffffffffffffffff1602179055505b600060875411156111215760006087548411610f4e5783610f52565b6087545b9050608360009054906101000a900473ffffffffffffffffffffffffffffffffffffffff1673ffffffffffffffffffffffffffffffffffffffff166323b872dd3330610fa960885486611b1990919063ffffffff16565b6040518463ffffffff1660e01b8152600401610fc793929190613c13565b602060405180830381600087803b158015610fe157600080fd5b505af1158015610ff5573d6000803e3d6000fd5b505050506040513d601f19601f820116820180604052508101906110199190613965565b61102257600080fd5b61107781608460003373ffffffffffffffffffffffffffffffffffffffff1673ffffffffffffffffffffffffffffffffffffffff16815260200190815260200160002060010154611bde90919063ffffffff16565b608460003373ffffffffffffffffffffffffffffffffffffffff1673ffffffffffffffffffffffffffffffffffffffff168152602001908152602001600020600101819055506110d281608754611dc990919063ffffffff16565b60878190555082608460003373ffffffffffffffffffffffffffffffffffffffff1673ffffffffffffffffffffffffffffffffffffffff16815260200190815260200160002060020181905550505b600060875414156114c5576000611136611814565b90506000608460008373ffffffffffffffffffffffffffffffffffffffff1673ffffffffffffffffffffffffffffffffffffffff16815260200190815260200160002060010154851161118957846111cd565b608460008373ffffffffffffffffffffffffffffffffffffffff1673ffffffffffffffffffffffffffffffffffffffff168152602001908152602001600020600101545b90506000611226608460008573ffffffffffffffffffffffffffffffffffffffff1673ffffffffffffffffffffffffffffffffffffffff1681526020019081526020016000206002015483611b1990919063ffffffff16565b9050608360009054906101000a900473ffffffffffffffffffffffffffffffffffffffff1673ffffffffffffffffffffffffffffffffffffffff166323b872dd33608460008773ffffffffffffffffffffffffffffffffffffffff1673ffffffffffffffffffffffffffffffffffffffff16815260200190815260200160002060000160009054906101000a900473ffffffffffffffffffffffffffffffffffffffff16846040518463ffffffff1660e01b81526004016112e993929190613c13565b602060405180830381600087803b15801561130357600080fd5b505af1158015611317573d6000803e3d6000fd5b505050506040513d601f19601f8201168201806040525081019061133b9190613965565b61134457600080fd5b61139982608460008673ffffffffffffffffffffffffffffffffffffffff1673ffffffffffffffffffffffffffffffffffffffff16815260200190815260200160002060010154611dc990919063ffffffff16565b608460008573ffffffffffffffffffffffffffffffffffffffff1673ffffffffffffffffffffffffffffffffffffffff1681526020019081526020016000206001018190555061143482608460003373ffffffffffffffffffffffffffffffffffffffff1673ffffffffffffffffffffffffffffffffffffffff16815260200190815260200160002060010154611bde90919063ffffffff16565b608460003373ffffffffffffffffffffffffffffffffffffffff1673ffffffffffffffffffffffffffffffffffffffff1681526020019081526020016000206001018190555084608460003373ffffffffffffffffffffffffffffffffffffffff1673ffffffffffffffffffffffffffffffffffffffff168152602001908152602001600020600201819055505050505b6001905092915050565b60008073ffffffffffffffffffffffffffffffffffffffff16608460003373ffffffffffffffffffffffffffffffffffffffff1673ffffffffffffffffffffffffffffffffffffffff16815260200190815260200160002060000160009054906101000a900473ffffffffffffffffffffffffffffffffffffffff1673ffffffffffffffffffffffffffffffffffffffff16141561156c57600080fd5b608460003373ffffffffffffffffffffffffffffffffffffffff1673ffffffffffffffffffffffffffffffffffffffff16815260200190815260200160002060010154905090565b60008060009054906101000a900473ffffffffffffffffffffffffffffffffffffffff16905090565b6000608754905090565b60885481565b608360009054906101000a900473ffffffffffffffffffffffffffffffffffffffff1681565b61161b611e13565b73ffffffffffffffffffffffffffffffffffffffff1660008054906101000a900473ffffffffffffffffffffffffffffffffffffffff1673ffffffffffffffffffffffffffffffffffffffff16146116a8576040517f08c379a000000000000000000000000000000000000000000000000000000000815260040161169f90613d62565b60405180910390fd5b600073ffffffffffffffffffffffffffffffffffffffff168173ffffffffffffffffffffffffffffffffffffffff161415611718576040517f08c379a000000000000000000000000000000000000000000000000000000000815260040161170f90613d02565b60405180910390fd5b8073ffffffffffffffffffffffffffffffffffffffff1660008054906101000a900473ffffffffffffffffffffffffffffffffffffffff1673ffffffffffffffffffffffffffffffffffffffff167f8be0079c531659141344cd1fd0a4f28419497f9722a3daafe3b4186f6b6457e060405160405180910390a3806000806101000a81548173ffffffffffffffffffffffffffffffffffffffff021916908373ffffffffffffffffffffffffffffffffffffffff16021790555050565b608581815481106117e557600080fd5b906000526020600020016000915054906101000a900473ffffffffffffffffffffffffffffffffffffffff1681565b6000806000905060005b608580549050811015611a4b576000608460006085848154811061186b577f4e487b7100000000000000000000000000000000000000000000000000000000600052603260045260246000fd5b9060005260206000200160009054906101000a900473ffffffffffffffffffffffffffffffffffffffff1673ffffffffffffffffffffffffffffffffffffffff1673ffffffffffffffffffffffffffffffffffffffff1681526020019081526020016000206001015414156118df57611a38565b608460006085848154811061191d577f4e487b7100000000000000000000000000000000000000000000000000000000600052603260045260246000fd5b9060005260206000200160009054906101000a900473ffffffffffffffffffffffffffffffffffffffff1673ffffffffffffffffffffffffffffffffffffffff1673ffffffffffffffffffffffffffffffffffffffff1681526020019081526020016000206002015460846000608584815481106119c4577f4e487b7100000000000000000000000000000000000000000000000000000000600052603260045260246000fd5b9060005260206000200160009054906101000a900473ffffffffffffffffffffffffffffffffffffffff1673ffffffffffffffffffffffffffffffffffffffff1673ffffffffffffffffffffffffffffffffffffffff168152602001908152602001600020600201541115611a37578091505b5b8080611a43906140fd565b91505061181e565b506084600060858381548110611a8a577f4e487b7100000000000000000000000000000000000000000000000000000000600052603260045260246000fd5b9060005260206000200160009054906101000a900473ffffffffffffffffffffffffffffffffffffffff1673ffffffffffffffffffffffffffffffffffffffff1673ffffffffffffffffffffffffffffffffffffffff16815260200190815260200160002060000160009054906101000a900473ffffffffffffffffffffffffffffffffffffffff1691505090565b600080831415611b2c5760009050611b8e565b60008284611b3a9190613f23565b9050828482611b499190613ec1565b14611b89576040517f08c379a0000000000000000000000000000000000000000000000000000000008152600401611b8090613d42565b60405180910390fd5b809150505b92915050565b6000611bd683836040518060400160405280601a81526020017f536166654d6174683a206469766973696f6e206279207a65726f000000000000815250611e1b565b905092915050565b6000808284611bed9190613e34565b905083811015611c32576040517f08c379a0000000000000000000000000000000000000000000000000000000008152600401611c2990613d22565b60405180910390fd5b8091505092915050565b6000807002000000000000000000000000000000008610611c92576040517f08c379a0000000000000000000000000000000000000000000000000000000008152600401611c8990613da2565b60405180910390fd5b84861015611cd5576040517f08c379a0000000000000000000000000000000000000000000000000000000008152600401611ccc90613d82565b60405180910390fd5b600080866f8000000000000000000000000000000089611cf59190613f23565b611cff9190613ec1565b905070015bf0a8b1457695355fb8ac404e7a79e3811015611d2a57611d2381611e7e565b9150611d36565b611d33816125f7565b91505b60008563ffffffff168763ffffffff1684611d519190613f23565b611d5b9190613ec1565b9050700800000000000000000000000000000000811015611d8d57611d7f81612757565b607f94509450505050611dc0565b6000611d9882612f5b565b9050611db681607f611daa9190613fb1565b60ff1683901c826130d5565b8195509550505050505b94509492505050565b6000611e0b83836040518060400160405280601e81526020017f536166654d6174683a207375627472616374696f6e206f766572666c6f7700008152506137e4565b905092915050565b600033905090565b60008083118290611e62576040517f08c379a0000000000000000000000000000000000000000000000000000000008152600401611e599190613ce0565b60405180910390fd5b5060008385611e719190613ec1565b9050809150509392505050565b6000806000905060008060006fd3094c70f034de4b96ff7d5b6f99fcd88610611ef9576f4000000000000000000000000000000084611ebd9190613e34565b93506fd3094c70f034de4b96ff7d5b6f99fcd86f8000000000000000000000000000000087611eec9190613f23565b611ef69190613ec1565b95505b6fa45af1e1f40c333b3de1db4dd55f29a78610611f68576f2000000000000000000000000000000084611f2c9190613e34565b93506fa45af1e1f40c333b3de1db4dd55f29a76f8000000000000000000000000000000087611f5b9190613f23565b611f659190613ec1565b95505b6f910b022db7ae67ce76b441c27035c6a18610611fd7576f1000000000000000000000000000000084611f9b9190613e34565b93506f910b022db7ae67ce76b441c27035c6a16f8000000000000000000000000000000087611fca9190613f23565b611fd49190613ec1565b95505b6f88415abbe9a76bead8d00cf112e4d4a88610612046576f080000000000000000000000000000008461200a9190613e34565b93506f88415abbe9a76bead8d00cf112e4d4a86f80000000000000000000000000000000876120399190613f23565b6120439190613ec1565b95505b6f84102b00893f64c705e841d5d4064bd386106120b5576f04000000000000000000000000000000846120799190613e34565b93506f84102b00893f64c705e841d5d4064bd36f80000000000000000000000000000000876120a89190613f23565b6120b29190613ec1565b95505b6f8204055aaef1c8bd5c3259f4822735a28610612124576f02000000000000000000000000000000846120e89190613e34565b93506f8204055aaef1c8bd5c3259f4822735a26f80000000000000000000000000000000876121179190613f23565b6121219190613ec1565b95505b6f810100ab00222d861931c15e39b44e998610612193576f01000000000000000000000000000000846121579190613e34565b93506f810100ab00222d861931c15e39b44e996f80000000000000000000000000000000876121869190613f23565b6121909190613ec1565b95505b6f808040155aabbbe9451521693554f7338610612201576e800000000000000000000000000000846121c59190613e34565b93506f808040155aabbbe9451521693554f7336f80000000000000000000000000000000876121f49190613f23565b6121fe9190613ec1565b95505b6f800000000000000000000000000000008661221d9190613f7d565b92508291506f80000000000000000000000000000000838461223f9190613f23565b6122499190613ec1565b90507001000000000000000000000000000000008370010000000000000000000000000000000061227a9190613f7d565b836122859190613f23565b61228f9190613ec1565b8461229a9190613e34565b93506f8000000000000000000000000000000081836122b99190613f23565b6122c39190613ec1565b9150700200000000000000000000000000000000836faaaaaaaaaaaaaaaaaaaaaaaaaaaaaaaa6122f39190613f7d565b836122fe9190613f23565b6123089190613ec1565b846123139190613e34565b93506f8000000000000000000000000000000081836123329190613f23565b61233c9190613ec1565b9150700300000000000000000000000000000000836f9999999999999999999999999999999961236c9190613f7d565b836123779190613f23565b6123819190613ec1565b8461238c9190613e34565b93506f8000000000000000000000000000000081836123ab9190613f23565b6123b59190613ec1565b9150700400000000000000000000000000000000836f924924924924924924924924924924926123e59190613f7d565b836123f09190613f23565b6123fa9190613ec1565b846124059190613e34565b93506f8000000000000000000000000000000081836124249190613f23565b61242e9190613ec1565b9150700500000000000000000000000000000000836f8e38e38e38e38e38e38e38e38e38e38e61245e9190613f7d565b836124699190613f23565b6124739190613ec1565b8461247e9190613e34565b93506f80000000000000000000000000000000818361249d9190613f23565b6124a79190613ec1565b9150700600000000000000000000000000000000836f8ba2e8ba2e8ba2e8ba2e8ba2e8ba2e8b6124d79190613f7d565b836124e29190613f23565b6124ec9190613ec1565b846124f79190613e34565b93506f8000000000000000000000000000000081836125169190613f23565b6125209190613ec1565b9150700700000000000000000000000000000000836f89d89d89d89d89d89d89d89d89d89d896125509190613f7d565b8361255b9190613f23565b6125659190613ec1565b846125709190613e34565b93506f80000000000000000000000000000000818361258f9190613f23565b6125999190613ec1565b9150700800000000000000000000000000000000836f888888888888888888888888888888886125c99190613f7d565b836125d49190613f23565b6125de9190613ec1565b846125e99190613e34565b935083945050505050919050565b600080600090506000839050700100000000000000000000000000000000811061266f5760006126416f800000000000000000000000000000008361263c9190613ec1565b613848565b90508060ff1682901c91506f800000000000000000000000000000008160ff1661266b9190613f23565b9250505b6f80000000000000000000000000000000811115612717576000607f90505b60008160ff161115612715576f8000000000000000000000000000000082836126b79190613f23565b6126c19190613ec1565b9150700100000000000000000000000000000000821061270457600182901c91506001816126ef9190613fb1565b60ff166001901b836127019190613e34565b92505b8061270e906140a1565b905061268e565b505b6f05b9de1d10bf4103d647b0955897ba806f03f80fe03f80fe03f80fe03f80fe03f8836127449190613f23565b61274e9190613ec1565b92505050919050565b600080600090506000806f100000000000000000000000000000008561277d9190614146565b91508190506f80000000000000000000000000000000828261279f9190613f23565b6127a99190613ec1565b90506710e1b3be415a0000816127bf9190613f23565b836127ca9190613e34565b92506f8000000000000000000000000000000082826127e99190613f23565b6127f39190613ec1565b90506705a0913f6b1e0000816128099190613f23565b836128149190613e34565b92506f8000000000000000000000000000000082826128339190613f23565b61283d9190613ec1565b9050670168244fdac78000816128539190613f23565b8361285e9190613e34565b92506f80000000000000000000000000000000828261287d9190613f23565b6128879190613ec1565b9050664807432bc180008161289c9190613f23565b836128a79190613e34565b92506f8000000000000000000000000000000082826128c69190613f23565b6128d09190613ec1565b9050660c0135dca04000816128e59190613f23565b836128f09190613e34565b92506f80000000000000000000000000000000828261290f9190613f23565b6129199190613ec1565b90506601b707b1cdc0008161292e9190613f23565b836129399190613e34565b92506f8000000000000000000000000000000082826129589190613f23565b6129629190613ec1565b90506536e0f639b800816129769190613f23565b836129819190613e34565b92506f8000000000000000000000000000000082826129a09190613f23565b6129aa9190613ec1565b9050650618fee9f800816129be9190613f23565b836129c99190613e34565b92506f8000000000000000000000000000000082826129e89190613f23565b6129f29190613ec1565b9050649c197dcc0081612a059190613f23565b83612a109190613e34565b92506f800000000000000000000000000000008282612a2f9190613f23565b612a399190613ec1565b9050640e30dce40081612a4c9190613f23565b83612a579190613e34565b92506f800000000000000000000000000000008282612a769190613f23565b612a809190613ec1565b905064012ebd130081612a939190613f23565b83612a9e9190613e34565b92506f800000000000000000000000000000008282612abd9190613f23565b612ac79190613ec1565b90506317499f0081612ad99190613f23565b83612ae49190613e34565b92506f800000000000000000000000000000008282612b039190613f23565b612b0d9190613ec1565b90506301a9d48081612b1f9190613f23565b83612b2a9190613e34565b92506f800000000000000000000000000000008282612b499190613f23565b612b539190613ec1565b9050621c638081612b649190613f23565b83612b6f9190613e34565b92506f800000000000000000000000000000008282612b8e9190613f23565b612b989190613ec1565b90506201c63881612ba99190613f23565b83612bb49190613e34565b92506f800000000000000000000000000000008282612bd39190613f23565b612bdd9190613ec1565b9050611ab881612bed9190613f23565b83612bf89190613e34565b92506f800000000000000000000000000000008282612c179190613f23565b612c219190613ec1565b905061017c81612c319190613f23565b83612c3c9190613e34565b92506f800000000000000000000000000000008282612c5b9190613f23565b612c659190613ec1565b9050601481612c749190613f23565b83612c7f9190613e34565b92506f800000000000000000000000000000008282612c9e9190613f23565b612ca89190613ec1565b9050600181612cb79190613f23565b83612cc29190613e34565b92506f80000000000000000000000000000000826721c3677c82b4000085612cea9190613ec1565b612cf49190613e34565b612cfe9190613e34565b925060006f10000000000000000000000000000000861614612d565770018ebef9eac820ae8682b9793ac6d1e7767001c3d6a24ed82218787d624d3e5eba95f984612d499190613f23565b612d539190613ec1565b92505b60006f20000000000000000000000000000000861614612dac577001368b2fc6f9609fe7aceb46aa619baed470018ebef9eac820ae8682b9793ac6d1e77884612d9f9190613f23565b612da99190613ec1565b92505b60006f40000000000000000000000000000000861614612e01576fbc5ab1b16779be3575bd8f0520a9f21f7001368b2fc6f9609fe7aceb46aa619baed584612df49190613f23565b612dfe9190613ec1565b92505b60006f80000000000000000000000000000000861614612e55576f454aaa8efe072e7f6ddbab84b40a55c96fbc5ab1b16779be3575bd8f0520a9f21e84612e489190613f23565b612e529190613ec1565b92505b6000700100000000000000000000000000000000861614612eaa576f0960aadc109e7a3bf4578099615711ea6f454aaa8efe072e7f6ddbab84b40a55c584612e9d9190613f23565b612ea79190613ec1565b92505b6000700200000000000000000000000000000000861614612efe576e2bf84208204f5977f9a8cf01fdce3d6f0960aadc109e7a3bf4578099615711d784612ef19190613f23565b612efb9190613ec1565b92505b6000700400000000000000000000000000000000861614612f50576d03c6ab775dd0b95b4cbee7e65d116e2bf84208204f5977f9a8cf01fdc30784612f439190613f23565b612f4d9190613ec1565b92505b829350505050919050565b600080602090506000607f90505b8060ff16600183612f7a9190613e8a565b60ff161015612ff657600060028284612f939190613e8a565b612f9d9190613ef2565b90508460038260ff1660808110612fdd577f4e487b7100000000000000000000000000000000000000000000000000000000600052603260045260246000fd5b015410612fec57809250612ff0565b8091505b50612f69565b8360038260ff1660808110613034577f4e487b7100000000000000000000000000000000000000000000000000000000600052603260045260246000fd5b0154106130455780925050506130d0565b8360038360ff1660808110613083577f4e487b7100000000000000000000000000000000000000000000000000000000600052603260045260246000fd5b0154106130945781925050506130d0565b60006130c9577f4e487b7100000000000000000000000000000000000000000000000000000000600052600160045260246000fd5b6000925050505b919050565b60008083905060008360ff1685836130ed9190613f23565b901c91506f03442c4e6074a82f1797f72ac00000008261310d9190613f23565b816131189190613e34565b90508360ff16858361312a9190613f23565b901c91506f0116b96f757c380fb287fd0e400000008261314a9190613f23565b816131559190613e34565b90508360ff1685836131679190613f23565b901c91506e45ae5bdd5f0e03eca1ff4390000000826131869190613f23565b816131919190613e34565b90508360ff1685836131a39190613f23565b901c91506e0defabf91302cd95b9ffda50000000826131c29190613f23565b816131cd9190613e34565b90508360ff1685836131df9190613f23565b901c91506e02529ca9832b22439efff9b8000000826131fe9190613f23565b816132099190613e34565b90508360ff16858361321b9190613f23565b901c91506d54f1cf12bd04e516b6da88000000826132399190613f23565b816132449190613e34565b90508360ff1685836132569190613f23565b901c91506d0a9e39e257a09ca2d6db51000000826132749190613f23565b8161327f9190613e34565b90508360ff1685836132919190613f23565b901c91506d012e066e7b839fa050c309000000826132af9190613f23565b816132ba9190613e34565b90508360ff1685836132cc9190613f23565b901c91506c1e33d7d926c329a1ad1a800000826132e99190613f23565b816132f49190613e34565b90508360ff1685836133069190613f23565b901c91506c02bee513bdb4a6b19b5f800000826133239190613f23565b8161332e9190613e34565b90508360ff1685836133409190613f23565b901c91506b3a9316fa79b88eccf2a000008261335c9190613f23565b816133679190613e34565b90508360ff1685836133799190613f23565b901c91506b048177ebe1fa812375200000826133959190613f23565b816133a09190613e34565b90508360ff1685836133b29190613f23565b901c91506a5263fe90242dcbacf00000826133cd9190613f23565b816133d89190613e34565b90508360ff1685836133ea9190613f23565b901c91506a057e22099c030d94100000826134059190613f23565b816134109190613e34565b90508360ff1685836134229190613f23565b901c91506957e22099c030d94100008261343c9190613f23565b816134479190613e34565b90508360ff1685836134599190613f23565b901c915069052b6b54569976310000826134739190613f23565b8161347e9190613e34565b90508360ff1685836134909190613f23565b901c9150684985f67696bf748000826134a99190613f23565b816134b49190613e34565b90508360ff1685836134c69190613f23565b901c91506803dea12ea99e498000826134df9190613f23565b816134ea9190613e34565b90508360ff1685836134fc9190613f23565b901c91506731880f2214b6e000826135149190613f23565b8161351f9190613e34565b90508360ff1685836135319190613f23565b901c915067025bcff56eb36000826135499190613f23565b816135549190613e34565b90508360ff1685836135669190613f23565b901c9150661b722e10ab10008261357d9190613f23565b816135889190613e34565b90508360ff16858361359a9190613f23565b901c91506601317c70077000826135b19190613f23565b816135bc9190613e34565b90508360ff1685836135ce9190613f23565b901c9150650cba84aafa00826135e49190613f23565b816135ef9190613e34565b90508360ff1685836136019190613f23565b901c91506482573a0a00826136169190613f23565b816136219190613e34565b90508360ff1685836136339190613f23565b901c91506405035ad900826136489190613f23565b816136539190613e34565b90508360ff1685836136659190613f23565b901c9150632f881b00826136799190613f23565b816136849190613e34565b90508360ff1685836136969190613f23565b901c91506301b29340826136aa9190613f23565b816136b59190613e34565b90508360ff1685836136c79190613f23565b901c9150620efc40826136da9190613f23565b816136e59190613e34565b90508360ff1685836136f79190613f23565b901c9150617fe0826137099190613f23565b816137149190613e34565b90508360ff1685836137269190613f23565b901c9150610420826137389190613f23565b816137439190613e34565b90508360ff1685836137559190613f23565b901c91506021826137669190613f23565b816137719190613e34565b90508360ff1685836137839190613f23565b901c91506001826137949190613f23565b8161379f9190613e34565b90508360ff166001901b856f0688589cc0e9505e2f2fee5580000000836137c69190613ec1565b6137d09190613e34565b6137da9190613e34565b9250505092915050565b600083831115829061382c576040517f08c379a00000000000000000000000000000000000000000000000000000000081526004016138239190613ce0565b60405180910390fd5b506000838561383b9190613f7d565b9050809150509392505050565b600080600090506000839050610100811015613888575b600181111561388357600181901c905060018261387c9190613e8a565b915061385f565b6138c9565b6000608090505b60008160ff1611156138c7578060ff166001901b82106138b8578060ff1682901c915080831792505b60018160ff16901c905061388f565b505b8192505050919050565b6000813590506138e281614380565b92915050565b6000815190506138f781614397565b92915050565b60008135905061390c816143ae565b92915050565b600081519050613921816143ae565b92915050565b600081359050613936816143c5565b92915050565b60006020828403121561394e57600080fd5b600061395c848285016138d3565b91505092915050565b60006020828403121561397757600080fd5b6000613985848285016138e8565b91505092915050565b6000602082840312156139a057600080fd5b60006139ae848285016138fd565b91505092915050565b6000602082840312156139c957600080fd5b60006139d784828501613912565b91505092915050565b600080604083850312156139f357600080fd5b6000613a01858286016138fd565b9250506020613a12858286016138fd565b9150509250929050565b60008060008060808587031215613a3257600080fd5b6000613a40878288016138fd565b9450506020613a51878288016138fd565b9350506040613a6287828801613927565b9250506060613a73878288016138fd565b91505092959194509250565b613a8881613fe5565b82525050565b613a9781613ff7565b82525050565b613aa68161404a565b82525050565b6000613ab782613e18565b613ac18185613e23565b9350613ad181856020860161406e565b613ada81614204565b840191505092915050565b6000613af2602683613e23565b9150613afd82614215565b604082019050919050565b6000613b15601b83613e23565b9150613b2082614264565b602082019050919050565b6000613b38602183613e23565b9150613b438261428d565b604082019050919050565b6000613b5b602083613e23565b9150613b66826142dc565b602082019050919050565b6000613b7e601c83613e23565b9150613b8982614305565b602082019050919050565b6000613ba1601883613e23565b9150613bac8261432e565b602082019050919050565b6000613bc4600f83613e23565b9150613bcf82614357565b602082019050919050565b613be381614023565b82525050565b613bf28161402d565b82525050565b6000602082019050613c0d6000830184613a7f565b92915050565b6000606082019050613c286000830186613a7f565b613c356020830185613a7f565b613c426040830184613bda565b949350505050565b6000604082019050613c5f6000830185613a7f565b613c6c6020830184613bda565b9392505050565b6000606082019050613c886000830186613a7f565b613c956020830185613bda565b613ca26040830184613bda565b949350505050565b6000602082019050613cbf6000830184613a8e565b92915050565b6000602082019050613cda6000830184613a9d565b92915050565b60006020820190508181036000830152613cfa8184613aac565b905092915050565b60006020820190508181036000830152613d1b81613ae5565b9050919050565b60006020820190508181036000830152613d3b81613b08565b9050919050565b60006020820190508181036000830152613d5b81613b2b565b9050919050565b60006020820190508181036000830152613d7b81613b4e565b9050919050565b60006020820190508181036000830152613d9b81613b71565b9050919050565b60006020820190508181036000830152613dbb81613b94565b9050919050565b60006020820190508181036000830152613ddb81613bb7565b9050919050565b6000602082019050613df76000830184613bda565b92915050565b6000602082019050613e126000830184613be9565b92915050565b600081519050919050565b600082825260208201905092915050565b6000613e3f82614023565b9150613e4a83614023565b9250827fffffffffffffffffffffffffffffffffffffffffffffffffffffffffffffffff03821115613e7f57613e7e614177565b5b828201905092915050565b6000613e958261403d565b9150613ea08361403d565b92508260ff03821115613eb657613eb5614177565b5b828201905092915050565b6000613ecc82614023565b9150613ed783614023565b925082613ee757613ee66141a6565b5b828204905092915050565b6000613efd8261403d565b9150613f088361403d565b925082613f1857613f176141a6565b5b828204905092915050565b6000613f2e82614023565b9150613f3983614023565b9250817fffffffffffffffffffffffffffffffffffffffffffffffffffffffffffffffff0483118215151615613f7257613f71614177565b5b828202905092915050565b6000613f8882614023565b9150613f9383614023565b925082821015613fa657613fa5614177565b5b828203905092915050565b6000613fbc8261403d565b9150613fc78361403d565b925082821015613fda57613fd9614177565b5b828203905092915050565b6000613ff082614003565b9050919050565b60008115159050919050565b600073ffffffffffffffffffffffffffffffffffffffff82169050919050565b6000819050919050565b600063ffffffff82169050919050565b600060ff82169050919050565b60006140558261405c565b9050919050565b600061406782614003565b9050919050565b60005b8381101561408c578082015181840152602081019050614071565b8381111561409b576000848401525b50505050565b60006140ac8261403d565b915060008214156140c0576140bf614177565b5b600182039050919050565b600060028204905060018216806140e357607f821691505b602082108114156140f7576140f66141d5565b5b50919050565b600061410882614023565b91507fffffffffffffffffffffffffffffffffffffffffffffffffffffffffffffffff82141561413b5761413a614177565b5b600182019050919050565b600061415182614023565b915061415c83614023565b92508261416c5761416b6141a6565b5b828206905092915050565b7f4e487b7100000000000000000000000000000000000000000000000000000000600052601160045260246000fd5b7f4e487b7100000000000000000000000000000000000000000000000000000000600052601260045260246000fd5b7f4e487b7100000000000000000000000000000000000000000000000000000000600052602260045260246000fd5b6000601f19601f8301169050919050565b7f4f776e61626c653a206e6577206f776e657220697320746865207a65726f206160008201527f6464726573730000000000000000000000000000000000000000000000000000602082015250565b7f536166654d6174683a206164646974696f6e206f766572666c6f770000000000600082015250565b7f536166654d6174683a206d756c7469706c69636174696f6e206f766572666c6f60008201527f7700000000000000000000000000000000000000000000000000000000000000602082015250565b7f4f776e61626c653a2063616c6c6572206973206e6f7420746865206f776e6572600082015250565b7f4261736573203c203120617265206e6f7420737570706f727465642e00000000600082015250565b7f626173654e2065786365656473206d61782076616c75652e0000000000000000600082015250565b7f496e76616c696420696e707574732e0000000000000000000000000000000000600082015250565b61438981613fe5565b811461439457600080fd5b50565b6143a081613ff7565b81146143ab57600080fd5b50565b6143b781614023565b81146143c257600080fd5b50565b6143ce8161402d565b81146143d957600080fd5b5056fea26469706673582212209d4002befbeea91999769bfcee2e0128d0ae500efc133251a28b7c17933c113764736f6c63430008020033",
  "immutableReferences": {},
  "source": "// SPDX-License-Identifier: Apache License 2.0\n\npragma solidity ^0.8.0;\npragma experimental ABIEncoderV2;\n\n\n/**\n * @title Bonding Curve\n * @dev Bonding curve contract based on Bacor formula\n * inspired by bancor protocol and simondlr\n * https://github.com/bancorprotocol/contracts\n * https://github.com/ConsenSys/curationmarkets/blob/master/CurationMarkets.sol\n */\n\nimport './SafeMath.sol';\nimport \"./Ownable.sol\";\nimport \"./ReentrancyGuard.sol\";\n\nimport \"./IBondingCurve.sol\";\nimport \"./BancorFormula.sol\";\n\nimport \"./EddyStreetToken.sol\";\n\ncontract EddyDistribution is Ownable, ReentrancyGuard, BancorFormula {\n\n  using SafeMath for uint256;\n\n  EddyStreetToken public mToken;\n  \n      /*\n        reserve ratio, represented in ppm, 1-1000000\n        1/3 corresponds to y= multiple * x^2\n        1/2 corresponds to y= multiple * x\n        2/3 corresponds to y= multiple * x^1/2\n    */\n    \n    uint32 public reserveRatio;\n    \n      constructor(address _tokenAddress) public {\n      \n      require(_tokenAddress != address(0));\n      // instantiate deployed Ocean token contract\n      mToken = EddyStreetToken(_tokenAddress);\n      // initial available supply of bonded token\n      supply = 100;\n      // inital price for bonded token\n      initPrice = 1;\n    }\n\n  struct Holder {\n    address   holder;   // holder address\n    uint256   ntoken;   // number of bonded token\n    uint256   target;    // the target sell price\n  }\n  // mapping address to associated holder struct\n  mapping (address => Holder) public mHolders;\n  // the holder array used to find highest target sell price\n  address[] public arrayHolders;\n\n  // latest sold price\n  uint256 public  curSoldPrice;\n\n  // the number of remaining bonded tokens\n  uint256 public  supply;\n  uint256 public  initPrice;\n\n  modifier validHolder() {\n    require(mHolders[msg.sender].holder != address(0));\n    _;\n  }\n\n  function buyTokens(uint256 _ntoken, uint256 _target) public returns (bool) {\n    // first check whether the holder exist, if not, create holder struct\n    if (mHolders[msg.sender].holder == address(0)){\n        mHolders[msg.sender] = Holder(msg.sender, 0, 0);\n        arrayHolders.push(msg.sender);\n    }\n\n    // if supply is available, buy bonded token upto available balance with fixed price\n    if(supply > 0) {\n      uint256 amount = (_ntoken > supply) ? supply : _ntoken;\n      // make payment\n      require(mToken.transferFrom(msg.sender, address(this), amount.mul(initPrice)));\n      // update balance\n      mHolders[msg.sender].ntoken = mHolders[msg.sender].ntoken.add(amount);\n      // update supply\n      supply = supply.sub(amount);\n      // update target price\n      mHolders[msg.sender].target = _target;\n    }\n\n    // if all bonded tokens are sold out, buy from another holders\n    // buy the tokens with target price from the nextSeller\n    // for time being, we limit the buy amount equals to balance of nextSeller\n    // we will improve this to buy more in the next available sellers in the future\n    if(supply == 0){\n      // find next seller\n      address seller = findNextHolder();\n      // calculate amount of tokens to buy\n      uint256 num =  (_ntoken > mHolders[seller].ntoken) ? mHolders[seller].ntoken : _ntoken;\n      // calculate cost\n      uint256 cost = num.mul(mHolders[seller].target);\n      // make payment\n      require(mToken.transferFrom(msg.sender, mHolders[seller].holder, cost));\n      // update seller balance\n      mHolders[seller].ntoken = mHolders[seller].ntoken.sub(num);\n      // update buyer balance\n      mHolders[msg.sender].ntoken = mHolders[msg.sender].ntoken.add(num);\n      // there is no change in total supply\n      mHolders[msg.sender].target = _target;\n    }\n    return true;\n  }\n\n  function sellTokens(uint256 amount) public validHolder returns (bool) {\n    // holder shall have enough bonded token to sell\n    require(mHolders[msg.sender].ntoken >= amount);\n    // calculate payout of reserved token\n    uint256 payout = amount.mul(initPrice);\n    // ensure the contract has enough reserved token to pay out\n    require(mToken.balanceOf(address(this)) >= payout);\n    // transfer reserved token to holder\n    require(mToken.transfer(msg.sender, payout));\n    // decrease the balance of bonded token for seller\n    mHolders[msg.sender].ntoken = mHolders[msg.sender].ntoken.sub(amount);\n    // update supply\n    supply = supply.add(amount);\n    return true;\n  }\n\n  function changeTargetPrice(uint256 _price) public validHolder returns (bool) {\n    // change his target sell price\n    mHolders[msg.sender].target = _price;\n    return true;\n  }\n\n  // query the next available sell price\n  function queryNextPrice() public view returns(uint256) {\n    //check remaining supply\n    if(supply > 0){\n      return initPrice;\n    } else if (supply == 0){\n      return mHolders[findNextHolder()].target;\n    }\n  }\n\n\n  function getTokenSupply() public view returns (uint256) {\n    return supply;\n  }\n\n  // query balance of bonded token\n  function getTokenBalance() public view validHolder returns (uint256) {\n    return mHolders[msg.sender].ntoken;\n  }\n\n  function findNextHolder() internal view returns(address) {\n    uint256 maximal = 0;\n    for(uint256 i; i < arrayHolders.length; i++){\n        // skip holders with zero token balance\n        if(mHolders[arrayHolders[i]].ntoken == 0){\n          continue;\n        }\n        // find the holder with highest target sell price\n        if(mHolders[arrayHolders[i]].target > mHolders[arrayHolders[maximal]].target){\n            maximal = i;\n        }\n    }\n\n    return mHolders[arrayHolders[maximal]].holder;\n  }\n\n}\n",
  "sourcePath": "/home/semiott/Apps/eth-apps/EddyNet/core/contracts/EddyDistribution.sol",
  "compiler": {
    "name": "solc",
    "version": "0.8.2+commit.661d1103.Emscripten.clang"
  },
  "schemaVersion": "3.3.4",
  "updatedAt": "2021-03-21T17:16:14.092Z",
  "devdoc": {
    "kind": "dev",
    "methods": {
      "calculatePurchaseReturn(uint256,uint256,uint32,uint256)": {
        "details": "given a continuous token supply, reserve token balance, reserve ratio, and a deposit amount (in the reserve token), calculates the return for a given conversion (in the continuous token) Formula: Return = _supply * ((1 + _depositAmount / _reserveBalance) ^ (_reserveRatio / MAX_RESERVE_RATIO) - 1)",
        "params": {
          "_depositAmount": "deposit amount, in reserve token",
          "_reserveBalance": "total reserve token balance",
          "_reserveRatio": "reserve ratio, represented in ppm, 1-1000000",
          "_supply": "continuous token total supply"
        },
        "returns": {
          "_0": "purchase return amount"
        }
      },
      "calculateSaleReturn(uint256,uint256,uint32,uint256)": {
        "details": "given a continuous token supply, reserve token balance, reserve ratio and a sell amount (in the continuous token), calculates the return for a given conversion (in the reserve token) Formula: Return = _reserveBalance * (1 - (1 - _sellAmount / _supply) ^ (1 / (_reserveRatio / MAX_RESERVE_RATIO)))",
        "params": {
          "_reserveBalance": "total reserve token balance",
          "_reserveRatio": "constant reserve ratio, represented in ppm, 1-1000000",
          "_sellAmount": "sell amount, in the continuous token itself",
          "_supply": "continuous token total supply"
        },
        "returns": {
          "_0": "sale return amount"
        }
      },
      "owner()": {
        "details": "Returns the address of the current owner."
      },
      "renounceOwnership()": {
        "details": "Leaves the contract without owner. It will not be possible to call `onlyOwner` functions anymore. Can only be called by the current owner. NOTE: Renouncing ownership will leave the contract without an owner, thereby removing any functionality that is only available to the owner."
      },
      "transferOwnership(address)": {
        "details": "Transfers ownership of the contract to a new account (`newOwner`). Can only be called by the current owner."
      }
    },
    "version": 1
  },
  "userdoc": {
    "kind": "user",
    "methods": {},
    "version": 1
  }
}