{
  "contractName": "EIP712External",
  "abi": [
    {
      "inputs": [
        {
          "internalType": "string",
          "name": "name",
          "type": "string"
        },
        {
          "internalType": "string",
          "name": "version",
          "type": "string"
        }
      ],
      "stateMutability": "nonpayable",
      "type": "constructor"
    },
    {
      "inputs": [],
      "name": "domainSeparator",
      "outputs": [
        {
          "internalType": "bytes32",
          "name": "",
          "type": "bytes32"
        }
      ],
      "stateMutability": "view",
      "type": "function"
    },
    {
      "inputs": [
        {
          "internalType": "bytes",
          "name": "signature",
          "type": "bytes"
        },
        {
          "internalType": "address",
          "name": "signer",
          "type": "address"
        },
        {
          "internalType": "address",
          "name": "mailTo",
          "type": "address"
        },
        {
          "internalType": "string",
          "name": "mailContents",
          "type": "string"
        }
      ],
      "name": "verify",
      "outputs": [],
      "stateMutability": "view",
      "type": "function"
    },
    {
      "inputs": [],
      "name": "getChainId",
      "outputs": [
        {
          "internalType": "uint256",
          "name": "",
          "type": "uint256"
        }
      ],
      "stateMutability": "view",
      "type": "function"
    }
  ],
  "bytecode": "0x6101206040523480156200001257600080fd5b5060405162000fd438038062000fd483398181016040528101906200003891906200016d565b818160008280519060200120905060008280519060200120905060007f8b73c3c69bb8fe3d512ecc4cf759cc79239f7b179b0ffacaa9a75d522b39400f90508260c081815250508160e081815250504660a08181525050620000a2818484620000bf60201b60201c565b6080818152505080610100818152505050505050505050620003c3565b60008383834630604051602001620000dc95949392919062000213565b6040516020818303038152906040528051906020012090509392505050565b6000620001126200010c8462000299565b62000270565b9050828152602081018484840111156200012b57600080fd5b6200013884828562000317565b509392505050565b600082601f8301126200015257600080fd5b815162000164848260208601620000fb565b91505092915050565b600080604083850312156200018157600080fd5b600083015167ffffffffffffffff8111156200019c57600080fd5b620001aa8582860162000140565b925050602083015167ffffffffffffffff811115620001c857600080fd5b620001d68582860162000140565b9150509250929050565b620001eb81620002cf565b82525050565b620001fc81620002e3565b82525050565b6200020d816200030d565b82525050565b600060a0820190506200022a6000830188620001f1565b620002396020830187620001f1565b620002486040830186620001f1565b62000257606083018562000202565b620002666080830184620001e0565b9695505050505050565b60006200027c6200028f565b90506200028a82826200034d565b919050565b6000604051905090565b600067ffffffffffffffff821115620002b757620002b662000383565b5b620002c282620003b2565b9050602081019050919050565b6000620002dc82620002ed565b9050919050565b6000819050919050565b600073ffffffffffffffffffffffffffffffffffffffff82169050919050565b6000819050919050565b60005b83811015620003375780820151818401526020810190506200031a565b8381111562000347576000848401525b50505050565b6200035882620003b2565b810181811067ffffffffffffffff821117156200037a576200037962000383565b5b80604052505050565b7f4e487b7100000000000000000000000000000000000000000000000000000000600052604160045260246000fd5b6000601f19601f8301169050919050565b60805160a05160c05160e05161010051610bcc62000408600039600061024c0152600061028e0152600061026d015260006101f9015260006102210152610bcc6000f3fe608060405234801561001057600080fd5b50600436106100415760003560e01c806308c6e079146100465780633408e47014610062578063f698da2514610080575b600080fd5b610060600480360381019061005b9190610595565b61009e565b005b61006a61014a565b60405161007791906108cb565b60405180910390f35b610088610152565b6040516100959190610761565b60405180910390f35b60006100fa7f847fc9da8ec3c72cae85ca691245eaeb0a4a1e74f77c3a919c43afda231d39ba8484805190602001206040516020016100df9392919061077c565b60405160208183030381529060405280519060200120610161565b90506000610108828761017b565b90508473ffffffffffffffffffffffffffffffffffffffff168173ffffffffffffffffffffffffffffffffffffffff161461014257600080fd5b505050505050565b600046905090565b600061015c6101f5565b905090565b600061017461016e6101f5565b836102b8565b9050919050565b600060418251146101c1576040517f08c379a00000000000000000000000000000000000000000000000000000000081526004016101b89061086b565b60405180910390fd5b60008060006020850151925060408501519150606085015160001a90506101ea868285856102eb565b935050505092915050565b60007f0000000000000000000000000000000000000000000000000000000000000000461415610247577f000000000000000000000000000000000000000000000000000000000000000090506102b5565b6102b27f00000000000000000000000000000000000000000000000000000000000000007f00000000000000000000000000000000000000000000000000000000000000007f0000000000000000000000000000000000000000000000000000000000000000610476565b90505b90565b600082826040516020016102cd92919061072a565b60405160208183030381529060405280519060200120905092915050565b60007f7fffffffffffffffffffffffffffffff5d576e7357a4501ddfe92f46681b20a08260001c1115610353576040517f08c379a000000000000000000000000000000000000000000000000000000000815260040161034a9061088b565b60405180910390fd5b601b8460ff1614806103685750601c8460ff16145b6103a7576040517f08c379a000000000000000000000000000000000000000000000000000000000815260040161039e906108ab565b60405180910390fd5b6000600186868686604051600081526020016040526040516103cc9493929190610806565b6020604051602081039080840390855afa1580156103ee573d6000803e3d6000fd5b505050602060405103519050600073ffffffffffffffffffffffffffffffffffffffff168173ffffffffffffffffffffffffffffffffffffffff16141561046a576040517f08c379a00000000000000000000000000000000000000000000000000000000081526004016104619061084b565b60405180910390fd5b80915050949350505050565b600083838346306040516020016104919594939291906107b3565b6040516020818303038152906040528051906020012090509392505050565b60006104c36104be8461090b565b6108e6565b9050828152602081018484840111156104db57600080fd5b6104e68482856109dc565b509392505050565b60006105016104fc8461093c565b6108e6565b90508281526020810184848401111561051957600080fd5b6105248482856109dc565b509392505050565b60008135905061053b81610b7f565b92915050565b600082601f83011261055257600080fd5b81356105628482602086016104b0565b91505092915050565b600082601f83011261057c57600080fd5b813561058c8482602086016104ee565b91505092915050565b600080600080608085870312156105ab57600080fd5b600085013567ffffffffffffffff8111156105c557600080fd5b6105d187828801610541565b94505060206105e28782880161052c565b93505060406105f38782880161052c565b925050606085013567ffffffffffffffff81111561061057600080fd5b61061c8782880161056b565b91505092959194509250565b61063181610989565b82525050565b6106408161099b565b82525050565b6106576106528261099b565b610a1c565b82525050565b600061066a60188361096d565b915061067582610a66565b602082019050919050565b600061068d601f8361096d565b915061069882610a8f565b602082019050919050565b60006106b060028361097e565b91506106bb82610ab8565b600282019050919050565b60006106d360228361096d565b91506106de82610ae1565b604082019050919050565b60006106f660228361096d565b915061070182610b30565b604082019050919050565b610715816109c5565b82525050565b610724816109cf565b82525050565b6000610735826106a3565b91506107418285610646565b6020820191506107518284610646565b6020820191508190509392505050565b60006020820190506107766000830184610637565b92915050565b60006060820190506107916000830186610637565b61079e6020830185610628565b6107ab6040830184610637565b949350505050565b600060a0820190506107c86000830188610637565b6107d56020830187610637565b6107e26040830186610637565b6107ef606083018561070c565b6107fc6080830184610628565b9695505050505050565b600060808201905061081b6000830187610637565b610828602083018661071b565b6108356040830185610637565b6108426060830184610637565b95945050505050565b600060208201905081810360008301526108648161065d565b9050919050565b6000602082019050818103600083015261088481610680565b9050919050565b600060208201905081810360008301526108a4816106c6565b9050919050565b600060208201905081810360008301526108c4816106e9565b9050919050565b60006020820190506108e0600083018461070c565b92915050565b60006108f0610901565b90506108fc82826109eb565b919050565b6000604051905090565b600067ffffffffffffffff82111561092657610925610a26565b5b61092f82610a55565b9050602081019050919050565b600067ffffffffffffffff82111561095757610956610a26565b5b61096082610a55565b9050602081019050919050565b600082825260208201905092915050565b600081905092915050565b6000610994826109a5565b9050919050565b6000819050919050565b600073ffffffffffffffffffffffffffffffffffffffff82169050919050565b6000819050919050565b600060ff82169050919050565b82818337600083830152505050565b6109f482610a55565b810181811067ffffffffffffffff82111715610a1357610a12610a26565b5b80604052505050565b6000819050919050565b7f4e487b7100000000000000000000000000000000000000000000000000000000600052604160045260246000fd5b6000601f19601f8301169050919050565b7f45434453413a20696e76616c6964207369676e61747572650000000000000000600082015250565b7f45434453413a20696e76616c6964207369676e6174757265206c656e67746800600082015250565b7f1901000000000000000000000000000000000000000000000000000000000000600082015250565b7f45434453413a20696e76616c6964207369676e6174757265202773272076616c60008201527f7565000000000000000000000000000000000000000000000000000000000000602082015250565b7f45434453413a20696e76616c6964207369676e6174757265202776272076616c60008201527f7565000000000000000000000000000000000000000000000000000000000000602082015250565b610b8881610989565b8114610b9357600080fd5b5056fea264697066735822122045aecd9182a230fc9697710f1863af4f1b8878b08b4285bbfa24504a517e97c164736f6c63430008020033",
  "immutableReferences": {
    "33211": [
      {
        "length": 32,
        "start": 545
      }
    ],
    "33213": [
      {
        "length": 32,
        "start": 505
      }
    ],
    "33215": [
      {
        "length": 32,
        "start": 621
      }
    ],
    "33217": [
      {
        "length": 32,
        "start": 654
      }
    ],
    "33219": [
      {
        "length": 32,
        "start": 588
      }
    ]
  },
  "source": "// SPDX-License-Identifier: MIT\n\npragma solidity ^0.8.0;\n\nimport \"../utils/cryptography/draft-EIP712.sol\";\nimport \"../utils/cryptography/ECDSA.sol\";\n\ncontract EIP712External is EIP712 {\n    constructor(string memory name, string memory version) EIP712(name, version) {}\n\n    function domainSeparator() external view returns (bytes32) {\n        return _domainSeparatorV4();\n    }\n\n    function verify(bytes memory signature, address signer, address mailTo, string memory mailContents) external view {\n        bytes32 digest = _hashTypedDataV4(keccak256(abi.encode(\n            keccak256(\"Mail(address to,string contents)\"),\n            mailTo,\n            keccak256(bytes(mailContents))\n        )));\n        address recoveredSigner = ECDSA.recover(digest, signature);\n        require(recoveredSigner == signer);\n    }\n\n    function getChainId() external view returns (uint256) {\n        return block.chainid;\n    }\n}\n",
  "sourcePath": "/home/semiott/Apps/eth-apps/EddyNet/core/contracts/external/contracts/mocks/EIP712External.sol",
  "compiler": {
    "name": "solc",
    "version": "0.8.2+commit.661d1103.Emscripten.clang"
  },
  "schemaVersion": "3.3.4",
  "updatedAt": "2021-03-21T17:16:14.391Z",
  "devdoc": {
    "kind": "dev",
    "methods": {},
    "version": 1
  },
  "userdoc": {
    "kind": "user",
    "methods": {},
    "version": 1
  }
}