{
  "contractName": "ERC1155BurnableMock",
  "abi": [
    {
      "inputs": [
        {
          "internalType": "string",
          "name": "uri",
          "type": "string"
        }
      ],
      "stateMutability": "nonpayable",
      "type": "constructor"
    },
    {
      "anonymous": false,
      "inputs": [
        {
          "indexed": true,
          "internalType": "address",
          "name": "account",
          "type": "address"
        },
        {
          "indexed": true,
          "internalType": "address",
          "name": "operator",
          "type": "address"
        },
        {
          "indexed": false,
          "internalType": "bool",
          "name": "approved",
          "type": "bool"
        }
      ],
      "name": "ApprovalForAll",
      "type": "event"
    },
    {
      "anonymous": false,
      "inputs": [
        {
          "indexed": true,
          "internalType": "address",
          "name": "operator",
          "type": "address"
        },
        {
          "indexed": true,
          "internalType": "address",
          "name": "from",
          "type": "address"
        },
        {
          "indexed": true,
          "internalType": "address",
          "name": "to",
          "type": "address"
        },
        {
          "indexed": false,
          "internalType": "uint256[]",
          "name": "ids",
          "type": "uint256[]"
        },
        {
          "indexed": false,
          "internalType": "uint256[]",
          "name": "values",
          "type": "uint256[]"
        }
      ],
      "name": "TransferBatch",
      "type": "event"
    },
    {
      "anonymous": false,
      "inputs": [
        {
          "indexed": true,
          "internalType": "address",
          "name": "operator",
          "type": "address"
        },
        {
          "indexed": true,
          "internalType": "address",
          "name": "from",
          "type": "address"
        },
        {
          "indexed": true,
          "internalType": "address",
          "name": "to",
          "type": "address"
        },
        {
          "indexed": false,
          "internalType": "uint256",
          "name": "id",
          "type": "uint256"
        },
        {
          "indexed": false,
          "internalType": "uint256",
          "name": "value",
          "type": "uint256"
        }
      ],
      "name": "TransferSingle",
      "type": "event"
    },
    {
      "anonymous": false,
      "inputs": [
        {
          "indexed": false,
          "internalType": "string",
          "name": "value",
          "type": "string"
        },
        {
          "indexed": true,
          "internalType": "uint256",
          "name": "id",
          "type": "uint256"
        }
      ],
      "name": "URI",
      "type": "event"
    },
    {
      "inputs": [
        {
          "internalType": "address",
          "name": "account",
          "type": "address"
        },
        {
          "internalType": "uint256",
          "name": "id",
          "type": "uint256"
        }
      ],
      "name": "balanceOf",
      "outputs": [
        {
          "internalType": "uint256",
          "name": "",
          "type": "uint256"
        }
      ],
      "stateMutability": "view",
      "type": "function"
    },
    {
      "inputs": [
        {
          "internalType": "address[]",
          "name": "accounts",
          "type": "address[]"
        },
        {
          "internalType": "uint256[]",
          "name": "ids",
          "type": "uint256[]"
        }
      ],
      "name": "balanceOfBatch",
      "outputs": [
        {
          "internalType": "uint256[]",
          "name": "",
          "type": "uint256[]"
        }
      ],
      "stateMutability": "view",
      "type": "function"
    },
    {
      "inputs": [
        {
          "internalType": "address",
          "name": "account",
          "type": "address"
        },
        {
          "internalType": "uint256",
          "name": "id",
          "type": "uint256"
        },
        {
          "internalType": "uint256",
          "name": "value",
          "type": "uint256"
        }
      ],
      "name": "burn",
      "outputs": [],
      "stateMutability": "nonpayable",
      "type": "function"
    },
    {
      "inputs": [
        {
          "internalType": "address",
          "name": "account",
          "type": "address"
        },
        {
          "internalType": "uint256[]",
          "name": "ids",
          "type": "uint256[]"
        },
        {
          "internalType": "uint256[]",
          "name": "values",
          "type": "uint256[]"
        }
      ],
      "name": "burnBatch",
      "outputs": [],
      "stateMutability": "nonpayable",
      "type": "function"
    },
    {
      "inputs": [
        {
          "internalType": "address",
          "name": "account",
          "type": "address"
        },
        {
          "internalType": "address",
          "name": "operator",
          "type": "address"
        }
      ],
      "name": "isApprovedForAll",
      "outputs": [
        {
          "internalType": "bool",
          "name": "",
          "type": "bool"
        }
      ],
      "stateMutability": "view",
      "type": "function"
    },
    {
      "inputs": [
        {
          "internalType": "address",
          "name": "from",
          "type": "address"
        },
        {
          "internalType": "address",
          "name": "to",
          "type": "address"
        },
        {
          "internalType": "uint256[]",
          "name": "ids",
          "type": "uint256[]"
        },
        {
          "internalType": "uint256[]",
          "name": "amounts",
          "type": "uint256[]"
        },
        {
          "internalType": "bytes",
          "name": "data",
          "type": "bytes"
        }
      ],
      "name": "safeBatchTransferFrom",
      "outputs": [],
      "stateMutability": "nonpayable",
      "type": "function"
    },
    {
      "inputs": [
        {
          "internalType": "address",
          "name": "from",
          "type": "address"
        },
        {
          "internalType": "address",
          "name": "to",
          "type": "address"
        },
        {
          "internalType": "uint256",
          "name": "id",
          "type": "uint256"
        },
        {
          "internalType": "uint256",
          "name": "amount",
          "type": "uint256"
        },
        {
          "internalType": "bytes",
          "name": "data",
          "type": "bytes"
        }
      ],
      "name": "safeTransferFrom",
      "outputs": [],
      "stateMutability": "nonpayable",
      "type": "function"
    },
    {
      "inputs": [
        {
          "internalType": "address",
          "name": "operator",
          "type": "address"
        },
        {
          "internalType": "bool",
          "name": "approved",
          "type": "bool"
        }
      ],
      "name": "setApprovalForAll",
      "outputs": [],
      "stateMutability": "nonpayable",
      "type": "function"
    },
    {
      "inputs": [
        {
          "internalType": "bytes4",
          "name": "interfaceId",
          "type": "bytes4"
        }
      ],
      "name": "supportsInterface",
      "outputs": [
        {
          "internalType": "bool",
          "name": "",
          "type": "bool"
        }
      ],
      "stateMutability": "view",
      "type": "function"
    },
    {
      "inputs": [
        {
          "internalType": "uint256",
          "name": "",
          "type": "uint256"
        }
      ],
      "name": "uri",
      "outputs": [
        {
          "internalType": "string",
          "name": "",
          "type": "string"
        }
      ],
      "stateMutability": "view",
      "type": "function"
    },
    {
      "inputs": [
        {
          "internalType": "address",
          "name": "to",
          "type": "address"
        },
        {
          "internalType": "uint256",
          "name": "id",
          "type": "uint256"
        },
        {
          "internalType": "uint256",
          "name": "value",
          "type": "uint256"
        },
        {
          "internalType": "bytes",
          "name": "data",
          "type": "bytes"
        }
      ],
      "name": "mint",
      "outputs": [],
      "stateMutability": "nonpayable",
      "type": "function"
    }
  ],
  "bytecode": "0x60806040523480156200001157600080fd5b50604051620035343803806200353483398181016040528101906200003791906200018f565b8062000049816200005160201b60201c565b505062000344565b8060029080519060200190620000699291906200006d565b5050565b8280546200007b9062000269565b90600052602060002090601f0160209004810192826200009f5760008555620000eb565b82601f10620000ba57805160ff1916838001178555620000eb565b82800160010185558215620000eb579182015b82811115620000ea578251825591602001919060010190620000cd565b5b509050620000fa9190620000fe565b5090565b5b8082111562000119576000816000905550600101620000ff565b5090565b6000620001346200012e84620001fd565b620001d4565b9050828152602081018484840111156200014d57600080fd5b6200015a84828562000233565b509392505050565b600082601f8301126200017457600080fd5b8151620001868482602086016200011d565b91505092915050565b600060208284031215620001a257600080fd5b600082015167ffffffffffffffff811115620001bd57600080fd5b620001cb8482850162000162565b91505092915050565b6000620001e0620001f3565b9050620001ee82826200029f565b919050565b6000604051905090565b600067ffffffffffffffff8211156200021b576200021a62000304565b5b620002268262000333565b9050602081019050919050565b60005b838110156200025357808201518184015260208101905062000236565b8381111562000263576000848401525b50505050565b600060028204905060018216806200028257607f821691505b60208210811415620002995762000298620002d5565b5b50919050565b620002aa8262000333565b810181811067ffffffffffffffff82111715620002cc57620002cb62000304565b5b80604052505050565b7f4e487b7100000000000000000000000000000000000000000000000000000000600052602260045260246000fd5b7f4e487b7100000000000000000000000000000000000000000000000000000000600052604160045260246000fd5b6000601f19601f8301169050919050565b6131e080620003546000396000f3fe608060405234801561001057600080fd5b50600436106100a85760003560e01c80636b20c454116100715780636b20c45414610189578063731133e9146101a5578063a22cb465146101c1578063e985e9c5146101dd578063f242432a1461020d578063f5298aca14610229576100a8565b8062fdd58e146100ad57806301ffc9a7146100dd5780630e89341c1461010d5780632eb2c2d61461013d5780634e1273f414610159575b600080fd5b6100c760048036038101906100c291906120c9565b610245565b6040516100d49190612899565b60405180910390f35b6100f760048036038101906100f2919061223b565b61030e565b60405161010491906126bc565b60405180910390f35b6101276004803603810190610122919061228d565b6103f0565b60405161013491906126d7565b60405180910390f35b61015760048036038101906101529190611ec0565b610484565b005b610173600480360381019061016e91906121cf565b61087a565b6040516101809190612663565b60405180910390f35b6101a3600480360381019061019e919061200e565b610a2b565b005b6101bf60048036038101906101ba9190612154565b610ac8565b005b6101db60048036038101906101d6919061208d565b610ada565b005b6101f760048036038101906101f29190611e84565b610c5b565b60405161020491906126bc565b60405180910390f35b61022760048036038101906102229190611f7f565b610cef565b005b610243600480360381019061023e9190612105565b611007565b005b60008073ffffffffffffffffffffffffffffffffffffffff168373ffffffffffffffffffffffffffffffffffffffff1614156102b6576040517f08c379a00000000000000000000000000000000000000000000000000000000081526004016102ad90612739565b60405180910390fd5b60008083815260200190815260200160002060008473ffffffffffffffffffffffffffffffffffffffff1673ffffffffffffffffffffffffffffffffffffffff16815260200190815260200160002054905092915050565b60007fd9b67a26000000000000000000000000000000000000000000000000000000007bffffffffffffffffffffffffffffffffffffffffffffffffffffffff1916827bffffffffffffffffffffffffffffffffffffffffffffffffffffffff191614806103d957507f0e89341c000000000000000000000000000000000000000000000000000000007bffffffffffffffffffffffffffffffffffffffffffffffffffffffff1916827bffffffffffffffffffffffffffffffffffffffffffffffffffffffff1916145b806103e957506103e8826110a4565b5b9050919050565b6060600280546103ff90612b3c565b80601f016020809104026020016040519081016040528092919081815260200182805461042b90612b3c565b80156104785780601f1061044d57610100808354040283529160200191610478565b820191906000526020600020905b81548152906001019060200180831161045b57829003601f168201915b50505050509050919050565b81518351146104c8576040517f08c379a00000000000000000000000000000000000000000000000000000000081526004016104bf90612859565b60405180910390fd5b600073ffffffffffffffffffffffffffffffffffffffff168473ffffffffffffffffffffffffffffffffffffffff161415610538576040517f08c379a000000000000000000000000000000000000000000000000000000000815260040161052f90612799565b60405180910390fd5b61054061110e565b73ffffffffffffffffffffffffffffffffffffffff168573ffffffffffffffffffffffffffffffffffffffff16148061058657506105858561058061110e565b610c5b565b5b6105c5576040517f08c379a00000000000000000000000000000000000000000000000000000000081526004016105bc906127b9565b60405180910390fd5b60006105cf61110e565b90506105df818787878787611116565b60005b84518110156107e5576000858281518110610626577f4e487b7100000000000000000000000000000000000000000000000000000000600052603260045260246000fd5b60200260200101519050600085838151811061066b577f4e487b7100000000000000000000000000000000000000000000000000000000600052603260045260246000fd5b60200260200101519050600080600084815260200190815260200160002060008b73ffffffffffffffffffffffffffffffffffffffff1673ffffffffffffffffffffffffffffffffffffffff1681526020019081526020016000205490508181101561070c576040517f08c379a0000000000000000000000000000000000000000000000000000000008152600401610703906127f9565b60405180910390fd5b81816107189190612a52565b60008085815260200190815260200160002060008c73ffffffffffffffffffffffffffffffffffffffff1673ffffffffffffffffffffffffffffffffffffffff168152602001908152602001600020819055508160008085815260200190815260200160002060008b73ffffffffffffffffffffffffffffffffffffffff1673ffffffffffffffffffffffffffffffffffffffff16815260200190815260200160002060008282546107ca91906129fc565b92505081905550505050806107de90612b9f565b90506105e2565b508473ffffffffffffffffffffffffffffffffffffffff168673ffffffffffffffffffffffffffffffffffffffff168273ffffffffffffffffffffffffffffffffffffffff167f4a39dc06d4c0dbc64b70af90fd698a233a518aa5d07e595d983b8c0526c8f7fb878760405161085c929190612685565b60405180910390a461087281878787878761111e565b505050505050565b606081518351146108c0576040517f08c379a00000000000000000000000000000000000000000000000000000000081526004016108b790612839565b60405180910390fd5b6000835167ffffffffffffffff811115610903577f4e487b7100000000000000000000000000000000000000000000000000000000600052604160045260246000fd5b6040519080825280602002602001820160405280156109315781602001602082028036833780820191505090505b50905060005b8451811015610a20576109ca85828151811061097c577f4e487b7100000000000000000000000000000000000000000000000000000000600052603260045260246000fd5b60200260200101518583815181106109bd577f4e487b7100000000000000000000000000000000000000000000000000000000600052603260045260246000fd5b6020026020010151610245565b828281518110610a03577f4e487b7100000000000000000000000000000000000000000000000000000000600052603260045260246000fd5b60200260200101818152505080610a1990612b9f565b9050610937565b508091505092915050565b610a3361110e565b73ffffffffffffffffffffffffffffffffffffffff168373ffffffffffffffffffffffffffffffffffffffff161480610a795750610a7883610a7361110e565b610c5b565b5b610ab8576040517f08c379a0000000000000000000000000000000000000000000000000000000008152600401610aaf90612779565b60405180910390fd5b610ac3838383611305565b505050565b610ad48484848461160b565b50505050565b8173ffffffffffffffffffffffffffffffffffffffff16610af961110e565b73ffffffffffffffffffffffffffffffffffffffff161415610b50576040517f08c379a0000000000000000000000000000000000000000000000000000000008152600401610b4790612819565b60405180910390fd5b8060016000610b5d61110e565b73ffffffffffffffffffffffffffffffffffffffff1673ffffffffffffffffffffffffffffffffffffffff16815260200190815260200160002060008473ffffffffffffffffffffffffffffffffffffffff1673ffffffffffffffffffffffffffffffffffffffff16815260200190815260200160002060006101000a81548160ff0219169083151502179055508173ffffffffffffffffffffffffffffffffffffffff16610c0a61110e565b73ffffffffffffffffffffffffffffffffffffffff167f17307eab39ab6107e8899845ad3d59bd9653f200f220920489ca2b5937696c3183604051610c4f91906126bc565b60405180910390a35050565b6000600160008473ffffffffffffffffffffffffffffffffffffffff1673ffffffffffffffffffffffffffffffffffffffff16815260200190815260200160002060008373ffffffffffffffffffffffffffffffffffffffff1673ffffffffffffffffffffffffffffffffffffffff16815260200190815260200160002060009054906101000a900460ff16905092915050565b600073ffffffffffffffffffffffffffffffffffffffff168473ffffffffffffffffffffffffffffffffffffffff161415610d5f576040517f08c379a0000000000000000000000000000000000000000000000000000000008152600401610d5690612799565b60405180910390fd5b610d6761110e565b73ffffffffffffffffffffffffffffffffffffffff168573ffffffffffffffffffffffffffffffffffffffff161480610dad5750610dac85610da761110e565b610c5b565b5b610dec576040517f08c379a0000000000000000000000000000000000000000000000000000000008152600401610de390612779565b60405180910390fd5b6000610df661110e565b9050610e16818787610e07886117a1565b610e10886117a1565b87611116565b600080600086815260200190815260200160002060008873ffffffffffffffffffffffffffffffffffffffff1673ffffffffffffffffffffffffffffffffffffffff16815260200190815260200160002054905083811015610ead576040517f08c379a0000000000000000000000000000000000000000000000000000000008152600401610ea4906127f9565b60405180910390fd5b8381610eb99190612a52565b60008087815260200190815260200160002060008973ffffffffffffffffffffffffffffffffffffffff1673ffffffffffffffffffffffffffffffffffffffff168152602001908152602001600020819055508360008087815260200190815260200160002060008873ffffffffffffffffffffffffffffffffffffffff1673ffffffffffffffffffffffffffffffffffffffff1681526020019081526020016000206000828254610f6b91906129fc565b925050819055508573ffffffffffffffffffffffffffffffffffffffff168773ffffffffffffffffffffffffffffffffffffffff168373ffffffffffffffffffffffffffffffffffffffff167fc3d58168c5ae7397731d063d5bbf3d657854427343f4c083240f7aacaa2d0f628888604051610fe89291906128b4565b60405180910390a4610ffe828888888888611867565b50505050505050565b61100f61110e565b73ffffffffffffffffffffffffffffffffffffffff168373ffffffffffffffffffffffffffffffffffffffff16148061105557506110548361104f61110e565b610c5b565b5b611094576040517f08c379a000000000000000000000000000000000000000000000000000000000815260040161108b90612779565b60405180910390fd5b61109f838383611a4e565b505050565b60007f01ffc9a7000000000000000000000000000000000000000000000000000000007bffffffffffffffffffffffffffffffffffffffffffffffffffffffff1916827bffffffffffffffffffffffffffffffffffffffffffffffffffffffff1916149050919050565b600033905090565b505050505050565b61113d8473ffffffffffffffffffffffffffffffffffffffff16611c74565b156112fd578373ffffffffffffffffffffffffffffffffffffffff1663bc197c8187878686866040518663ffffffff1660e01b81526004016111839594939291906125a1565b602060405180830381600087803b15801561119d57600080fd5b505af19250505080156111ce57506040513d601f19601f820116820180604052508101906111cb9190612264565b60015b611274576111da612c75565b806308c379a0141561123757506111ef6130b8565b806111fa5750611239565b806040517f08c379a000000000000000000000000000000000000000000000000000000000815260040161122e91906126d7565b60405180910390fd5b505b6040517f08c379a000000000000000000000000000000000000000000000000000000000815260040161126b906126f9565b60405180910390fd5b63bc197c8160e01b7bffffffffffffffffffffffffffffffffffffffffffffffffffffffff1916817bffffffffffffffffffffffffffffffffffffffffffffffffffffffff1916146112fb576040517f08c379a00000000000000000000000000000000000000000000000000000000081526004016112f290612719565b60405180910390fd5b505b505050505050565b600073ffffffffffffffffffffffffffffffffffffffff168373ffffffffffffffffffffffffffffffffffffffff161415611375576040517f08c379a000000000000000000000000000000000000000000000000000000000815260040161136c906127d9565b60405180910390fd5b80518251146113b9576040517f08c379a00000000000000000000000000000000000000000000000000000000081526004016113b090612859565b60405180910390fd5b60006113c361110e565b90506113e381856000868660405180602001604052806000815250611116565b60005b835181101561158557600084828151811061142a577f4e487b7100000000000000000000000000000000000000000000000000000000600052603260045260246000fd5b60200260200101519050600084838151811061146f577f4e487b7100000000000000000000000000000000000000000000000000000000600052603260045260246000fd5b60200260200101519050600080600084815260200190815260200160002060008973ffffffffffffffffffffffffffffffffffffffff1673ffffffffffffffffffffffffffffffffffffffff16815260200190815260200160002054905081811015611510576040517f08c379a000000000000000000000000000000000000000000000000000000000815260040161150790612759565b60405180910390fd5b818161151c9190612a52565b60008085815260200190815260200160002060008a73ffffffffffffffffffffffffffffffffffffffff1673ffffffffffffffffffffffffffffffffffffffff16815260200190815260200160002081905550505050808061157d90612b9f565b9150506113e6565b50600073ffffffffffffffffffffffffffffffffffffffff168473ffffffffffffffffffffffffffffffffffffffff168273ffffffffffffffffffffffffffffffffffffffff167f4a39dc06d4c0dbc64b70af90fd698a233a518aa5d07e595d983b8c0526c8f7fb86866040516115fd929190612685565b60405180910390a450505050565b600073ffffffffffffffffffffffffffffffffffffffff168473ffffffffffffffffffffffffffffffffffffffff16141561167b576040517f08c379a000000000000000000000000000000000000000000000000000000000815260040161167290612879565b60405180910390fd5b600061168561110e565b90506116a681600087611697886117a1565b6116a0886117a1565b87611116565b8260008086815260200190815260200160002060008773ffffffffffffffffffffffffffffffffffffffff1673ffffffffffffffffffffffffffffffffffffffff168152602001908152602001600020600082825461170591906129fc565b925050819055508473ffffffffffffffffffffffffffffffffffffffff16600073ffffffffffffffffffffffffffffffffffffffff168273ffffffffffffffffffffffffffffffffffffffff167fc3d58168c5ae7397731d063d5bbf3d657854427343f4c083240f7aacaa2d0f6287876040516117839291906128b4565b60405180910390a461179a81600087878787611867565b5050505050565b60606000600167ffffffffffffffff8111156117e6577f4e487b7100000000000000000000000000000000000000000000000000000000600052604160045260246000fd5b6040519080825280602002602001820160405280156118145781602001602082028036833780820191505090505b5090508281600081518110611852577f4e487b7100000000000000000000000000000000000000000000000000000000600052603260045260246000fd5b60200260200101818152505080915050919050565b6118868473ffffffffffffffffffffffffffffffffffffffff16611c74565b15611a46578373ffffffffffffffffffffffffffffffffffffffff1663f23a6e6187878686866040518663ffffffff1660e01b81526004016118cc959493929190612609565b602060405180830381600087803b1580156118e657600080fd5b505af192505050801561191757506040513d601f19601f820116820180604052508101906119149190612264565b60015b6119bd57611923612c75565b806308c379a0141561198057506119386130b8565b806119435750611982565b806040517f08c379a000000000000000000000000000000000000000000000000000000000815260040161197791906126d7565b60405180910390fd5b505b6040517f08c379a00000000000000000000000000000000000000000000000000000000081526004016119b4906126f9565b60405180910390fd5b63f23a6e6160e01b7bffffffffffffffffffffffffffffffffffffffffffffffffffffffff1916817bffffffffffffffffffffffffffffffffffffffffffffffffffffffff191614611a44576040517f08c379a0000000000000000000000000000000000000000000000000000000008152600401611a3b90612719565b60405180910390fd5b505b505050505050565b600073ffffffffffffffffffffffffffffffffffffffff168373ffffffffffffffffffffffffffffffffffffffff161415611abe576040517f08c379a0000000000000000000000000000000000000000000000000000000008152600401611ab5906127d9565b60405180910390fd5b6000611ac861110e565b9050611af881856000611ada876117a1565b611ae3876117a1565b60405180602001604052806000815250611116565b600080600085815260200190815260200160002060008673ffffffffffffffffffffffffffffffffffffffff1673ffffffffffffffffffffffffffffffffffffffff16815260200190815260200160002054905082811015611b8f576040517f08c379a0000000000000000000000000000000000000000000000000000000008152600401611b8690612759565b60405180910390fd5b8281611b9b9190612a52565b60008086815260200190815260200160002060008773ffffffffffffffffffffffffffffffffffffffff1673ffffffffffffffffffffffffffffffffffffffff16815260200190815260200160002081905550600073ffffffffffffffffffffffffffffffffffffffff168573ffffffffffffffffffffffffffffffffffffffff168373ffffffffffffffffffffffffffffffffffffffff167fc3d58168c5ae7397731d063d5bbf3d657854427343f4c083240f7aacaa2d0f628787604051611c659291906128b4565b60405180910390a45050505050565b600080823b905060008111915050919050565b6000611c9a611c9584612902565b6128dd565b90508083825260208201905082856020860282011115611cb957600080fd5b60005b85811015611ce95781611ccf8882611d9d565b845260208401935060208301925050600181019050611cbc565b5050509392505050565b6000611d06611d018461292e565b6128dd565b90508083825260208201905082856020860282011115611d2557600080fd5b60005b85811015611d555781611d3b8882611e6f565b845260208401935060208301925050600181019050611d28565b5050509392505050565b6000611d72611d6d8461295a565b6128dd565b905082815260208101848484011115611d8a57600080fd5b611d95848285612afa565b509392505050565b600081359050611dac8161314e565b92915050565b600082601f830112611dc357600080fd5b8135611dd3848260208601611c87565b91505092915050565b600082601f830112611ded57600080fd5b8135611dfd848260208601611cf3565b91505092915050565b600081359050611e1581613165565b92915050565b600081359050611e2a8161317c565b92915050565b600081519050611e3f8161317c565b92915050565b600082601f830112611e5657600080fd5b8135611e66848260208601611d5f565b91505092915050565b600081359050611e7e81613193565b92915050565b60008060408385031215611e9757600080fd5b6000611ea585828601611d9d565b9250506020611eb685828601611d9d565b9150509250929050565b600080600080600060a08688031215611ed857600080fd5b6000611ee688828901611d9d565b9550506020611ef788828901611d9d565b945050604086013567ffffffffffffffff811115611f1457600080fd5b611f2088828901611ddc565b935050606086013567ffffffffffffffff811115611f3d57600080fd5b611f4988828901611ddc565b925050608086013567ffffffffffffffff811115611f6657600080fd5b611f7288828901611e45565b9150509295509295909350565b600080600080600060a08688031215611f9757600080fd5b6000611fa588828901611d9d565b9550506020611fb688828901611d9d565b9450506040611fc788828901611e6f565b9350506060611fd888828901611e6f565b925050608086013567ffffffffffffffff811115611ff557600080fd5b61200188828901611e45565b9150509295509295909350565b60008060006060848603121561202357600080fd5b600061203186828701611d9d565b935050602084013567ffffffffffffffff81111561204e57600080fd5b61205a86828701611ddc565b925050604084013567ffffffffffffffff81111561207757600080fd5b61208386828701611ddc565b9150509250925092565b600080604083850312156120a057600080fd5b60006120ae85828601611d9d565b92505060206120bf85828601611e06565b9150509250929050565b600080604083850312156120dc57600080fd5b60006120ea85828601611d9d565b92505060206120fb85828601611e6f565b9150509250929050565b60008060006060848603121561211a57600080fd5b600061212886828701611d9d565b935050602061213986828701611e6f565b925050604061214a86828701611e6f565b9150509250925092565b6000806000806080858703121561216a57600080fd5b600061217887828801611d9d565b945050602061218987828801611e6f565b935050604061219a87828801611e6f565b925050606085013567ffffffffffffffff8111156121b757600080fd5b6121c387828801611e45565b91505092959194509250565b600080604083850312156121e257600080fd5b600083013567ffffffffffffffff8111156121fc57600080fd5b61220885828601611db2565b925050602083013567ffffffffffffffff81111561222557600080fd5b61223185828601611ddc565b9150509250929050565b60006020828403121561224d57600080fd5b600061225b84828501611e1b565b91505092915050565b60006020828403121561227657600080fd5b600061228484828501611e30565b91505092915050565b60006020828403121561229f57600080fd5b60006122ad84828501611e6f565b91505092915050565b60006122c28383612583565b60208301905092915050565b6122d781612a86565b82525050565b60006122e88261299b565b6122f281856129c9565b93506122fd8361298b565b8060005b8381101561232e57815161231588826122b6565b9750612320836129bc565b925050600181019050612301565b5085935050505092915050565b61234481612a98565b82525050565b6000612355826129a6565b61235f81856129da565b935061236f818560208601612b09565b61237881612c97565b840191505092915050565b600061238e826129b1565b61239881856129eb565b93506123a8818560208601612b09565b6123b181612c97565b840191505092915050565b60006123c96034836129eb565b91506123d482612cb5565b604082019050919050565b60006123ec6028836129eb565b91506123f782612d04565b604082019050919050565b600061240f602b836129eb565b915061241a82612d53565b604082019050919050565b60006124326024836129eb565b915061243d82612da2565b604082019050919050565b60006124556029836129eb565b915061246082612df1565b604082019050919050565b60006124786025836129eb565b915061248382612e40565b604082019050919050565b600061249b6032836129eb565b91506124a682612e8f565b604082019050919050565b60006124be6023836129eb565b91506124c982612ede565b604082019050919050565b60006124e1602a836129eb565b91506124ec82612f2d565b604082019050919050565b60006125046029836129eb565b915061250f82612f7c565b604082019050919050565b60006125276029836129eb565b915061253282612fcb565b604082019050919050565b600061254a6028836129eb565b91506125558261301a565b604082019050919050565b600061256d6021836129eb565b915061257882613069565b604082019050919050565b61258c81612af0565b82525050565b61259b81612af0565b82525050565b600060a0820190506125b660008301886122ce565b6125c360208301876122ce565b81810360408301526125d581866122dd565b905081810360608301526125e981856122dd565b905081810360808301526125fd818461234a565b90509695505050505050565b600060a08201905061261e60008301886122ce565b61262b60208301876122ce565b6126386040830186612592565b6126456060830185612592565b8181036080830152612657818461234a565b90509695505050505050565b6000602082019050818103600083015261267d81846122dd565b905092915050565b6000604082019050818103600083015261269f81856122dd565b905081810360208301526126b381846122dd565b90509392505050565b60006020820190506126d1600083018461233b565b92915050565b600060208201905081810360008301526126f18184612383565b905092915050565b60006020820190508181036000830152612712816123bc565b9050919050565b60006020820190508181036000830152612732816123df565b9050919050565b6000602082019050818103600083015261275281612402565b9050919050565b6000602082019050818103600083015261277281612425565b9050919050565b6000602082019050818103600083015261279281612448565b9050919050565b600060208201905081810360008301526127b28161246b565b9050919050565b600060208201905081810360008301526127d28161248e565b9050919050565b600060208201905081810360008301526127f2816124b1565b9050919050565b60006020820190508181036000830152612812816124d4565b9050919050565b60006020820190508181036000830152612832816124f7565b9050919050565b600060208201905081810360008301526128528161251a565b9050919050565b600060208201905081810360008301526128728161253d565b9050919050565b6000602082019050818103600083015261289281612560565b9050919050565b60006020820190506128ae6000830184612592565b92915050565b60006040820190506128c96000830185612592565b6128d66020830184612592565b9392505050565b60006128e76128f8565b90506128f38282612b6e565b919050565b6000604051905090565b600067ffffffffffffffff82111561291d5761291c612c46565b5b602082029050602081019050919050565b600067ffffffffffffffff82111561294957612948612c46565b5b602082029050602081019050919050565b600067ffffffffffffffff82111561297557612974612c46565b5b61297e82612c97565b9050602081019050919050565b6000819050602082019050919050565b600081519050919050565b600081519050919050565b600081519050919050565b6000602082019050919050565b600082825260208201905092915050565b600082825260208201905092915050565b600082825260208201905092915050565b6000612a0782612af0565b9150612a1283612af0565b9250827fffffffffffffffffffffffffffffffffffffffffffffffffffffffffffffffff03821115612a4757612a46612be8565b5b828201905092915050565b6000612a5d82612af0565b9150612a6883612af0565b925082821015612a7b57612a7a612be8565b5b828203905092915050565b6000612a9182612ad0565b9050919050565b60008115159050919050565b60007fffffffff0000000000000000000000000000000000000000000000000000000082169050919050565b600073ffffffffffffffffffffffffffffffffffffffff82169050919050565b6000819050919050565b82818337600083830152505050565b60005b83811015612b27578082015181840152602081019050612b0c565b83811115612b36576000848401525b50505050565b60006002820490506001821680612b5457607f821691505b60208210811415612b6857612b67612c17565b5b50919050565b612b7782612c97565b810181811067ffffffffffffffff82111715612b9657612b95612c46565b5b80604052505050565b6000612baa82612af0565b91507fffffffffffffffffffffffffffffffffffffffffffffffffffffffffffffffff821415612bdd57612bdc612be8565b5b600182019050919050565b7f4e487b7100000000000000000000000000000000000000000000000000000000600052601160045260246000fd5b7f4e487b7100000000000000000000000000000000000000000000000000000000600052602260045260246000fd5b7f4e487b7100000000000000000000000000000000000000000000000000000000600052604160045260246000fd5b600060033d1115612c945760046000803e612c91600051612ca8565b90505b90565b6000601f19601f8301169050919050565b60008160e01c9050919050565b7f455243313135353a207472616e7366657220746f206e6f6e204552433131353560008201527f526563656976657220696d706c656d656e746572000000000000000000000000602082015250565b7f455243313135353a204552433131353552656365697665722072656a6563746560008201527f6420746f6b656e73000000000000000000000000000000000000000000000000602082015250565b7f455243313135353a2062616c616e636520717565727920666f7220746865207a60008201527f65726f2061646472657373000000000000000000000000000000000000000000602082015250565b7f455243313135353a206275726e20616d6f756e7420657863656564732062616c60008201527f616e636500000000000000000000000000000000000000000000000000000000602082015250565b7f455243313135353a2063616c6c6572206973206e6f74206f776e6572206e6f7260008201527f20617070726f7665640000000000000000000000000000000000000000000000602082015250565b7f455243313135353a207472616e7366657220746f20746865207a65726f20616460008201527f6472657373000000000000000000000000000000000000000000000000000000602082015250565b7f455243313135353a207472616e736665722063616c6c6572206973206e6f742060008201527f6f776e6572206e6f7220617070726f7665640000000000000000000000000000602082015250565b7f455243313135353a206275726e2066726f6d20746865207a65726f206164647260008201527f6573730000000000000000000000000000000000000000000000000000000000602082015250565b7f455243313135353a20696e73756666696369656e742062616c616e636520666f60008201527f72207472616e7366657200000000000000000000000000000000000000000000602082015250565b7f455243313135353a2073657474696e6720617070726f76616c2073746174757360008201527f20666f722073656c660000000000000000000000000000000000000000000000602082015250565b7f455243313135353a206163636f756e747320616e6420696473206c656e67746860008201527f206d69736d617463680000000000000000000000000000000000000000000000602082015250565b7f455243313135353a2069647320616e6420616d6f756e7473206c656e6774682060008201527f6d69736d61746368000000000000000000000000000000000000000000000000602082015250565b7f455243313135353a206d696e7420746f20746865207a65726f2061646472657360008201527f7300000000000000000000000000000000000000000000000000000000000000602082015250565b600060443d10156130c85761314b565b6130d06128f8565b60043d036004823e80513d602482011167ffffffffffffffff821117156130f857505061314b565b808201805167ffffffffffffffff811115613116575050505061314b565b80602083010160043d03850181111561313357505050505061314b565b61314282602001850186612b6e565b82955050505050505b90565b61315781612a86565b811461316257600080fd5b50565b61316e81612a98565b811461317957600080fd5b50565b61318581612aa4565b811461319057600080fd5b50565b61319c81612af0565b81146131a757600080fd5b5056fea2646970667358221220fb7aad51941c7b4cf60f5e47e9aabf38cb9d7fc228c55a379527468a8c576c8f64736f6c63430008020033",
  "immutableReferences": {},
  "source": "// SPDX-License-Identifier: MIT\n\npragma solidity ^0.8.0;\n\nimport \"../token/ERC1155/extensions/ERC1155Burnable.sol\";\n\ncontract ERC1155BurnableMock is ERC1155Burnable {\n    constructor(string memory uri) ERC1155(uri) { }\n\n    function mint(address to, uint256 id, uint256 value, bytes memory data) public {\n        _mint(to, id, value, data);\n    }\n}\n",
  "sourcePath": "/home/semiott/Apps/eth-apps/EddyNet/core/contracts/external/contracts/mocks/ERC1155BurnableMock.sol",
  "compiler": {
    "name": "solc",
    "version": "0.8.2+commit.661d1103.Emscripten.clang"
  },
  "schemaVersion": "3.3.4",
  "updatedAt": "2021-03-21T17:16:14.394Z",
  "devdoc": {
    "kind": "dev",
    "methods": {
      "balanceOf(address,uint256)": {
        "details": "See {IERC1155-balanceOf}. Requirements: - `account` cannot be the zero address."
      },
      "balanceOfBatch(address[],uint256[])": {
        "details": "See {IERC1155-balanceOfBatch}. Requirements: - `accounts` and `ids` must have the same length."
      },
      "isApprovedForAll(address,address)": {
        "details": "See {IERC1155-isApprovedForAll}."
      },
      "safeBatchTransferFrom(address,address,uint256[],uint256[],bytes)": {
        "details": "See {IERC1155-safeBatchTransferFrom}."
      },
      "safeTransferFrom(address,address,uint256,uint256,bytes)": {
        "details": "See {IERC1155-safeTransferFrom}."
      },
      "setApprovalForAll(address,bool)": {
        "details": "See {IERC1155-setApprovalForAll}."
      },
      "supportsInterface(bytes4)": {
        "details": "See {IERC165-supportsInterface}."
      },
      "uri(uint256)": {
        "details": "See {IERC1155MetadataURI-uri}. This implementation returns the same URI for *all* token types. It relies on the token type ID substitution mechanism https://eips.ethereum.org/EIPS/eip-1155#metadata[defined in the EIP]. Clients calling this function must replace the `\\{id\\}` substring with the actual token type ID."
      }
    },
    "version": 1
  },
  "userdoc": {
    "kind": "user",
    "methods": {},
    "version": 1
  }
}