{
  "contractName": "ERC1155PausableMock",
  "abi": [
    {
      "inputs": [
        {
          "internalType": "string",
          "name": "uri",
          "type": "string"
        }
      ],
      "stateMutability": "nonpayable",
      "type": "constructor"
    },
    {
      "anonymous": false,
      "inputs": [
        {
          "indexed": true,
          "internalType": "address",
          "name": "account",
          "type": "address"
        },
        {
          "indexed": true,
          "internalType": "address",
          "name": "operator",
          "type": "address"
        },
        {
          "indexed": false,
          "internalType": "bool",
          "name": "approved",
          "type": "bool"
        }
      ],
      "name": "ApprovalForAll",
      "type": "event"
    },
    {
      "anonymous": false,
      "inputs": [
        {
          "indexed": false,
          "internalType": "address",
          "name": "account",
          "type": "address"
        }
      ],
      "name": "Paused",
      "type": "event"
    },
    {
      "anonymous": false,
      "inputs": [
        {
          "indexed": true,
          "internalType": "address",
          "name": "operator",
          "type": "address"
        },
        {
          "indexed": true,
          "internalType": "address",
          "name": "from",
          "type": "address"
        },
        {
          "indexed": true,
          "internalType": "address",
          "name": "to",
          "type": "address"
        },
        {
          "indexed": false,
          "internalType": "uint256[]",
          "name": "ids",
          "type": "uint256[]"
        },
        {
          "indexed": false,
          "internalType": "uint256[]",
          "name": "values",
          "type": "uint256[]"
        }
      ],
      "name": "TransferBatch",
      "type": "event"
    },
    {
      "anonymous": false,
      "inputs": [
        {
          "indexed": true,
          "internalType": "address",
          "name": "operator",
          "type": "address"
        },
        {
          "indexed": true,
          "internalType": "address",
          "name": "from",
          "type": "address"
        },
        {
          "indexed": true,
          "internalType": "address",
          "name": "to",
          "type": "address"
        },
        {
          "indexed": false,
          "internalType": "uint256",
          "name": "id",
          "type": "uint256"
        },
        {
          "indexed": false,
          "internalType": "uint256",
          "name": "value",
          "type": "uint256"
        }
      ],
      "name": "TransferSingle",
      "type": "event"
    },
    {
      "anonymous": false,
      "inputs": [
        {
          "indexed": false,
          "internalType": "string",
          "name": "value",
          "type": "string"
        },
        {
          "indexed": true,
          "internalType": "uint256",
          "name": "id",
          "type": "uint256"
        }
      ],
      "name": "URI",
      "type": "event"
    },
    {
      "anonymous": false,
      "inputs": [
        {
          "indexed": false,
          "internalType": "address",
          "name": "account",
          "type": "address"
        }
      ],
      "name": "Unpaused",
      "type": "event"
    },
    {
      "inputs": [
        {
          "internalType": "address",
          "name": "account",
          "type": "address"
        },
        {
          "internalType": "uint256",
          "name": "id",
          "type": "uint256"
        }
      ],
      "name": "balanceOf",
      "outputs": [
        {
          "internalType": "uint256",
          "name": "",
          "type": "uint256"
        }
      ],
      "stateMutability": "view",
      "type": "function"
    },
    {
      "inputs": [
        {
          "internalType": "address[]",
          "name": "accounts",
          "type": "address[]"
        },
        {
          "internalType": "uint256[]",
          "name": "ids",
          "type": "uint256[]"
        }
      ],
      "name": "balanceOfBatch",
      "outputs": [
        {
          "internalType": "uint256[]",
          "name": "",
          "type": "uint256[]"
        }
      ],
      "stateMutability": "view",
      "type": "function"
    },
    {
      "inputs": [
        {
          "internalType": "address",
          "name": "owner",
          "type": "address"
        },
        {
          "internalType": "uint256",
          "name": "id",
          "type": "uint256"
        },
        {
          "internalType": "uint256",
          "name": "value",
          "type": "uint256"
        }
      ],
      "name": "burn",
      "outputs": [],
      "stateMutability": "nonpayable",
      "type": "function"
    },
    {
      "inputs": [
        {
          "internalType": "address",
          "name": "owner",
          "type": "address"
        },
        {
          "internalType": "uint256[]",
          "name": "ids",
          "type": "uint256[]"
        },
        {
          "internalType": "uint256[]",
          "name": "values",
          "type": "uint256[]"
        }
      ],
      "name": "burnBatch",
      "outputs": [],
      "stateMutability": "nonpayable",
      "type": "function"
    },
    {
      "inputs": [
        {
          "internalType": "address",
          "name": "account",
          "type": "address"
        },
        {
          "internalType": "address",
          "name": "operator",
          "type": "address"
        }
      ],
      "name": "isApprovedForAll",
      "outputs": [
        {
          "internalType": "bool",
          "name": "",
          "type": "bool"
        }
      ],
      "stateMutability": "view",
      "type": "function"
    },
    {
      "inputs": [
        {
          "internalType": "address",
          "name": "to",
          "type": "address"
        },
        {
          "internalType": "uint256",
          "name": "id",
          "type": "uint256"
        },
        {
          "internalType": "uint256",
          "name": "value",
          "type": "uint256"
        },
        {
          "internalType": "bytes",
          "name": "data",
          "type": "bytes"
        }
      ],
      "name": "mint",
      "outputs": [],
      "stateMutability": "nonpayable",
      "type": "function"
    },
    {
      "inputs": [
        {
          "internalType": "address",
          "name": "to",
          "type": "address"
        },
        {
          "internalType": "uint256[]",
          "name": "ids",
          "type": "uint256[]"
        },
        {
          "internalType": "uint256[]",
          "name": "values",
          "type": "uint256[]"
        },
        {
          "internalType": "bytes",
          "name": "data",
          "type": "bytes"
        }
      ],
      "name": "mintBatch",
      "outputs": [],
      "stateMutability": "nonpayable",
      "type": "function"
    },
    {
      "inputs": [],
      "name": "paused",
      "outputs": [
        {
          "internalType": "bool",
          "name": "",
          "type": "bool"
        }
      ],
      "stateMutability": "view",
      "type": "function"
    },
    {
      "inputs": [
        {
          "internalType": "address",
          "name": "from",
          "type": "address"
        },
        {
          "internalType": "address",
          "name": "to",
          "type": "address"
        },
        {
          "internalType": "uint256[]",
          "name": "ids",
          "type": "uint256[]"
        },
        {
          "internalType": "uint256[]",
          "name": "amounts",
          "type": "uint256[]"
        },
        {
          "internalType": "bytes",
          "name": "data",
          "type": "bytes"
        }
      ],
      "name": "safeBatchTransferFrom",
      "outputs": [],
      "stateMutability": "nonpayable",
      "type": "function"
    },
    {
      "inputs": [
        {
          "internalType": "address",
          "name": "from",
          "type": "address"
        },
        {
          "internalType": "address",
          "name": "to",
          "type": "address"
        },
        {
          "internalType": "uint256",
          "name": "id",
          "type": "uint256"
        },
        {
          "internalType": "uint256",
          "name": "amount",
          "type": "uint256"
        },
        {
          "internalType": "bytes",
          "name": "data",
          "type": "bytes"
        }
      ],
      "name": "safeTransferFrom",
      "outputs": [],
      "stateMutability": "nonpayable",
      "type": "function"
    },
    {
      "inputs": [
        {
          "internalType": "address",
          "name": "operator",
          "type": "address"
        },
        {
          "internalType": "bool",
          "name": "approved",
          "type": "bool"
        }
      ],
      "name": "setApprovalForAll",
      "outputs": [],
      "stateMutability": "nonpayable",
      "type": "function"
    },
    {
      "inputs": [
        {
          "internalType": "string",
          "name": "newuri",
          "type": "string"
        }
      ],
      "name": "setURI",
      "outputs": [],
      "stateMutability": "nonpayable",
      "type": "function"
    },
    {
      "inputs": [
        {
          "internalType": "bytes4",
          "name": "interfaceId",
          "type": "bytes4"
        }
      ],
      "name": "supportsInterface",
      "outputs": [
        {
          "internalType": "bool",
          "name": "",
          "type": "bool"
        }
      ],
      "stateMutability": "view",
      "type": "function"
    },
    {
      "inputs": [
        {
          "internalType": "uint256",
          "name": "",
          "type": "uint256"
        }
      ],
      "name": "uri",
      "outputs": [
        {
          "internalType": "string",
          "name": "",
          "type": "string"
        }
      ],
      "stateMutability": "view",
      "type": "function"
    },
    {
      "inputs": [],
      "name": "pause",
      "outputs": [],
      "stateMutability": "nonpayable",
      "type": "function"
    },
    {
      "inputs": [],
      "name": "unpause",
      "outputs": [],
      "stateMutability": "nonpayable",
      "type": "function"
    }
  ],
  "bytecode": "0x60806040523480156200001157600080fd5b5060405162003d2b38038062003d2b8339818101604052810190620000379190620001ac565b80806200004a816200006e60201b60201c565b50506000600360006101000a81548160ff0219169083151502179055505062000361565b8060029080519060200190620000869291906200008a565b5050565b828054620000989062000286565b90600052602060002090601f016020900481019282620000bc576000855562000108565b82601f10620000d757805160ff191683800117855562000108565b8280016001018555821562000108579182015b8281111562000107578251825591602001919060010190620000ea565b5b5090506200011791906200011b565b5090565b5b80821115620001365760008160009055506001016200011c565b5090565b6000620001516200014b846200021a565b620001f1565b9050828152602081018484840111156200016a57600080fd5b6200017784828562000250565b509392505050565b600082601f8301126200019157600080fd5b8151620001a38482602086016200013a565b91505092915050565b600060208284031215620001bf57600080fd5b600082015167ffffffffffffffff811115620001da57600080fd5b620001e8848285016200017f565b91505092915050565b6000620001fd62000210565b90506200020b8282620002bc565b919050565b6000604051905090565b600067ffffffffffffffff82111562000238576200023762000321565b5b620002438262000350565b9050602081019050919050565b60005b838110156200027057808201518184015260208101905062000253565b8381111562000280576000848401525b50505050565b600060028204905060018216806200029f57607f821691505b60208210811415620002b657620002b5620002f2565b5b50919050565b620002c78262000350565b810181811067ffffffffffffffff82111715620002e957620002e862000321565b5b80604052505050565b7f4e487b7100000000000000000000000000000000000000000000000000000000600052602260045260246000fd5b7f4e487b7100000000000000000000000000000000000000000000000000000000600052604160045260246000fd5b6000601f19601f8301169050919050565b6139ba80620003716000396000f3fe608060405234801561001057600080fd5b50600436106100ff5760003560e01c80635c975abb11610097578063a22cb46511610066578063a22cb46514610282578063e985e9c51461029e578063f242432a146102ce578063f5298aca146102ea576100ff565b80635c975abb146102225780636b20c45414610240578063731133e91461025c5780638456cb5914610278576100ff565b80631f7fdffa116100d35780631f7fdffa146101b05780632eb2c2d6146101cc5780633f4ba83a146101e85780634e1273f4146101f2576100ff565b8062fdd58e1461010457806301ffc9a71461013457806302fe5305146101645780630e89341c14610180575b600080fd5b61011e600480360381019061011991906126ac565b610306565b60405161012b9190612fa1565b60405180910390f35b61014e6004803603810190610149919061281e565b6103cf565b60405161015b9190612d64565b60405180910390f35b61017e60048036038101906101799190612870565b6104b1565b005b61019a600480360381019061019591906128b1565b6104bd565b6040516101a79190612d7f565b60405180910390f35b6101ca60048036038101906101c591906125c5565b610551565b005b6101e660048036038101906101e191906123f8565b610563565b005b6101f0610959565b005b61020c600480360381019061020791906127b2565b610963565b6040516102199190612d0b565b60405180910390f35b61022a610b14565b6040516102379190612d64565b60405180910390f35b61025a60048036038101906102559190612546565b610b2b565b005b61027660048036038101906102719190612737565b610b3b565b005b610280610b4d565b005b61029c60048036038101906102979190612670565b610b57565b005b6102b860048036038101906102b391906123bc565b610cd8565b6040516102c59190612d64565b60405180910390f35b6102e860048036038101906102e391906124b7565b610d6c565b005b61030460048036038101906102ff91906126e8565b611084565b005b60008073ffffffffffffffffffffffffffffffffffffffff168373ffffffffffffffffffffffffffffffffffffffff161415610377576040517f08c379a000000000000000000000000000000000000000000000000000000000815260040161036e90612e01565b60405180910390fd5b60008083815260200190815260200160002060008473ffffffffffffffffffffffffffffffffffffffff1673ffffffffffffffffffffffffffffffffffffffff16815260200190815260200160002054905092915050565b60007fd9b67a26000000000000000000000000000000000000000000000000000000007bffffffffffffffffffffffffffffffffffffffffffffffffffffffff1916827bffffffffffffffffffffffffffffffffffffffffffffffffffffffff1916148061049a57507f0e89341c000000000000000000000000000000000000000000000000000000007bffffffffffffffffffffffffffffffffffffffffffffffffffffffff1916827bffffffffffffffffffffffffffffffffffffffffffffffffffffffff1916145b806104aa57506104a982611094565b5b9050919050565b6104ba816110fe565b50565b6060600280546104cc90613275565b80601f01602080910402602001604051908101604052809291908181526020018280546104f890613275565b80156105455780601f1061051a57610100808354040283529160200191610545565b820191906000526020600020905b81548152906001019060200180831161052857829003601f168201915b50505050509050919050565b61055d84848484611118565b50505050565b81518351146105a7576040517f08c379a000000000000000000000000000000000000000000000000000000000815260040161059e90612f61565b60405180910390fd5b600073ffffffffffffffffffffffffffffffffffffffff168473ffffffffffffffffffffffffffffffffffffffff161415610617576040517f08c379a000000000000000000000000000000000000000000000000000000000815260040161060e90612ea1565b60405180910390fd5b61061f611382565b73ffffffffffffffffffffffffffffffffffffffff168573ffffffffffffffffffffffffffffffffffffffff16148061066557506106648561065f611382565b610cd8565b5b6106a4576040517f08c379a000000000000000000000000000000000000000000000000000000000815260040161069b90612ec1565b60405180910390fd5b60006106ae611382565b90506106be81878787878761138a565b60005b84518110156108c4576000858281518110610705577f4e487b7100000000000000000000000000000000000000000000000000000000600052603260045260246000fd5b60200260200101519050600085838151811061074a577f4e487b7100000000000000000000000000000000000000000000000000000000600052603260045260246000fd5b60200260200101519050600080600084815260200190815260200160002060008b73ffffffffffffffffffffffffffffffffffffffff1673ffffffffffffffffffffffffffffffffffffffff168152602001908152602001600020549050818110156107eb576040517f08c379a00000000000000000000000000000000000000000000000000000000081526004016107e290612f01565b60405180910390fd5b81816107f7919061318b565b60008085815260200190815260200160002060008c73ffffffffffffffffffffffffffffffffffffffff1673ffffffffffffffffffffffffffffffffffffffff168152602001908152602001600020819055508160008085815260200190815260200160002060008b73ffffffffffffffffffffffffffffffffffffffff1673ffffffffffffffffffffffffffffffffffffffff16815260200190815260200160002060008282546108a99190613135565b92505081905550505050806108bd906132d8565b90506106c1565b508473ffffffffffffffffffffffffffffffffffffffff168673ffffffffffffffffffffffffffffffffffffffff168273ffffffffffffffffffffffffffffffffffffffff167f4a39dc06d4c0dbc64b70af90fd698a233a518aa5d07e595d983b8c0526c8f7fb878760405161093b929190612d2d565b60405180910390a46109518187878787876113a0565b505050505050565b610961611587565b565b606081518351146109a9576040517f08c379a00000000000000000000000000000000000000000000000000000000081526004016109a090612f41565b60405180910390fd5b6000835167ffffffffffffffff8111156109ec577f4e487b7100000000000000000000000000000000000000000000000000000000600052604160045260246000fd5b604051908082528060200260200182016040528015610a1a5781602001602082028036833780820191505090505b50905060005b8451811015610b0957610ab3858281518110610a65577f4e487b7100000000000000000000000000000000000000000000000000000000600052603260045260246000fd5b6020026020010151858381518110610aa6577f4e487b7100000000000000000000000000000000000000000000000000000000600052603260045260246000fd5b6020026020010151610306565b828281518110610aec577f4e487b7100000000000000000000000000000000000000000000000000000000600052603260045260246000fd5b60200260200101818152505080610b02906132d8565b9050610a20565b508091505092915050565b6000600360009054906101000a900460ff16905090565b610b36838383611629565b505050565b610b478484848461192f565b50505050565b610b55611ac5565b565b8173ffffffffffffffffffffffffffffffffffffffff16610b76611382565b73ffffffffffffffffffffffffffffffffffffffff161415610bcd576040517f08c379a0000000000000000000000000000000000000000000000000000000008152600401610bc490612f21565b60405180910390fd5b8060016000610bda611382565b73ffffffffffffffffffffffffffffffffffffffff1673ffffffffffffffffffffffffffffffffffffffff16815260200190815260200160002060008473ffffffffffffffffffffffffffffffffffffffff1673ffffffffffffffffffffffffffffffffffffffff16815260200190815260200160002060006101000a81548160ff0219169083151502179055508173ffffffffffffffffffffffffffffffffffffffff16610c87611382565b73ffffffffffffffffffffffffffffffffffffffff167f17307eab39ab6107e8899845ad3d59bd9653f200f220920489ca2b5937696c3183604051610ccc9190612d64565b60405180910390a35050565b6000600160008473ffffffffffffffffffffffffffffffffffffffff1673ffffffffffffffffffffffffffffffffffffffff16815260200190815260200160002060008373ffffffffffffffffffffffffffffffffffffffff1673ffffffffffffffffffffffffffffffffffffffff16815260200190815260200160002060009054906101000a900460ff16905092915050565b600073ffffffffffffffffffffffffffffffffffffffff168473ffffffffffffffffffffffffffffffffffffffff161415610ddc576040517f08c379a0000000000000000000000000000000000000000000000000000000008152600401610dd390612ea1565b60405180910390fd5b610de4611382565b73ffffffffffffffffffffffffffffffffffffffff168573ffffffffffffffffffffffffffffffffffffffff161480610e2a5750610e2985610e24611382565b610cd8565b5b610e69576040517f08c379a0000000000000000000000000000000000000000000000000000000008152600401610e6090612e61565b60405180910390fd5b6000610e73611382565b9050610e93818787610e8488611b68565b610e8d88611b68565b8761138a565b600080600086815260200190815260200160002060008873ffffffffffffffffffffffffffffffffffffffff1673ffffffffffffffffffffffffffffffffffffffff16815260200190815260200160002054905083811015610f2a576040517f08c379a0000000000000000000000000000000000000000000000000000000008152600401610f2190612f01565b60405180910390fd5b8381610f36919061318b565b60008087815260200190815260200160002060008973ffffffffffffffffffffffffffffffffffffffff1673ffffffffffffffffffffffffffffffffffffffff168152602001908152602001600020819055508360008087815260200190815260200160002060008873ffffffffffffffffffffffffffffffffffffffff1673ffffffffffffffffffffffffffffffffffffffff1681526020019081526020016000206000828254610fe89190613135565b925050819055508573ffffffffffffffffffffffffffffffffffffffff168773ffffffffffffffffffffffffffffffffffffffff168373ffffffffffffffffffffffffffffffffffffffff167fc3d58168c5ae7397731d063d5bbf3d657854427343f4c083240f7aacaa2d0f628888604051611065929190612fbc565b60405180910390a461107b828888888888611c2e565b50505050505050565b61108f838383611e15565b505050565b60007f01ffc9a7000000000000000000000000000000000000000000000000000000007bffffffffffffffffffffffffffffffffffffffffffffffffffffffff1916827bffffffffffffffffffffffffffffffffffffffffffffffffffffffff1916149050919050565b80600290805190602001906111149291906120b4565b5050565b600073ffffffffffffffffffffffffffffffffffffffff168473ffffffffffffffffffffffffffffffffffffffff161415611188576040517f08c379a000000000000000000000000000000000000000000000000000000000815260040161117f90612f81565b60405180910390fd5b81518351146111cc576040517f08c379a00000000000000000000000000000000000000000000000000000000081526004016111c390612f61565b60405180910390fd5b60006111d6611382565b90506111e78160008787878761138a565b60005b84518110156112ec5783818151811061122c577f4e487b7100000000000000000000000000000000000000000000000000000000600052603260045260246000fd5b6020026020010151600080878481518110611270577f4e487b7100000000000000000000000000000000000000000000000000000000600052603260045260246000fd5b6020026020010151815260200190815260200160002060008873ffffffffffffffffffffffffffffffffffffffff1673ffffffffffffffffffffffffffffffffffffffff16815260200190815260200160002060008282546112d29190613135565b9250508190555080806112e4906132d8565b9150506111ea565b508473ffffffffffffffffffffffffffffffffffffffff16600073ffffffffffffffffffffffffffffffffffffffff168273ffffffffffffffffffffffffffffffffffffffff167f4a39dc06d4c0dbc64b70af90fd698a233a518aa5d07e595d983b8c0526c8f7fb8787604051611364929190612d2d565b60405180910390a461137b816000878787876113a0565b5050505050565b600033905090565b61139886868686868661203b565b505050505050565b6113bf8473ffffffffffffffffffffffffffffffffffffffff16612099565b1561157f578373ffffffffffffffffffffffffffffffffffffffff1663bc197c8187878686866040518663ffffffff1660e01b8152600401611405959493929190612c49565b602060405180830381600087803b15801561141f57600080fd5b505af192505050801561145057506040513d601f19601f8201168201806040525081019061144d9190612847565b60015b6114f65761145c6133ae565b806308c379a014156114b95750611471613892565b8061147c57506114bb565b806040517f08c379a00000000000000000000000000000000000000000000000000000000081526004016114b09190612d7f565b60405180910390fd5b505b6040517f08c379a00000000000000000000000000000000000000000000000000000000081526004016114ed90612da1565b60405180910390fd5b63bc197c8160e01b7bffffffffffffffffffffffffffffffffffffffffffffffffffffffff1916817bffffffffffffffffffffffffffffffffffffffffffffffffffffffff19161461157d576040517f08c379a000000000000000000000000000000000000000000000000000000000815260040161157490612dc1565b60405180910390fd5b505b505050505050565b61158f610b14565b6115ce576040517f08c379a00000000000000000000000000000000000000000000000000000000081526004016115c590612de1565b60405180910390fd5b6000600360006101000a81548160ff0219169083151502179055507f5db9ee0a495bf2e6ff9c91a7834c1ba4fdd244a5e8aa4e537bd38aeae4b073aa611612611382565b60405161161f9190612c2e565b60405180910390a1565b600073ffffffffffffffffffffffffffffffffffffffff168373ffffffffffffffffffffffffffffffffffffffff161415611699576040517f08c379a000000000000000000000000000000000000000000000000000000000815260040161169090612ee1565b60405180910390fd5b80518251146116dd576040517f08c379a00000000000000000000000000000000000000000000000000000000081526004016116d490612f61565b60405180910390fd5b60006116e7611382565b90506117078185600086866040518060200160405280600081525061138a565b60005b83518110156118a957600084828151811061174e577f4e487b7100000000000000000000000000000000000000000000000000000000600052603260045260246000fd5b602002602001015190506000848381518110611793577f4e487b7100000000000000000000000000000000000000000000000000000000600052603260045260246000fd5b60200260200101519050600080600084815260200190815260200160002060008973ffffffffffffffffffffffffffffffffffffffff1673ffffffffffffffffffffffffffffffffffffffff16815260200190815260200160002054905081811015611834576040517f08c379a000000000000000000000000000000000000000000000000000000000815260040161182b90612e21565b60405180910390fd5b8181611840919061318b565b60008085815260200190815260200160002060008a73ffffffffffffffffffffffffffffffffffffffff1673ffffffffffffffffffffffffffffffffffffffff1681526020019081526020016000208190555050505080806118a1906132d8565b91505061170a565b50600073ffffffffffffffffffffffffffffffffffffffff168473ffffffffffffffffffffffffffffffffffffffff168273ffffffffffffffffffffffffffffffffffffffff167f4a39dc06d4c0dbc64b70af90fd698a233a518aa5d07e595d983b8c0526c8f7fb8686604051611921929190612d2d565b60405180910390a450505050565b600073ffffffffffffffffffffffffffffffffffffffff168473ffffffffffffffffffffffffffffffffffffffff16141561199f576040517f08c379a000000000000000000000000000000000000000000000000000000000815260040161199690612f81565b60405180910390fd5b60006119a9611382565b90506119ca816000876119bb88611b68565b6119c488611b68565b8761138a565b8260008086815260200190815260200160002060008773ffffffffffffffffffffffffffffffffffffffff1673ffffffffffffffffffffffffffffffffffffffff1681526020019081526020016000206000828254611a299190613135565b925050819055508473ffffffffffffffffffffffffffffffffffffffff16600073ffffffffffffffffffffffffffffffffffffffff168273ffffffffffffffffffffffffffffffffffffffff167fc3d58168c5ae7397731d063d5bbf3d657854427343f4c083240f7aacaa2d0f628787604051611aa7929190612fbc565b60405180910390a4611abe81600087878787611c2e565b5050505050565b611acd610b14565b15611b0d576040517f08c379a0000000000000000000000000000000000000000000000000000000008152600401611b0490612e81565b60405180910390fd5b6001600360006101000a81548160ff0219169083151502179055507f62e78cea01bee320cd4e420270b5ea74000d11b0c9f74754ebdbfc544b05a258611b51611382565b604051611b5e9190612c2e565b60405180910390a1565b60606000600167ffffffffffffffff811115611bad577f4e487b7100000000000000000000000000000000000000000000000000000000600052604160045260246000fd5b604051908082528060200260200182016040528015611bdb5781602001602082028036833780820191505090505b5090508281600081518110611c19577f4e487b7100000000000000000000000000000000000000000000000000000000600052603260045260246000fd5b60200260200101818152505080915050919050565b611c4d8473ffffffffffffffffffffffffffffffffffffffff16612099565b15611e0d578373ffffffffffffffffffffffffffffffffffffffff1663f23a6e6187878686866040518663ffffffff1660e01b8152600401611c93959493929190612cb1565b602060405180830381600087803b158015611cad57600080fd5b505af1925050508015611cde57506040513d601f19601f82011682018060405250810190611cdb9190612847565b60015b611d8457611cea6133ae565b806308c379a01415611d475750611cff613892565b80611d0a5750611d49565b806040517f08c379a0000000000000000000000000000000000000000000000000000000008152600401611d3e9190612d7f565b60405180910390fd5b505b6040517f08c379a0000000000000000000000000000000000000000000000000000000008152600401611d7b90612da1565b60405180910390fd5b63f23a6e6160e01b7bffffffffffffffffffffffffffffffffffffffffffffffffffffffff1916817bffffffffffffffffffffffffffffffffffffffffffffffffffffffff191614611e0b576040517f08c379a0000000000000000000000000000000000000000000000000000000008152600401611e0290612dc1565b60405180910390fd5b505b505050505050565b600073ffffffffffffffffffffffffffffffffffffffff168373ffffffffffffffffffffffffffffffffffffffff161415611e85576040517f08c379a0000000000000000000000000000000000000000000000000000000008152600401611e7c90612ee1565b60405180910390fd5b6000611e8f611382565b9050611ebf81856000611ea187611b68565b611eaa87611b68565b6040518060200160405280600081525061138a565b600080600085815260200190815260200160002060008673ffffffffffffffffffffffffffffffffffffffff1673ffffffffffffffffffffffffffffffffffffffff16815260200190815260200160002054905082811015611f56576040517f08c379a0000000000000000000000000000000000000000000000000000000008152600401611f4d90612e21565b60405180910390fd5b8281611f62919061318b565b60008086815260200190815260200160002060008773ffffffffffffffffffffffffffffffffffffffff1673ffffffffffffffffffffffffffffffffffffffff16815260200190815260200160002081905550600073ffffffffffffffffffffffffffffffffffffffff168573ffffffffffffffffffffffffffffffffffffffff168373ffffffffffffffffffffffffffffffffffffffff167fc3d58168c5ae7397731d063d5bbf3d657854427343f4c083240f7aacaa2d0f62878760405161202c929190612fbc565b60405180910390a45050505050565b6120498686868686866120ac565b612051610b14565b15612091576040517f08c379a000000000000000000000000000000000000000000000000000000000815260040161208890612e41565b60405180910390fd5b505050505050565b600080823b905060008111915050919050565b505050505050565b8280546120c090613275565b90600052602060002090601f0160209004810192826120e25760008555612129565b82601f106120fb57805160ff1916838001178555612129565b82800160010185558215612129579182015b8281111561212857825182559160200191906001019061210d565b5b509050612136919061213a565b5090565b5b8082111561215357600081600090555060010161213b565b5090565b600061216a6121658461300a565b612fe5565b9050808382526020820190508285602086028201111561218957600080fd5b60005b858110156121b9578161219f88826122ab565b84526020840193506020830192505060018101905061218c565b5050509392505050565b60006121d66121d184613036565b612fe5565b905080838252602082019050828560208602820111156121f557600080fd5b60005b85811015612225578161220b88826123a7565b8452602084019350602083019250506001810190506121f8565b5050509392505050565b600061224261223d84613062565b612fe5565b90508281526020810184848401111561225a57600080fd5b612265848285613233565b509392505050565b600061228061227b84613093565b612fe5565b90508281526020810184848401111561229857600080fd5b6122a3848285613233565b509392505050565b6000813590506122ba81613928565b92915050565b600082601f8301126122d157600080fd5b81356122e1848260208601612157565b91505092915050565b600082601f8301126122fb57600080fd5b813561230b8482602086016121c3565b91505092915050565b6000813590506123238161393f565b92915050565b60008135905061233881613956565b92915050565b60008151905061234d81613956565b92915050565b600082601f83011261236457600080fd5b813561237484826020860161222f565b91505092915050565b600082601f83011261238e57600080fd5b813561239e84826020860161226d565b91505092915050565b6000813590506123b68161396d565b92915050565b600080604083850312156123cf57600080fd5b60006123dd858286016122ab565b92505060206123ee858286016122ab565b9150509250929050565b600080600080600060a0868803121561241057600080fd5b600061241e888289016122ab565b955050602061242f888289016122ab565b945050604086013567ffffffffffffffff81111561244c57600080fd5b612458888289016122ea565b935050606086013567ffffffffffffffff81111561247557600080fd5b612481888289016122ea565b925050608086013567ffffffffffffffff81111561249e57600080fd5b6124aa88828901612353565b9150509295509295909350565b600080600080600060a086880312156124cf57600080fd5b60006124dd888289016122ab565b95505060206124ee888289016122ab565b94505060406124ff888289016123a7565b9350506060612510888289016123a7565b925050608086013567ffffffffffffffff81111561252d57600080fd5b61253988828901612353565b9150509295509295909350565b60008060006060848603121561255b57600080fd5b6000612569868287016122ab565b935050602084013567ffffffffffffffff81111561258657600080fd5b612592868287016122ea565b925050604084013567ffffffffffffffff8111156125af57600080fd5b6125bb868287016122ea565b9150509250925092565b600080600080608085870312156125db57600080fd5b60006125e9878288016122ab565b945050602085013567ffffffffffffffff81111561260657600080fd5b612612878288016122ea565b935050604085013567ffffffffffffffff81111561262f57600080fd5b61263b878288016122ea565b925050606085013567ffffffffffffffff81111561265857600080fd5b61266487828801612353565b91505092959194509250565b6000806040838503121561268357600080fd5b6000612691858286016122ab565b92505060206126a285828601612314565b9150509250929050565b600080604083850312156126bf57600080fd5b60006126cd858286016122ab565b92505060206126de858286016123a7565b9150509250929050565b6000806000606084860312156126fd57600080fd5b600061270b868287016122ab565b935050602061271c868287016123a7565b925050604061272d868287016123a7565b9150509250925092565b6000806000806080858703121561274d57600080fd5b600061275b878288016122ab565b945050602061276c878288016123a7565b935050604061277d878288016123a7565b925050606085013567ffffffffffffffff81111561279a57600080fd5b6127a687828801612353565b91505092959194509250565b600080604083850312156127c557600080fd5b600083013567ffffffffffffffff8111156127df57600080fd5b6127eb858286016122c0565b925050602083013567ffffffffffffffff81111561280857600080fd5b612814858286016122ea565b9150509250929050565b60006020828403121561283057600080fd5b600061283e84828501612329565b91505092915050565b60006020828403121561285957600080fd5b60006128678482850161233e565b91505092915050565b60006020828403121561288257600080fd5b600082013567ffffffffffffffff81111561289c57600080fd5b6128a88482850161237d565b91505092915050565b6000602082840312156128c357600080fd5b60006128d1848285016123a7565b91505092915050565b60006128e68383612c10565b60208301905092915050565b6128fb816131bf565b82525050565b600061290c826130d4565b6129168185613102565b9350612921836130c4565b8060005b8381101561295257815161293988826128da565b9750612944836130f5565b925050600181019050612925565b5085935050505092915050565b612968816131d1565b82525050565b6000612979826130df565b6129838185613113565b9350612993818560208601613242565b61299c816133d0565b840191505092915050565b60006129b2826130ea565b6129bc8185613124565b93506129cc818560208601613242565b6129d5816133d0565b840191505092915050565b60006129ed603483613124565b91506129f8826133ee565b604082019050919050565b6000612a10602883613124565b9150612a1b8261343d565b604082019050919050565b6000612a33601483613124565b9150612a3e8261348c565b602082019050919050565b6000612a56602b83613124565b9150612a61826134b5565b604082019050919050565b6000612a79602483613124565b9150612a8482613504565b604082019050919050565b6000612a9c602c83613124565b9150612aa782613553565b604082019050919050565b6000612abf602983613124565b9150612aca826135a2565b604082019050919050565b6000612ae2601083613124565b9150612aed826135f1565b602082019050919050565b6000612b05602583613124565b9150612b108261361a565b604082019050919050565b6000612b28603283613124565b9150612b3382613669565b604082019050919050565b6000612b4b602383613124565b9150612b56826136b8565b604082019050919050565b6000612b6e602a83613124565b9150612b7982613707565b604082019050919050565b6000612b91602983613124565b9150612b9c82613756565b604082019050919050565b6000612bb4602983613124565b9150612bbf826137a5565b604082019050919050565b6000612bd7602883613124565b9150612be2826137f4565b604082019050919050565b6000612bfa602183613124565b9150612c0582613843565b604082019050919050565b612c1981613229565b82525050565b612c2881613229565b82525050565b6000602082019050612c4360008301846128f2565b92915050565b600060a082019050612c5e60008301886128f2565b612c6b60208301876128f2565b8181036040830152612c7d8186612901565b90508181036060830152612c918185612901565b90508181036080830152612ca5818461296e565b90509695505050505050565b600060a082019050612cc660008301886128f2565b612cd360208301876128f2565b612ce06040830186612c1f565b612ced6060830185612c1f565b8181036080830152612cff818461296e565b90509695505050505050565b60006020820190508181036000830152612d258184612901565b905092915050565b60006040820190508181036000830152612d478185612901565b90508181036020830152612d5b8184612901565b90509392505050565b6000602082019050612d79600083018461295f565b92915050565b60006020820190508181036000830152612d9981846129a7565b905092915050565b60006020820190508181036000830152612dba816129e0565b9050919050565b60006020820190508181036000830152612dda81612a03565b9050919050565b60006020820190508181036000830152612dfa81612a26565b9050919050565b60006020820190508181036000830152612e1a81612a49565b9050919050565b60006020820190508181036000830152612e3a81612a6c565b9050919050565b60006020820190508181036000830152612e5a81612a8f565b9050919050565b60006020820190508181036000830152612e7a81612ab2565b9050919050565b60006020820190508181036000830152612e9a81612ad5565b9050919050565b60006020820190508181036000830152612eba81612af8565b9050919050565b60006020820190508181036000830152612eda81612b1b565b9050919050565b60006020820190508181036000830152612efa81612b3e565b9050919050565b60006020820190508181036000830152612f1a81612b61565b9050919050565b60006020820190508181036000830152612f3a81612b84565b9050919050565b60006020820190508181036000830152612f5a81612ba7565b9050919050565b60006020820190508181036000830152612f7a81612bca565b9050919050565b60006020820190508181036000830152612f9a81612bed565b9050919050565b6000602082019050612fb66000830184612c1f565b92915050565b6000604082019050612fd16000830185612c1f565b612fde6020830184612c1f565b9392505050565b6000612fef613000565b9050612ffb82826132a7565b919050565b6000604051905090565b600067ffffffffffffffff8211156130255761302461337f565b5b602082029050602081019050919050565b600067ffffffffffffffff8211156130515761305061337f565b5b602082029050602081019050919050565b600067ffffffffffffffff82111561307d5761307c61337f565b5b613086826133d0565b9050602081019050919050565b600067ffffffffffffffff8211156130ae576130ad61337f565b5b6130b7826133d0565b9050602081019050919050565b6000819050602082019050919050565b600081519050919050565b600081519050919050565b600081519050919050565b6000602082019050919050565b600082825260208201905092915050565b600082825260208201905092915050565b600082825260208201905092915050565b600061314082613229565b915061314b83613229565b9250827fffffffffffffffffffffffffffffffffffffffffffffffffffffffffffffffff038211156131805761317f613321565b5b828201905092915050565b600061319682613229565b91506131a183613229565b9250828210156131b4576131b3613321565b5b828203905092915050565b60006131ca82613209565b9050919050565b60008115159050919050565b60007fffffffff0000000000000000000000000000000000000000000000000000000082169050919050565b600073ffffffffffffffffffffffffffffffffffffffff82169050919050565b6000819050919050565b82818337600083830152505050565b60005b83811015613260578082015181840152602081019050613245565b8381111561326f576000848401525b50505050565b6000600282049050600182168061328d57607f821691505b602082108114156132a1576132a0613350565b5b50919050565b6132b0826133d0565b810181811067ffffffffffffffff821117156132cf576132ce61337f565b5b80604052505050565b60006132e382613229565b91507fffffffffffffffffffffffffffffffffffffffffffffffffffffffffffffffff82141561331657613315613321565b5b600182019050919050565b7f4e487b7100000000000000000000000000000000000000000000000000000000600052601160045260246000fd5b7f4e487b7100000000000000000000000000000000000000000000000000000000600052602260045260246000fd5b7f4e487b7100000000000000000000000000000000000000000000000000000000600052604160045260246000fd5b600060033d11156133cd5760046000803e6133ca6000516133e1565b90505b90565b6000601f19601f8301169050919050565b60008160e01c9050919050565b7f455243313135353a207472616e7366657220746f206e6f6e204552433131353560008201527f526563656976657220696d706c656d656e746572000000000000000000000000602082015250565b7f455243313135353a204552433131353552656365697665722072656a6563746560008201527f6420746f6b656e73000000000000000000000000000000000000000000000000602082015250565b7f5061757361626c653a206e6f7420706175736564000000000000000000000000600082015250565b7f455243313135353a2062616c616e636520717565727920666f7220746865207a60008201527f65726f2061646472657373000000000000000000000000000000000000000000602082015250565b7f455243313135353a206275726e20616d6f756e7420657863656564732062616c60008201527f616e636500000000000000000000000000000000000000000000000000000000602082015250565b7f455243313135355061757361626c653a20746f6b656e207472616e736665722060008201527f7768696c65207061757365640000000000000000000000000000000000000000602082015250565b7f455243313135353a2063616c6c6572206973206e6f74206f776e6572206e6f7260008201527f20617070726f7665640000000000000000000000000000000000000000000000602082015250565b7f5061757361626c653a2070617573656400000000000000000000000000000000600082015250565b7f455243313135353a207472616e7366657220746f20746865207a65726f20616460008201527f6472657373000000000000000000000000000000000000000000000000000000602082015250565b7f455243313135353a207472616e736665722063616c6c6572206973206e6f742060008201527f6f776e6572206e6f7220617070726f7665640000000000000000000000000000602082015250565b7f455243313135353a206275726e2066726f6d20746865207a65726f206164647260008201527f6573730000000000000000000000000000000000000000000000000000000000602082015250565b7f455243313135353a20696e73756666696369656e742062616c616e636520666f60008201527f72207472616e7366657200000000000000000000000000000000000000000000602082015250565b7f455243313135353a2073657474696e6720617070726f76616c2073746174757360008201527f20666f722073656c660000000000000000000000000000000000000000000000602082015250565b7f455243313135353a206163636f756e747320616e6420696473206c656e67746860008201527f206d69736d617463680000000000000000000000000000000000000000000000602082015250565b7f455243313135353a2069647320616e6420616d6f756e7473206c656e6774682060008201527f6d69736d61746368000000000000000000000000000000000000000000000000602082015250565b7f455243313135353a206d696e7420746f20746865207a65726f2061646472657360008201527f7300000000000000000000000000000000000000000000000000000000000000602082015250565b600060443d10156138a257613925565b6138aa613000565b60043d036004823e80513d602482011167ffffffffffffffff821117156138d2575050613925565b808201805167ffffffffffffffff8111156138f05750505050613925565b80602083010160043d03850181111561390d575050505050613925565b61391c826020018501866132a7565b82955050505050505b90565b613931816131bf565b811461393c57600080fd5b50565b613948816131d1565b811461395357600080fd5b50565b61395f816131dd565b811461396a57600080fd5b50565b61397681613229565b811461398157600080fd5b5056fea26469706673582212204d8ba748732aa75b6271b4fca25f3d6037159f3a135e4791a1f9fb27b1714dfd64736f6c63430008020033",
  "immutableReferences": {},
  "source": "// SPDX-License-Identifier: MIT\n\npragma solidity ^0.8.0;\n\nimport \"./ERC1155Mock.sol\";\nimport \"../token/ERC1155/extensions/ERC1155Pausable.sol\";\n\ncontract ERC1155PausableMock is ERC1155Mock, ERC1155Pausable {\n    constructor(string memory uri) ERC1155Mock(uri) { }\n\n    function pause() external {\n        _pause();\n    }\n\n    function unpause() external {\n        _unpause();\n    }\n\n    function _beforeTokenTransfer(\n        address operator,\n        address from,\n        address to,\n        uint256[] memory ids,\n        uint256[] memory amounts,\n        bytes memory data\n    )\n        internal virtual override(ERC1155, ERC1155Pausable)\n    {\n        super._beforeTokenTransfer(operator, from, to, ids, amounts, data);\n    }\n}\n",
  "sourcePath": "/home/semiott/Apps/eth-apps/EddyNet/core/contracts/external/contracts/mocks/ERC1155PausableMock.sol",
  "compiler": {
    "name": "solc",
    "version": "0.8.2+commit.661d1103.Emscripten.clang"
  },
  "schemaVersion": "3.3.4",
  "updatedAt": "2021-03-21T17:16:14.408Z",
  "devdoc": {
    "kind": "dev",
    "methods": {
      "balanceOf(address,uint256)": {
        "details": "See {IERC1155-balanceOf}. Requirements: - `account` cannot be the zero address."
      },
      "balanceOfBatch(address[],uint256[])": {
        "details": "See {IERC1155-balanceOfBatch}. Requirements: - `accounts` and `ids` must have the same length."
      },
      "isApprovedForAll(address,address)": {
        "details": "See {IERC1155-isApprovedForAll}."
      },
      "paused()": {
        "details": "Returns true if the contract is paused, and false otherwise."
      },
      "safeBatchTransferFrom(address,address,uint256[],uint256[],bytes)": {
        "details": "See {IERC1155-safeBatchTransferFrom}."
      },
      "safeTransferFrom(address,address,uint256,uint256,bytes)": {
        "details": "See {IERC1155-safeTransferFrom}."
      },
      "setApprovalForAll(address,bool)": {
        "details": "See {IERC1155-setApprovalForAll}."
      },
      "supportsInterface(bytes4)": {
        "details": "See {IERC165-supportsInterface}."
      },
      "uri(uint256)": {
        "details": "See {IERC1155MetadataURI-uri}. This implementation returns the same URI for *all* token types. It relies on the token type ID substitution mechanism https://eips.ethereum.org/EIPS/eip-1155#metadata[defined in the EIP]. Clients calling this function must replace the `\\{id\\}` substring with the actual token type ID."
      }
    },
    "version": 1
  },
  "userdoc": {
    "kind": "user",
    "methods": {},
    "version": 1
  }
}