{
  "contractName": "ERC721URIStorageMock",
  "abi": [
    {
      "inputs": [
        {
          "internalType": "string",
          "name": "name",
          "type": "string"
        },
        {
          "internalType": "string",
          "name": "symbol",
          "type": "string"
        }
      ],
      "stateMutability": "nonpayable",
      "type": "constructor"
    },
    {
      "anonymous": false,
      "inputs": [
        {
          "indexed": true,
          "internalType": "address",
          "name": "owner",
          "type": "address"
        },
        {
          "indexed": true,
          "internalType": "address",
          "name": "approved",
          "type": "address"
        },
        {
          "indexed": true,
          "internalType": "uint256",
          "name": "tokenId",
          "type": "uint256"
        }
      ],
      "name": "Approval",
      "type": "event"
    },
    {
      "anonymous": false,
      "inputs": [
        {
          "indexed": true,
          "internalType": "address",
          "name": "owner",
          "type": "address"
        },
        {
          "indexed": true,
          "internalType": "address",
          "name": "operator",
          "type": "address"
        },
        {
          "indexed": false,
          "internalType": "bool",
          "name": "approved",
          "type": "bool"
        }
      ],
      "name": "ApprovalForAll",
      "type": "event"
    },
    {
      "anonymous": false,
      "inputs": [
        {
          "indexed": true,
          "internalType": "address",
          "name": "from",
          "type": "address"
        },
        {
          "indexed": true,
          "internalType": "address",
          "name": "to",
          "type": "address"
        },
        {
          "indexed": true,
          "internalType": "uint256",
          "name": "tokenId",
          "type": "uint256"
        }
      ],
      "name": "Transfer",
      "type": "event"
    },
    {
      "inputs": [
        {
          "internalType": "address",
          "name": "to",
          "type": "address"
        },
        {
          "internalType": "uint256",
          "name": "tokenId",
          "type": "uint256"
        }
      ],
      "name": "approve",
      "outputs": [],
      "stateMutability": "nonpayable",
      "type": "function"
    },
    {
      "inputs": [
        {
          "internalType": "address",
          "name": "owner",
          "type": "address"
        }
      ],
      "name": "balanceOf",
      "outputs": [
        {
          "internalType": "uint256",
          "name": "",
          "type": "uint256"
        }
      ],
      "stateMutability": "view",
      "type": "function"
    },
    {
      "inputs": [
        {
          "internalType": "uint256",
          "name": "tokenId",
          "type": "uint256"
        }
      ],
      "name": "getApproved",
      "outputs": [
        {
          "internalType": "address",
          "name": "",
          "type": "address"
        }
      ],
      "stateMutability": "view",
      "type": "function"
    },
    {
      "inputs": [
        {
          "internalType": "address",
          "name": "owner",
          "type": "address"
        },
        {
          "internalType": "address",
          "name": "operator",
          "type": "address"
        }
      ],
      "name": "isApprovedForAll",
      "outputs": [
        {
          "internalType": "bool",
          "name": "",
          "type": "bool"
        }
      ],
      "stateMutability": "view",
      "type": "function"
    },
    {
      "inputs": [],
      "name": "name",
      "outputs": [
        {
          "internalType": "string",
          "name": "",
          "type": "string"
        }
      ],
      "stateMutability": "view",
      "type": "function"
    },
    {
      "inputs": [
        {
          "internalType": "uint256",
          "name": "tokenId",
          "type": "uint256"
        }
      ],
      "name": "ownerOf",
      "outputs": [
        {
          "internalType": "address",
          "name": "",
          "type": "address"
        }
      ],
      "stateMutability": "view",
      "type": "function"
    },
    {
      "inputs": [
        {
          "internalType": "address",
          "name": "from",
          "type": "address"
        },
        {
          "internalType": "address",
          "name": "to",
          "type": "address"
        },
        {
          "internalType": "uint256",
          "name": "tokenId",
          "type": "uint256"
        }
      ],
      "name": "safeTransferFrom",
      "outputs": [],
      "stateMutability": "nonpayable",
      "type": "function"
    },
    {
      "inputs": [
        {
          "internalType": "address",
          "name": "from",
          "type": "address"
        },
        {
          "internalType": "address",
          "name": "to",
          "type": "address"
        },
        {
          "internalType": "uint256",
          "name": "tokenId",
          "type": "uint256"
        },
        {
          "internalType": "bytes",
          "name": "_data",
          "type": "bytes"
        }
      ],
      "name": "safeTransferFrom",
      "outputs": [],
      "stateMutability": "nonpayable",
      "type": "function"
    },
    {
      "inputs": [
        {
          "internalType": "address",
          "name": "operator",
          "type": "address"
        },
        {
          "internalType": "bool",
          "name": "approved",
          "type": "bool"
        }
      ],
      "name": "setApprovalForAll",
      "outputs": [],
      "stateMutability": "nonpayable",
      "type": "function"
    },
    {
      "inputs": [
        {
          "internalType": "bytes4",
          "name": "interfaceId",
          "type": "bytes4"
        }
      ],
      "name": "supportsInterface",
      "outputs": [
        {
          "internalType": "bool",
          "name": "",
          "type": "bool"
        }
      ],
      "stateMutability": "view",
      "type": "function"
    },
    {
      "inputs": [],
      "name": "symbol",
      "outputs": [
        {
          "internalType": "string",
          "name": "",
          "type": "string"
        }
      ],
      "stateMutability": "view",
      "type": "function"
    },
    {
      "inputs": [
        {
          "internalType": "uint256",
          "name": "tokenId",
          "type": "uint256"
        }
      ],
      "name": "tokenURI",
      "outputs": [
        {
          "internalType": "string",
          "name": "",
          "type": "string"
        }
      ],
      "stateMutability": "view",
      "type": "function"
    },
    {
      "inputs": [
        {
          "internalType": "address",
          "name": "from",
          "type": "address"
        },
        {
          "internalType": "address",
          "name": "to",
          "type": "address"
        },
        {
          "internalType": "uint256",
          "name": "tokenId",
          "type": "uint256"
        }
      ],
      "name": "transferFrom",
      "outputs": [],
      "stateMutability": "nonpayable",
      "type": "function"
    },
    {
      "inputs": [
        {
          "internalType": "string",
          "name": "newBaseTokenURI",
          "type": "string"
        }
      ],
      "name": "setBaseURI",
      "outputs": [],
      "stateMutability": "nonpayable",
      "type": "function"
    },
    {
      "inputs": [],
      "name": "baseURI",
      "outputs": [
        {
          "internalType": "string",
          "name": "",
          "type": "string"
        }
      ],
      "stateMutability": "view",
      "type": "function"
    },
    {
      "inputs": [
        {
          "internalType": "uint256",
          "name": "tokenId",
          "type": "uint256"
        },
        {
          "internalType": "string",
          "name": "_tokenURI",
          "type": "string"
        }
      ],
      "name": "setTokenURI",
      "outputs": [],
      "stateMutability": "nonpayable",
      "type": "function"
    },
    {
      "inputs": [
        {
          "internalType": "uint256",
          "name": "tokenId",
          "type": "uint256"
        }
      ],
      "name": "exists",
      "outputs": [
        {
          "internalType": "bool",
          "name": "",
          "type": "bool"
        }
      ],
      "stateMutability": "view",
      "type": "function"
    },
    {
      "inputs": [
        {
          "internalType": "address",
          "name": "to",
          "type": "address"
        },
        {
          "internalType": "uint256",
          "name": "tokenId",
          "type": "uint256"
        }
      ],
      "name": "mint",
      "outputs": [],
      "stateMutability": "nonpayable",
      "type": "function"
    },
    {
      "inputs": [
        {
          "internalType": "address",
          "name": "to",
          "type": "address"
        },
        {
          "internalType": "uint256",
          "name": "tokenId",
          "type": "uint256"
        },
        {
          "internalType": "bytes",
          "name": "_data",
          "type": "bytes"
        }
      ],
      "name": "safeMint",
      "outputs": [],
      "stateMutability": "nonpayable",
      "type": "function"
    },
    {
      "inputs": [
        {
          "internalType": "address",
          "name": "to",
          "type": "address"
        },
        {
          "internalType": "uint256",
          "name": "tokenId",
          "type": "uint256"
        }
      ],
      "name": "safeMint",
      "outputs": [],
      "stateMutability": "nonpayable",
      "type": "function"
    },
    {
      "inputs": [
        {
          "internalType": "uint256",
          "name": "tokenId",
          "type": "uint256"
        }
      ],
      "name": "burn",
      "outputs": [],
      "stateMutability": "nonpayable",
      "type": "function"
    }
  ],
  "bytecode": "0x60806040523480156200001157600080fd5b506040516200343e3803806200343e833981810160405281019062000037919062000197565b818181600090805190602001906200005192919062000075565b5080600190805190602001906200006a92919062000075565b50505050506200037a565b82805462000083906200029f565b90600052602060002090601f016020900481019282620000a75760008555620000f3565b82601f10620000c257805160ff1916838001178555620000f3565b82800160010185558215620000f3579182015b82811115620000f2578251825591602001919060010190620000d5565b5b50905062000102919062000106565b5090565b5b808211156200012157600081600090555060010162000107565b5090565b60006200013c620001368462000233565b6200020a565b9050828152602081018484840111156200015557600080fd5b6200016284828562000269565b509392505050565b600082601f8301126200017c57600080fd5b81516200018e84826020860162000125565b91505092915050565b60008060408385031215620001ab57600080fd5b600083015167ffffffffffffffff811115620001c657600080fd5b620001d4858286016200016a565b925050602083015167ffffffffffffffff811115620001f257600080fd5b62000200858286016200016a565b9150509250929050565b60006200021662000229565b9050620002248282620002d5565b919050565b6000604051905090565b600067ffffffffffffffff8211156200025157620002506200033a565b5b6200025c8262000369565b9050602081019050919050565b60005b83811015620002895780820151818401526020810190506200026c565b8381111562000299576000848401525b50505050565b60006002820490506001821680620002b857607f821691505b60208210811415620002cf57620002ce6200030b565b5b50919050565b620002e08262000369565b810181811067ffffffffffffffff821117156200030257620003016200033a565b5b80604052505050565b7f4e487b7100000000000000000000000000000000000000000000000000000000600052602260045260246000fd5b7f4e487b7100000000000000000000000000000000000000000000000000000000600052604160045260246000fd5b6000601f19601f8301169050919050565b6130b4806200038a6000396000f3fe608060405234801561001057600080fd5b50600436106101375760003560e01c806355f804b3116100b857806395d89b411161007c57806395d89b4114610348578063a144819414610366578063a22cb46514610382578063b88d4fde1461039e578063c87b56dd146103ba578063e985e9c5146103ea57610137565b806355f804b3146102925780636352211e146102ae5780636c0360eb146102de57806370a08231146102fc5780638832e6e31461032c57610137565b806323b872dd116100ff57806323b872dd146101f257806340c10f191461020e57806342842e0e1461022a57806342966c68146102465780634f558e791461026257610137565b806301ffc9a71461013c57806306fdde031461016c578063081812fc1461018a578063095ea7b3146101ba578063162094c4146101d6575b600080fd5b610156600480360381019061015191906120c8565b61041a565b6040516101639190612567565b60405180910390f35b6101746104fc565b6040516101819190612582565b60405180910390f35b6101a4600480360381019061019f919061215f565b61058e565b6040516101b19190612500565b60405180910390f35b6101d460048036038101906101cf9190612025565b610613565b005b6101f060048036038101906101eb9190612188565b61072b565b005b61020c60048036038101906102079190611f1f565b610739565b005b61022860048036038101906102239190612025565b610799565b005b610244600480360381019061023f9190611f1f565b6107a7565b005b610260600480360381019061025b919061215f565b6107c7565b005b61027c6004803603810190610277919061215f565b6107d3565b6040516102899190612567565b60405180910390f35b6102ac60048036038101906102a7919061211a565b6107e5565b005b6102c860048036038101906102c3919061215f565b6107fb565b6040516102d59190612500565b60405180910390f35b6102e66108ad565b6040516102f39190612582565b60405180910390f35b61031660048036038101906103119190611eba565b6108bc565b60405161032391906127a4565b60405180910390f35b61034660048036038101906103419190612061565b610974565b005b610350610984565b60405161035d9190612582565b60405180910390f35b610380600480360381019061037b9190612025565b610a16565b005b61039c60048036038101906103979190611fe9565b610a24565b005b6103b860048036038101906103b39190611f6e565b610ba5565b005b6103d460048036038101906103cf919061215f565b610c07565b6040516103e19190612582565b60405180910390f35b61040460048036038101906103ff9190611ee3565b610d59565b6040516104119190612567565b60405180910390f35b60007f80ac58cd000000000000000000000000000000000000000000000000000000007bffffffffffffffffffffffffffffffffffffffffffffffffffffffff1916827bffffffffffffffffffffffffffffffffffffffffffffffffffffffff191614806104e557507f5b5e139f000000000000000000000000000000000000000000000000000000007bffffffffffffffffffffffffffffffffffffffffffffffffffffffff1916827bffffffffffffffffffffffffffffffffffffffffffffffffffffffff1916145b806104f557506104f482610ded565b5b9050919050565b60606000805461050b906129fa565b80601f0160208091040260200160405190810160405280929190818152602001828054610537906129fa565b80156105845780601f1061055957610100808354040283529160200191610584565b820191906000526020600020905b81548152906001019060200180831161056757829003601f168201915b5050505050905090565b600061059982610e57565b6105d8576040517f08c379a00000000000000000000000000000000000000000000000000000000081526004016105cf90612704565b60405180910390fd5b6004600083815260200190815260200160002060009054906101000a900473ffffffffffffffffffffffffffffffffffffffff169050919050565b600061061e826107fb565b90508073ffffffffffffffffffffffffffffffffffffffff168373ffffffffffffffffffffffffffffffffffffffff16141561068f576040517f08c379a000000000000000000000000000000000000000000000000000000000815260040161068690612764565b60405180910390fd5b8073ffffffffffffffffffffffffffffffffffffffff166106ae610ec3565b73ffffffffffffffffffffffffffffffffffffffff1614806106dd57506106dc816106d7610ec3565b610d59565b5b61071c576040517f08c379a000000000000000000000000000000000000000000000000000000000815260040161071390612644565b60405180910390fd5b6107268383610ecb565b505050565b6107358282610f84565b5050565b61074a610744610ec3565b82610ff8565b610789576040517f08c379a000000000000000000000000000000000000000000000000000000000815260040161078090612784565b60405180910390fd5b6107948383836110d6565b505050565b6107a38282611332565b5050565b6107c283838360405180602001604052806000815250610ba5565b505050565b6107d081611500565b50565b60006107de82610e57565b9050919050565b8181600791906107f6929190611bce565b505050565b6000806002600084815260200190815260200160002060009054906101000a900473ffffffffffffffffffffffffffffffffffffffff169050600073ffffffffffffffffffffffffffffffffffffffff168173ffffffffffffffffffffffffffffffffffffffff1614156108a4576040517f08c379a000000000000000000000000000000000000000000000000000000000815260040161089b90612684565b60405180910390fd5b80915050919050565b60606108b7611553565b905090565b60008073ffffffffffffffffffffffffffffffffffffffff168273ffffffffffffffffffffffffffffffffffffffff16141561092d576040517f08c379a000000000000000000000000000000000000000000000000000000000815260040161092490612664565b60405180910390fd5b600360008373ffffffffffffffffffffffffffffffffffffffff1673ffffffffffffffffffffffffffffffffffffffff168152602001908152602001600020549050919050565b61097f8383836115e5565b505050565b606060018054610993906129fa565b80601f01602080910402602001604051908101604052809291908181526020018280546109bf906129fa565b8015610a0c5780601f106109e157610100808354040283529160200191610a0c565b820191906000526020600020905b8154815290600101906020018083116109ef57829003601f168201915b5050505050905090565b610a208282611640565b5050565b610a2c610ec3565b73ffffffffffffffffffffffffffffffffffffffff168273ffffffffffffffffffffffffffffffffffffffff161415610a9a576040517f08c379a0000000000000000000000000000000000000000000000000000000008152600401610a9190612604565b60405180910390fd5b8060056000610aa7610ec3565b73ffffffffffffffffffffffffffffffffffffffff1673ffffffffffffffffffffffffffffffffffffffff16815260200190815260200160002060008473ffffffffffffffffffffffffffffffffffffffff1673ffffffffffffffffffffffffffffffffffffffff16815260200190815260200160002060006101000a81548160ff0219169083151502179055508173ffffffffffffffffffffffffffffffffffffffff16610b54610ec3565b73ffffffffffffffffffffffffffffffffffffffff167f17307eab39ab6107e8899845ad3d59bd9653f200f220920489ca2b5937696c3183604051610b999190612567565b60405180910390a35050565b610bb6610bb0610ec3565b83610ff8565b610bf5576040517f08c379a0000000000000000000000000000000000000000000000000000000008152600401610bec90612784565b60405180910390fd5b610c018484848461165e565b50505050565b6060610c1282610e57565b610c51576040517f08c379a0000000000000000000000000000000000000000000000000000000008152600401610c48906126e4565b60405180910390fd5b6000600660008481526020019081526020016000208054610c71906129fa565b80601f0160208091040260200160405190810160405280929190818152602001828054610c9d906129fa565b8015610cea5780601f10610cbf57610100808354040283529160200191610cea565b820191906000526020600020905b815481529060010190602001808311610ccd57829003601f168201915b505050505090506000610cfb611553565b9050600081511415610d11578192505050610d54565b600082511115610d46578082604051602001610d2e9291906124dc565b60405160208183030381529060405292505050610d54565b610d4f846116ba565b925050505b919050565b6000600560008473ffffffffffffffffffffffffffffffffffffffff1673ffffffffffffffffffffffffffffffffffffffff16815260200190815260200160002060008373ffffffffffffffffffffffffffffffffffffffff1673ffffffffffffffffffffffffffffffffffffffff16815260200190815260200160002060009054906101000a900460ff16905092915050565b60007f01ffc9a7000000000000000000000000000000000000000000000000000000007bffffffffffffffffffffffffffffffffffffffffffffffffffffffff1916827bffffffffffffffffffffffffffffffffffffffffffffffffffffffff1916149050919050565b60008073ffffffffffffffffffffffffffffffffffffffff166002600084815260200190815260200160002060009054906101000a900473ffffffffffffffffffffffffffffffffffffffff1673ffffffffffffffffffffffffffffffffffffffff1614159050919050565b600033905090565b816004600083815260200190815260200160002060006101000a81548173ffffffffffffffffffffffffffffffffffffffff021916908373ffffffffffffffffffffffffffffffffffffffff160217905550808273ffffffffffffffffffffffffffffffffffffffff16610f3e836107fb565b73ffffffffffffffffffffffffffffffffffffffff167f8c5be1e5ebec7d5bd14f71427d1e84f3dd0314c0f7b2291e5b200ac8c7c3b92560405160405180910390a45050565b610f8d82610e57565b610fcc576040517f08c379a0000000000000000000000000000000000000000000000000000000008152600401610fc3906126a4565b60405180910390fd5b80600660008481526020019081526020016000209080519060200190610ff3929190611c54565b505050565b600061100382610e57565b611042576040517f08c379a000000000000000000000000000000000000000000000000000000000815260040161103990612624565b60405180910390fd5b600061104d836107fb565b90508073ffffffffffffffffffffffffffffffffffffffff168473ffffffffffffffffffffffffffffffffffffffff1614806110bc57508373ffffffffffffffffffffffffffffffffffffffff166110a48461058e565b73ffffffffffffffffffffffffffffffffffffffff16145b806110cd57506110cc8185610d59565b5b91505092915050565b8273ffffffffffffffffffffffffffffffffffffffff166110f6826107fb565b73ffffffffffffffffffffffffffffffffffffffff161461114c576040517f08c379a000000000000000000000000000000000000000000000000000000000815260040161114390612724565b60405180910390fd5b600073ffffffffffffffffffffffffffffffffffffffff168273ffffffffffffffffffffffffffffffffffffffff1614156111bc576040517f08c379a00000000000000000000000000000000000000000000000000000000081526004016111b3906125e4565b60405180910390fd5b6111c7838383611761565b6111d2600082610ecb565b6001600360008573ffffffffffffffffffffffffffffffffffffffff1673ffffffffffffffffffffffffffffffffffffffff16815260200190815260200160002060008282546112229190612910565b925050819055506001600360008473ffffffffffffffffffffffffffffffffffffffff1673ffffffffffffffffffffffffffffffffffffffff16815260200190815260200160002060008282546112799190612889565b92505081905550816002600083815260200190815260200160002060006101000a81548173ffffffffffffffffffffffffffffffffffffffff021916908373ffffffffffffffffffffffffffffffffffffffff160217905550808273ffffffffffffffffffffffffffffffffffffffff168473ffffffffffffffffffffffffffffffffffffffff167fddf252ad1be2c89b69c2b068fc378daa952ba7f163c4a11628f55a4df523b3ef60405160405180910390a4505050565b600073ffffffffffffffffffffffffffffffffffffffff168273ffffffffffffffffffffffffffffffffffffffff1614156113a2576040517f08c379a0000000000000000000000000000000000000000000000000000000008152600401611399906126c4565b60405180910390fd5b6113ab81610e57565b156113eb576040517f08c379a00000000000000000000000000000000000000000000000000000000081526004016113e2906125c4565b60405180910390fd5b6113f760008383611761565b6001600360008473ffffffffffffffffffffffffffffffffffffffff1673ffffffffffffffffffffffffffffffffffffffff16815260200190815260200160002060008282546114479190612889565b92505081905550816002600083815260200190815260200160002060006101000a81548173ffffffffffffffffffffffffffffffffffffffff021916908373ffffffffffffffffffffffffffffffffffffffff160217905550808273ffffffffffffffffffffffffffffffffffffffff16600073ffffffffffffffffffffffffffffffffffffffff167fddf252ad1be2c89b69c2b068fc378daa952ba7f163c4a11628f55a4df523b3ef60405160405180910390a45050565b61150981611766565b6000600660008381526020019081526020016000208054611529906129fa565b9050146115505760066000828152602001908152602001600020600061154f9190611cda565b5b50565b606060078054611562906129fa565b80601f016020809104026020016040519081016040528092919081815260200182805461158e906129fa565b80156115db5780601f106115b0576101008083540402835291602001916115db565b820191906000526020600020905b8154815290600101906020018083116115be57829003601f168201915b5050505050905090565b6115ef8383611332565b6115fc6000848484611877565b61163b576040517f08c379a0000000000000000000000000000000000000000000000000000000008152600401611632906125a4565b60405180910390fd5b505050565b61165a8282604051806020016040528060008152506115e5565b5050565b6116698484846110d6565b61167584848484611877565b6116b4576040517f08c379a00000000000000000000000000000000000000000000000000000000081526004016116ab906125a4565b60405180910390fd5b50505050565b60606116c582610e57565b611704576040517f08c379a00000000000000000000000000000000000000000000000000000000081526004016116fb90612744565b60405180910390fd5b600061170e611553565b9050600081511161172e5760405180602001604052806000815250611759565b8061173884611a0e565b6040516020016117499291906124dc565b6040516020818303038152906040525b915050919050565b505050565b6000611771826107fb565b905061177f81600084611761565b61178a600083610ecb565b6001600360008373ffffffffffffffffffffffffffffffffffffffff1673ffffffffffffffffffffffffffffffffffffffff16815260200190815260200160002060008282546117da9190612910565b925050819055506002600083815260200190815260200160002060006101000a81549073ffffffffffffffffffffffffffffffffffffffff021916905581600073ffffffffffffffffffffffffffffffffffffffff168273ffffffffffffffffffffffffffffffffffffffff167fddf252ad1be2c89b69c2b068fc378daa952ba7f163c4a11628f55a4df523b3ef60405160405180910390a45050565b60006118988473ffffffffffffffffffffffffffffffffffffffff16611bbb565b15611a01578373ffffffffffffffffffffffffffffffffffffffff1663150b7a026118c1610ec3565b8786866040518563ffffffff1660e01b81526004016118e3949392919061251b565b602060405180830381600087803b1580156118fd57600080fd5b505af192505050801561192e57506040513d601f19601f8201168201806040525081019061192b91906120f1565b60015b6119b1573d806000811461195e576040519150601f19603f3d011682016040523d82523d6000602084013e611963565b606091505b506000815114156119a9576040517f08c379a00000000000000000000000000000000000000000000000000000000081526004016119a0906125a4565b60405180910390fd5b805181602001fd5b63150b7a0260e01b7bffffffffffffffffffffffffffffffffffffffffffffffffffffffff1916817bffffffffffffffffffffffffffffffffffffffffffffffffffffffff191614915050611a06565b600190505b949350505050565b60606000821415611a56576040518060400160405280600181526020017f30000000000000000000000000000000000000000000000000000000000000008152509050611bb6565b600082905060005b60008214611a88578080611a7190612a5d565b915050600a82611a8191906128df565b9150611a5e565b60008167ffffffffffffffff811115611aca577f4e487b7100000000000000000000000000000000000000000000000000000000600052604160045260246000fd5b6040519080825280601f01601f191660200182016040528015611afc5781602001600182028036833780820191505090505b5090505b60008514611baf57600182611b159190612910565b9150600a85611b249190612aa6565b6030611b309190612889565b60f81b818381518110611b6c577f4e487b7100000000000000000000000000000000000000000000000000000000600052603260045260246000fd5b60200101907effffffffffffffffffffffffffffffffffffffffffffffffffffffffffffff1916908160001a905350600a85611ba891906128df565b9450611b00565b8093505050505b919050565b600080823b905060008111915050919050565b828054611bda906129fa565b90600052602060002090601f016020900481019282611bfc5760008555611c43565b82601f10611c1557803560ff1916838001178555611c43565b82800160010185558215611c43579182015b82811115611c42578235825591602001919060010190611c27565b5b509050611c509190611d1a565b5090565b828054611c60906129fa565b90600052602060002090601f016020900481019282611c825760008555611cc9565b82601f10611c9b57805160ff1916838001178555611cc9565b82800160010185558215611cc9579182015b82811115611cc8578251825591602001919060010190611cad565b5b509050611cd69190611d1a565b5090565b508054611ce6906129fa565b6000825580601f10611cf85750611d17565b601f016020900490600052602060002090810190611d169190611d1a565b5b50565b5b80821115611d33576000816000905550600101611d1b565b5090565b6000611d4a611d45846127e4565b6127bf565b905082815260208101848484011115611d6257600080fd5b611d6d8482856129b8565b509392505050565b6000611d88611d8384612815565b6127bf565b905082815260208101848484011115611da057600080fd5b611dab8482856129b8565b509392505050565b600081359050611dc281613022565b92915050565b600081359050611dd781613039565b92915050565b600081359050611dec81613050565b92915050565b600081519050611e0181613050565b92915050565b600082601f830112611e1857600080fd5b8135611e28848260208601611d37565b91505092915050565b60008083601f840112611e4357600080fd5b8235905067ffffffffffffffff811115611e5c57600080fd5b602083019150836001820283011115611e7457600080fd5b9250929050565b600082601f830112611e8c57600080fd5b8135611e9c848260208601611d75565b91505092915050565b600081359050611eb481613067565b92915050565b600060208284031215611ecc57600080fd5b6000611eda84828501611db3565b91505092915050565b60008060408385031215611ef657600080fd5b6000611f0485828601611db3565b9250506020611f1585828601611db3565b9150509250929050565b600080600060608486031215611f3457600080fd5b6000611f4286828701611db3565b9350506020611f5386828701611db3565b9250506040611f6486828701611ea5565b9150509250925092565b60008060008060808587031215611f8457600080fd5b6000611f9287828801611db3565b9450506020611fa387828801611db3565b9350506040611fb487828801611ea5565b925050606085013567ffffffffffffffff811115611fd157600080fd5b611fdd87828801611e07565b91505092959194509250565b60008060408385031215611ffc57600080fd5b600061200a85828601611db3565b925050602061201b85828601611dc8565b9150509250929050565b6000806040838503121561203857600080fd5b600061204685828601611db3565b925050602061205785828601611ea5565b9150509250929050565b60008060006060848603121561207657600080fd5b600061208486828701611db3565b935050602061209586828701611ea5565b925050604084013567ffffffffffffffff8111156120b257600080fd5b6120be86828701611e07565b9150509250925092565b6000602082840312156120da57600080fd5b60006120e884828501611ddd565b91505092915050565b60006020828403121561210357600080fd5b600061211184828501611df2565b91505092915050565b6000806020838503121561212d57600080fd5b600083013567ffffffffffffffff81111561214757600080fd5b61215385828601611e31565b92509250509250929050565b60006020828403121561217157600080fd5b600061217f84828501611ea5565b91505092915050565b6000806040838503121561219b57600080fd5b60006121a985828601611ea5565b925050602083013567ffffffffffffffff8111156121c657600080fd5b6121d285828601611e7b565b9150509250929050565b6121e581612944565b82525050565b6121f481612956565b82525050565b600061220582612846565b61220f818561285c565b935061221f8185602086016129c7565b61222881612b93565b840191505092915050565b600061223e82612851565b612248818561286d565b93506122588185602086016129c7565b61226181612b93565b840191505092915050565b600061227782612851565b612281818561287e565b93506122918185602086016129c7565b80840191505092915050565b60006122aa60328361286d565b91506122b582612ba4565b604082019050919050565b60006122cd601c8361286d565b91506122d882612bf3565b602082019050919050565b60006122f060248361286d565b91506122fb82612c1c565b604082019050919050565b600061231360198361286d565b915061231e82612c6b565b602082019050919050565b6000612336602c8361286d565b915061234182612c94565b604082019050919050565b600061235960388361286d565b915061236482612ce3565b604082019050919050565b600061237c602a8361286d565b915061238782612d32565b604082019050919050565b600061239f60298361286d565b91506123aa82612d81565b604082019050919050565b60006123c2602e8361286d565b91506123cd82612dd0565b604082019050919050565b60006123e560208361286d565b91506123f082612e1f565b602082019050919050565b600061240860318361286d565b915061241382612e48565b604082019050919050565b600061242b602c8361286d565b915061243682612e97565b604082019050919050565b600061244e60298361286d565b915061245982612ee6565b604082019050919050565b6000612471602f8361286d565b915061247c82612f35565b604082019050919050565b600061249460218361286d565b915061249f82612f84565b604082019050919050565b60006124b760318361286d565b91506124c282612fd3565b604082019050919050565b6124d6816129ae565b82525050565b60006124e8828561226c565b91506124f4828461226c565b91508190509392505050565b600060208201905061251560008301846121dc565b92915050565b600060808201905061253060008301876121dc565b61253d60208301866121dc565b61254a60408301856124cd565b818103606083015261255c81846121fa565b905095945050505050565b600060208201905061257c60008301846121eb565b92915050565b6000602082019050818103600083015261259c8184612233565b905092915050565b600060208201905081810360008301526125bd8161229d565b9050919050565b600060208201905081810360008301526125dd816122c0565b9050919050565b600060208201905081810360008301526125fd816122e3565b9050919050565b6000602082019050818103600083015261261d81612306565b9050919050565b6000602082019050818103600083015261263d81612329565b9050919050565b6000602082019050818103600083015261265d8161234c565b9050919050565b6000602082019050818103600083015261267d8161236f565b9050919050565b6000602082019050818103600083015261269d81612392565b9050919050565b600060208201905081810360008301526126bd816123b5565b9050919050565b600060208201905081810360008301526126dd816123d8565b9050919050565b600060208201905081810360008301526126fd816123fb565b9050919050565b6000602082019050818103600083015261271d8161241e565b9050919050565b6000602082019050818103600083015261273d81612441565b9050919050565b6000602082019050818103600083015261275d81612464565b9050919050565b6000602082019050818103600083015261277d81612487565b9050919050565b6000602082019050818103600083015261279d816124aa565b9050919050565b60006020820190506127b960008301846124cd565b92915050565b60006127c96127da565b90506127d58282612a2c565b919050565b6000604051905090565b600067ffffffffffffffff8211156127ff576127fe612b64565b5b61280882612b93565b9050602081019050919050565b600067ffffffffffffffff8211156128305761282f612b64565b5b61283982612b93565b9050602081019050919050565b600081519050919050565b600081519050919050565b600082825260208201905092915050565b600082825260208201905092915050565b600081905092915050565b6000612894826129ae565b915061289f836129ae565b9250827fffffffffffffffffffffffffffffffffffffffffffffffffffffffffffffffff038211156128d4576128d3612ad7565b5b828201905092915050565b60006128ea826129ae565b91506128f5836129ae565b92508261290557612904612b06565b5b828204905092915050565b600061291b826129ae565b9150612926836129ae565b92508282101561293957612938612ad7565b5b828203905092915050565b600061294f8261298e565b9050919050565b60008115159050919050565b60007fffffffff0000000000000000000000000000000000000000000000000000000082169050919050565b600073ffffffffffffffffffffffffffffffffffffffff82169050919050565b6000819050919050565b82818337600083830152505050565b60005b838110156129e55780820151818401526020810190506129ca565b838111156129f4576000848401525b50505050565b60006002820490506001821680612a1257607f821691505b60208210811415612a2657612a25612b35565b5b50919050565b612a3582612b93565b810181811067ffffffffffffffff82111715612a5457612a53612b64565b5b80604052505050565b6000612a68826129ae565b91507fffffffffffffffffffffffffffffffffffffffffffffffffffffffffffffffff821415612a9b57612a9a612ad7565b5b600182019050919050565b6000612ab1826129ae565b9150612abc836129ae565b925082612acc57612acb612b06565b5b828206905092915050565b7f4e487b7100000000000000000000000000000000000000000000000000000000600052601160045260246000fd5b7f4e487b7100000000000000000000000000000000000000000000000000000000600052601260045260246000fd5b7f4e487b7100000000000000000000000000000000000000000000000000000000600052602260045260246000fd5b7f4e487b7100000000000000000000000000000000000000000000000000000000600052604160045260246000fd5b6000601f19601f8301169050919050565b7f4552433732313a207472616e7366657220746f206e6f6e20455243373231526560008201527f63656976657220696d706c656d656e7465720000000000000000000000000000602082015250565b7f4552433732313a20746f6b656e20616c7265616479206d696e74656400000000600082015250565b7f4552433732313a207472616e7366657220746f20746865207a65726f2061646460008201527f7265737300000000000000000000000000000000000000000000000000000000602082015250565b7f4552433732313a20617070726f766520746f2063616c6c657200000000000000600082015250565b7f4552433732313a206f70657261746f7220717565727920666f72206e6f6e657860008201527f697374656e7420746f6b656e0000000000000000000000000000000000000000602082015250565b7f4552433732313a20617070726f76652063616c6c6572206973206e6f74206f7760008201527f6e6572206e6f7220617070726f76656420666f7220616c6c0000000000000000602082015250565b7f4552433732313a2062616c616e636520717565727920666f7220746865207a6560008201527f726f206164647265737300000000000000000000000000000000000000000000602082015250565b7f4552433732313a206f776e657220717565727920666f72206e6f6e657869737460008201527f656e7420746f6b656e0000000000000000000000000000000000000000000000602082015250565b7f45524337323155524953746f726167653a2055524920736574206f66206e6f6e60008201527f6578697374656e7420746f6b656e000000000000000000000000000000000000602082015250565b7f4552433732313a206d696e7420746f20746865207a65726f2061646472657373600082015250565b7f45524337323155524953746f726167653a2055524920717565727920666f722060008201527f6e6f6e6578697374656e7420746f6b656e000000000000000000000000000000602082015250565b7f4552433732313a20617070726f76656420717565727920666f72206e6f6e657860008201527f697374656e7420746f6b656e0000000000000000000000000000000000000000602082015250565b7f4552433732313a207472616e73666572206f6620746f6b656e2074686174206960008201527f73206e6f74206f776e0000000000000000000000000000000000000000000000602082015250565b7f4552433732314d657461646174613a2055524920717565727920666f72206e6f60008201527f6e6578697374656e7420746f6b656e0000000000000000000000000000000000602082015250565b7f4552433732313a20617070726f76616c20746f2063757272656e74206f776e6560008201527f7200000000000000000000000000000000000000000000000000000000000000602082015250565b7f4552433732313a207472616e736665722063616c6c6572206973206e6f74206f60008201527f776e6572206e6f7220617070726f766564000000000000000000000000000000602082015250565b61302b81612944565b811461303657600080fd5b50565b61304281612956565b811461304d57600080fd5b50565b61305981612962565b811461306457600080fd5b50565b613070816129ae565b811461307b57600080fd5b5056fea2646970667358221220491108890cabf022a66e4bae171006f7572c3f748f07acaa695864d31d5774b764736f6c63430008020033",
  "immutableReferences": {},
  "source": "// SPDX-License-Identifier: MIT\n\npragma solidity ^0.8.0;\n\nimport \"../token/ERC721/extensions/ERC721URIStorage.sol\";\n\n/**\n * @title ERC721Mock\n * This mock just provides a public safeMint, mint, and burn functions for testing purposes\n */\ncontract ERC721URIStorageMock is ERC721URIStorage {\n    string private _baseTokenURI;\n\n    constructor (string memory name, string memory symbol) ERC721(name, symbol) { }\n\n    function _baseURI() internal view virtual override returns (string memory) {\n        return _baseTokenURI;\n    }\n\n    function setBaseURI(string calldata newBaseTokenURI) public {\n        _baseTokenURI = newBaseTokenURI;\n    }\n\n    function baseURI() public view returns (string memory) {\n        return _baseURI();\n    }\n\n    function setTokenURI(uint256 tokenId, string memory _tokenURI) public {\n        _setTokenURI(tokenId, _tokenURI);\n    }\n\n    function exists(uint256 tokenId) public view returns (bool) {\n        return _exists(tokenId);\n    }\n\n    function mint(address to, uint256 tokenId) public {\n        _mint(to, tokenId);\n    }\n\n    function safeMint(address to, uint256 tokenId) public {\n        _safeMint(to, tokenId);\n    }\n\n    function safeMint(address to, uint256 tokenId, bytes memory _data) public {\n        _safeMint(to, tokenId, _data);\n    }\n\n    function burn(uint256 tokenId) public {\n        _burn(tokenId);\n    }\n}\n",
  "sourcePath": "/home/semiott/Apps/eth-apps/EddyNet/core/contracts/external/contracts/mocks/ERC721URIStorageMock.sol",
  "compiler": {
    "name": "solc",
    "version": "0.8.2+commit.661d1103.Emscripten.clang"
  },
  "schemaVersion": "3.3.4",
  "updatedAt": "2021-03-21T17:16:14.481Z",
  "devdoc": {
    "kind": "dev",
    "methods": {
      "approve(address,uint256)": {
        "details": "See {IERC721-approve}."
      },
      "balanceOf(address)": {
        "details": "See {IERC721-balanceOf}."
      },
      "getApproved(uint256)": {
        "details": "See {IERC721-getApproved}."
      },
      "isApprovedForAll(address,address)": {
        "details": "See {IERC721-isApprovedForAll}."
      },
      "name()": {
        "details": "See {IERC721Metadata-name}."
      },
      "ownerOf(uint256)": {
        "details": "See {IERC721-ownerOf}."
      },
      "safeTransferFrom(address,address,uint256)": {
        "details": "See {IERC721-safeTransferFrom}."
      },
      "safeTransferFrom(address,address,uint256,bytes)": {
        "details": "See {IERC721-safeTransferFrom}."
      },
      "setApprovalForAll(address,bool)": {
        "details": "See {IERC721-setApprovalForAll}."
      },
      "supportsInterface(bytes4)": {
        "details": "See {IERC165-supportsInterface}."
      },
      "symbol()": {
        "details": "See {IERC721Metadata-symbol}."
      },
      "tokenURI(uint256)": {
        "details": "See {IERC721Metadata-tokenURI}."
      },
      "transferFrom(address,address,uint256)": {
        "details": "See {IERC721-transferFrom}."
      }
    },
    "title": "ERC721Mock This mock just provides a public safeMint, mint, and burn functions for testing purposes",
    "version": 1
  },
  "userdoc": {
    "kind": "user",
    "methods": {},
    "version": 1
  }
}