{
  "contractName": "Implementation3",
  "abi": [
    {
      "inputs": [],
      "name": "initialize",
      "outputs": [],
      "stateMutability": "nonpayable",
      "type": "function"
    },
    {
      "inputs": [
        {
          "internalType": "uint256",
          "name": "_number",
          "type": "uint256"
        }
      ],
      "name": "setValue",
      "outputs": [],
      "stateMutability": "nonpayable",
      "type": "function"
    },
    {
      "inputs": [
        {
          "internalType": "uint256",
          "name": "_number",
          "type": "uint256"
        }
      ],
      "name": "getValue",
      "outputs": [
        {
          "internalType": "uint256",
          "name": "",
          "type": "uint256"
        }
      ],
      "stateMutability": "view",
      "type": "function"
    }
  ],
  "bytecode": "0x608060405234801561001057600080fd5b5061037d806100206000396000f3fe608060405234801561001057600080fd5b50600436106100415760003560e01c80630ff4c9161461004657806355241077146100765780638129fc1c14610092575b600080fd5b610060600480360381019061005b91906101ab565b61009c565b60405161006d9190610226565b60405180910390f35b610090600480360381019061008b91906101ab565b6100b3565b005b61009a6100bd565b005b6000816001546100ac9190610252565b9050919050565b8060018190555050565b600060019054906101000a900460ff16806100e3575060008054906101000a900460ff16155b610122576040517f08c379a000000000000000000000000000000000000000000000000000000000815260040161011990610206565b60405180910390fd5b60008060019054906101000a900460ff161590508015610172576001600060016101000a81548160ff02191690831515021790555060016000806101000a81548160ff0219169083151502179055505b80156101935760008060016101000a81548160ff0219169083151502179055505b50565b6000813590506101a581610330565b92915050565b6000602082840312156101bd57600080fd5b60006101cb84828501610196565b91505092915050565b60006101e1602e83610241565b91506101ec826102e1565b604082019050919050565b610200816102a8565b82525050565b6000602082019050818103600083015261021f816101d4565b9050919050565b600060208201905061023b60008301846101f7565b92915050565b600082825260208201905092915050565b600061025d826102a8565b9150610268836102a8565b9250827fffffffffffffffffffffffffffffffffffffffffffffffffffffffffffffffff0382111561029d5761029c6102b2565b5b828201905092915050565b6000819050919050565b7f4e487b7100000000000000000000000000000000000000000000000000000000600052601160045260246000fd5b7f496e697469616c697a61626c653a20636f6e747261637420697320616c72656160008201527f647920696e697469616c697a6564000000000000000000000000000000000000602082015250565b610339816102a8565b811461034457600080fd5b5056fea26469706673582212202ef9d8bae98451d6e7ee6e7bdebc21a23bcfbb2765c87c0568d01236d03d814d64736f6c63430008020033",
  "immutableReferences": {},
  "source": "// SPDX-License-Identifier: MIT\n\npragma solidity ^0.8.0;\n\nimport \"../proxy/utils/Initializable.sol\";\n\ncontract Implementation1 is Initializable {\n  uint internal _value;\n\n  function initialize() public initializer {\n  }\n\n  function setValue(uint _number) public {\n    _value = _number;\n  }\n}\n\ncontract Implementation2 is Initializable {\n  uint internal _value;\n\n  function initialize() public initializer {\n  }\n\n  function setValue(uint _number) public {\n    _value = _number;\n  }\n\n  function getValue() public view returns (uint) {\n    return _value;\n  }\n}\n\ncontract Implementation3 is Initializable {\n  uint internal _value;\n\n  function initialize() public initializer {\n  }\n\n  function setValue(uint _number) public {\n    _value = _number;\n  }\n\n  function getValue(uint _number) public view returns (uint) {\n    return _value + _number;\n  }\n}\n\ncontract Implementation4 is Initializable {\n  uint internal _value;\n\n  function initialize() public initializer {\n  }\n\n  function setValue(uint _number) public {\n    _value = _number;\n  }\n\n  function getValue() public view returns (uint) {\n    return _value;\n  }\n\n  // solhint-disable-next-line payable-fallback\n  fallback() external {\n    _value = 1;\n  }\n}\n",
  "sourcePath": "/home/semiott/Apps/eth-apps/EddyNet/core/contracts/external/contracts/mocks/RegressionImplementation.sol",
  "compiler": {
    "name": "solc",
    "version": "0.8.2+commit.661d1103.Emscripten.clang"
  },
  "schemaVersion": "3.3.4",
  "updatedAt": "2021-03-21T17:16:14.528Z",
  "devdoc": {
    "kind": "dev",
    "methods": {},
    "version": 1
  },
  "userdoc": {
    "kind": "user",
    "methods": {},
    "version": 1
  }
}