{
  "contractName": "InitializableMock",
  "abi": [
    {
      "inputs": [],
      "name": "initializerRan",
      "outputs": [
        {
          "internalType": "bool",
          "name": "",
          "type": "bool"
        }
      ],
      "stateMutability": "view",
      "type": "function"
    },
    {
      "inputs": [],
      "name": "x",
      "outputs": [
        {
          "internalType": "uint256",
          "name": "",
          "type": "uint256"
        }
      ],
      "stateMutability": "view",
      "type": "function"
    },
    {
      "inputs": [],
      "name": "initialize",
      "outputs": [],
      "stateMutability": "nonpayable",
      "type": "function"
    },
    {
      "inputs": [],
      "name": "initializeNested",
      "outputs": [],
      "stateMutability": "nonpayable",
      "type": "function"
    },
    {
      "inputs": [
        {
          "internalType": "uint256",
          "name": "_x",
          "type": "uint256"
        }
      ],
      "name": "initializeWithX",
      "outputs": [],
      "stateMutability": "payable",
      "type": "function"
    },
    {
      "inputs": [
        {
          "internalType": "uint256",
          "name": "_x",
          "type": "uint256"
        }
      ],
      "name": "nonInitializable",
      "outputs": [],
      "stateMutability": "payable",
      "type": "function"
    },
    {
      "inputs": [],
      "name": "fail",
      "outputs": [],
      "stateMutability": "pure",
      "type": "function"
    }
  ],
  "bytecode": "0x608060405234801561001057600080fd5b50610667806100206000396000f3fe60806040526004361061006f5760003560e01c8063a9cc47181161004e578063a9cc4718146100d2578063c3b8ef2a146100e9578063cb3a528d14610114578063e955c9ec1461012b5761006f565b806218eaa8146100745780630c55699c146100905780638129fc1c146100bb575b600080fd5b61008e60048036038101906100899190610478565b610147565b005b34801561009c57600080fd5b506100a5610228565b6040516100b29190610560565b60405180910390f35b3480156100c757600080fd5b506100d061022e565b005b3480156100de57600080fd5b506100e7610322565b005b3480156100f557600080fd5b506100fe610365565b60405161010b9190610505565b60405180910390f35b34801561012057600080fd5b50610129610378565b005b61014560048036038101906101409190610478565b610459565b005b600060019054906101000a900460ff168061016d575060008054906101000a900460ff16155b6101ac576040517f08c379a00000000000000000000000000000000000000000000000000000000081526004016101a390610540565b60405180910390fd5b60008060019054906101000a900460ff1615905080156101fc576001600060016101000a81548160ff02191690831515021790555060016000806101000a81548160ff0219169083151502179055505b8160018190555080156102245760008060016101000a81548160ff0219169083151502179055505b5050565b60015481565b600060019054906101000a900460ff1680610254575060008054906101000a900460ff16155b610293576040517f08c379a000000000000000000000000000000000000000000000000000000000815260040161028a90610540565b60405180910390fd5b60008060019054906101000a900460ff1615905080156102e3576001600060016101000a81548160ff02191690831515021790555060016000806101000a81548160ff0219169083151502179055505b6001600060026101000a81548160ff021916908315150217905550801561031f5760008060016101000a81548160ff0219169083151502179055505b50565b6000610363576040517f08c379a000000000000000000000000000000000000000000000000000000000815260040161035a90610520565b60405180910390fd5b565b600060029054906101000a900460ff1681565b600060019054906101000a900460ff168061039e575060008054906101000a900460ff16155b6103dd576040517f08c379a00000000000000000000000000000000000000000000000000000000081526004016103d490610540565b60405180910390fd5b60008060019054906101000a900460ff16159050801561042d576001600060016101000a81548160ff02191690831515021790555060016000806101000a81548160ff0219169083151502179055505b61043561022e565b80156104565760008060016101000a81548160ff0219169083151502179055505b50565b8060018190555050565b6000813590506104728161061a565b92915050565b60006020828403121561048a57600080fd5b600061049884828501610463565b91505092915050565b6104aa8161058c565b82525050565b60006104bd60208361057b565b91506104c8826105a2565b602082019050919050565b60006104e0602e8361057b565b91506104eb826105cb565b604082019050919050565b6104ff81610598565b82525050565b600060208201905061051a60008301846104a1565b92915050565b60006020820190508181036000830152610539816104b0565b9050919050565b60006020820190508181036000830152610559816104d3565b9050919050565b600060208201905061057560008301846104f6565b92915050565b600082825260208201905092915050565b60008115159050919050565b6000819050919050565b7f496e697469616c697a61626c654d6f636b20666f72636564206661696c757265600082015250565b7f496e697469616c697a61626c653a20636f6e747261637420697320616c72656160008201527f647920696e697469616c697a6564000000000000000000000000000000000000602082015250565b61062381610598565b811461062e57600080fd5b5056fea264697066735822122089f8489c2a4e1e2082cd6e42eb92558ff00744d151f47193ea916d138193d8e964736f6c63430008020033",
  "immutableReferences": {},
  "source": "// SPDX-License-Identifier: MIT\n\npragma solidity ^0.8.0;\n\nimport \"../proxy/utils/Initializable.sol\";\n\n/**\n * @title InitializableMock\n * @dev This contract is a mock to test initializable functionality\n */\ncontract InitializableMock is Initializable {\n\n  bool public initializerRan;\n  uint256 public x;\n\n  function initialize() public initializer {\n    initializerRan = true;\n  }\n\n  function initializeNested() public initializer {\n    initialize();\n  }\n\n  function initializeWithX(uint256 _x) public payable initializer {\n    x = _x;\n  }\n\n  function nonInitializable(uint256 _x) public payable {\n    x = _x;\n  }\n\n  function fail() public pure {\n    require(false, \"InitializableMock forced failure\");\n  }\n\n}\n",
  "sourcePath": "/home/semiott/Apps/eth-apps/EddyNet/core/contracts/external/contracts/mocks/InitializableMock.sol",
  "compiler": {
    "name": "solc",
    "version": "0.8.2+commit.661d1103.Emscripten.clang"
  },
  "schemaVersion": "3.3.4",
  "updatedAt": "2021-03-21T17:16:14.510Z",
  "devdoc": {
    "details": "This contract is a mock to test initializable functionality",
    "kind": "dev",
    "methods": {},
    "title": "InitializableMock",
    "version": 1
  },
  "userdoc": {
    "kind": "user",
    "methods": {},
    "version": 1
  }
}