{
  "contractName": "SafeCastMock",
  "abi": [
    {
      "inputs": [
        {
          "internalType": "int256",
          "name": "a",
          "type": "int256"
        }
      ],
      "name": "toUint256",
      "outputs": [
        {
          "internalType": "uint256",
          "name": "",
          "type": "uint256"
        }
      ],
      "stateMutability": "pure",
      "type": "function"
    },
    {
      "inputs": [
        {
          "internalType": "uint256",
          "name": "a",
          "type": "uint256"
        }
      ],
      "name": "toInt256",
      "outputs": [
        {
          "internalType": "int256",
          "name": "",
          "type": "int256"
        }
      ],
      "stateMutability": "pure",
      "type": "function"
    },
    {
      "inputs": [
        {
          "internalType": "uint256",
          "name": "a",
          "type": "uint256"
        }
      ],
      "name": "toUint128",
      "outputs": [
        {
          "internalType": "uint128",
          "name": "",
          "type": "uint128"
        }
      ],
      "stateMutability": "pure",
      "type": "function"
    },
    {
      "inputs": [
        {
          "internalType": "uint256",
          "name": "a",
          "type": "uint256"
        }
      ],
      "name": "toUint64",
      "outputs": [
        {
          "internalType": "uint64",
          "name": "",
          "type": "uint64"
        }
      ],
      "stateMutability": "pure",
      "type": "function"
    },
    {
      "inputs": [
        {
          "internalType": "uint256",
          "name": "a",
          "type": "uint256"
        }
      ],
      "name": "toUint32",
      "outputs": [
        {
          "internalType": "uint32",
          "name": "",
          "type": "uint32"
        }
      ],
      "stateMutability": "pure",
      "type": "function"
    },
    {
      "inputs": [
        {
          "internalType": "uint256",
          "name": "a",
          "type": "uint256"
        }
      ],
      "name": "toUint16",
      "outputs": [
        {
          "internalType": "uint16",
          "name": "",
          "type": "uint16"
        }
      ],
      "stateMutability": "pure",
      "type": "function"
    },
    {
      "inputs": [
        {
          "internalType": "uint256",
          "name": "a",
          "type": "uint256"
        }
      ],
      "name": "toUint8",
      "outputs": [
        {
          "internalType": "uint8",
          "name": "",
          "type": "uint8"
        }
      ],
      "stateMutability": "pure",
      "type": "function"
    },
    {
      "inputs": [
        {
          "internalType": "int256",
          "name": "a",
          "type": "int256"
        }
      ],
      "name": "toInt128",
      "outputs": [
        {
          "internalType": "int128",
          "name": "",
          "type": "int128"
        }
      ],
      "stateMutability": "pure",
      "type": "function"
    },
    {
      "inputs": [
        {
          "internalType": "int256",
          "name": "a",
          "type": "int256"
        }
      ],
      "name": "toInt64",
      "outputs": [
        {
          "internalType": "int64",
          "name": "",
          "type": "int64"
        }
      ],
      "stateMutability": "pure",
      "type": "function"
    },
    {
      "inputs": [
        {
          "internalType": "int256",
          "name": "a",
          "type": "int256"
        }
      ],
      "name": "toInt32",
      "outputs": [
        {
          "internalType": "int32",
          "name": "",
          "type": "int32"
        }
      ],
      "stateMutability": "pure",
      "type": "function"
    },
    {
      "inputs": [
        {
          "internalType": "int256",
          "name": "a",
          "type": "int256"
        }
      ],
      "name": "toInt16",
      "outputs": [
        {
          "internalType": "int16",
          "name": "",
          "type": "int16"
        }
      ],
      "stateMutability": "pure",
      "type": "function"
    },
    {
      "inputs": [
        {
          "internalType": "int256",
          "name": "a",
          "type": "int256"
        }
      ],
      "name": "toInt8",
      "outputs": [
        {
          "internalType": "int8",
          "name": "",
          "type": "int8"
        }
      ],
      "stateMutability": "pure",
      "type": "function"
    }
  ],
  "bytecode": "0x608060405234801561001057600080fd5b50611012806100206000396000f3fe608060405234801561001057600080fd5b50600436106100b45760003560e01c8063cf65b4d311610071578063cf65b4d3146101d9578063d6bd32aa14610209578063dd2a031614610239578063dfbe873b14610269578063f136dc0214610299578063fdcf791b146102c9576100b4565b80630cc4681e146100b95780632665fad0146100e9578063809fdd33146101195780639374068f146101495780639c6f59be14610179578063c8193255146101a9575b600080fd5b6100d360048036038101906100ce91906108f4565b6102f9565b6040516100e09190610ccf565b60405180910390f35b61010360048036038101906100fe91906108f4565b61030b565b6040516101109190610cb4565b60405180910390f35b610133600480360381019061012e91906108f4565b61031d565b6040516101409190610c48565b60405180910390f35b610163600480360381019061015e91906108f4565b61032f565b6040516101709190610c63565b60405180910390f35b610193600480360381019061018e91906108cb565b610341565b6040516101a09190610b17565b60405180910390f35b6101c360048036038101906101be91906108f4565b610353565b6040516101d09190610c99565b60405180910390f35b6101f360048036038101906101ee91906108cb565b610365565b6040516102009190610ae1565b60405180910390f35b610223600480360381019061021e91906108cb565b610377565b6040516102309190610b32565b60405180910390f35b610253600480360381019061024e91906108cb565b610389565b6040516102609190610ac6565b60405180910390f35b610283600480360381019061027e91906108f4565b61039b565b6040516102909190610afc565b60405180910390f35b6102b360048036038101906102ae91906108cb565b6103ad565b6040516102c09190610b4d565b60405180910390f35b6102e360048036038101906102de91906108cb565b6103bf565b6040516102f09190610c7e565b60405180910390f35b6000610304826103d1565b9050919050565b60006103168261041f565b9050919050565b600061032882610474565b9050919050565b600061033a826104d1565b9050919050565b600061034c82610520565b9050919050565b600061035e8261059c565b9050919050565b6000610370826105ed565b9050919050565b600061038282610667565b9050919050565b6000610394826106e7565b9050919050565b60006103a68261076f565b9050919050565b60006103b8826107db565b9050919050565b60006103ca82610854565b9050919050565b60006101008210610417576040517f08c379a000000000000000000000000000000000000000000000000000000000815260040161040e90610b88565b60405180910390fd5b819050919050565b600068010000000000000000821061046c576040517f08c379a000000000000000000000000000000000000000000000000000000000815260040161046390610be8565b60405180910390fd5b819050919050565b600070010000000000000000000000000000000082106104c9576040517f08c379a00000000000000000000000000000000000000000000000000000000081526004016104c090610ba8565b60405180910390fd5b819050919050565b6000620100008210610518576040517f08c379a000000000000000000000000000000000000000000000000000000000815260040161050f90610b68565b60405180910390fd5b819050919050565b60007fffffffffffffffffffffffffffffffffffffffffffffffffffffffff8000000082121580156105555750638000000082125b610594576040517f08c379a000000000000000000000000000000000000000000000000000000000815260040161058b90610c08565b60405180910390fd5b819050919050565b600064010000000082106105e5576040517f08c379a00000000000000000000000000000000000000000000000000000000081526004016105dc90610c08565b60405180910390fd5b819050919050565b60007fffffffffffffffffffffffffffffffffffffffffffffffffffffffffffff80008212158015610620575061800082125b61065f576040517f08c379a000000000000000000000000000000000000000000000000000000000815260040161065690610b68565b60405180910390fd5b819050919050565b60007fffffffffffffffffffffffffffffffffffffffffffffffff800000000000000082121580156106a0575067800000000000000082125b6106df576040517f08c379a00000000000000000000000000000000000000000000000000000000081526004016106d690610be8565b60405180910390fd5b819050919050565b60007fffffffffffffffffffffffffffffffff80000000000000000000000000000000821215801561072857506f8000000000000000000000000000000082125b610767576040517f08c379a000000000000000000000000000000000000000000000000000000000815260040161075e90610ba8565b60405180910390fd5b819050919050565b60007f800000000000000000000000000000000000000000000000000000000000000082106107d3576040517f08c379a00000000000000000000000000000000000000000000000000000000081526004016107ca90610c28565b60405180910390fd5b819050919050565b60007fffffffffffffffffffffffffffffffffffffffffffffffffffffffffffffff80821215801561080d5750608082125b61084c576040517f08c379a000000000000000000000000000000000000000000000000000000000815260040161084390610b88565b60405180910390fd5b819050919050565b600080821215610899576040517f08c379a000000000000000000000000000000000000000000000000000000000815260040161089090610bc8565b60405180910390fd5b819050919050565b6000813590506108b081610fae565b92915050565b6000813590506108c581610fc5565b92915050565b6000602082840312156108dd57600080fd5b60006108eb848285016108a1565b91505092915050565b60006020828403121561090657600080fd5b6000610914848285016108b6565b91505092915050565b61092681610cfb565b82525050565b61093581610d08565b82525050565b61094481610d15565b82525050565b61095381610d1f565b82525050565b61096281610d2c565b82525050565b61097181610d39565b82525050565b6000610984602683610cea565b915061098f82610dab565b604082019050919050565b60006109a7602583610cea565b91506109b282610dfa565b604082019050919050565b60006109ca602783610cea565b91506109d582610e49565b604082019050919050565b60006109ed602083610cea565b91506109f882610e98565b602082019050919050565b6000610a10602683610cea565b9150610a1b82610ec1565b604082019050919050565b6000610a33602683610cea565b9150610a3e82610f10565b604082019050919050565b6000610a56602883610cea565b9150610a6182610f5f565b604082019050919050565b610a7581610d46565b82525050565b610a8481610d62565b82525050565b610a9381610d70565b82525050565b610aa281610d7a565b82525050565b610ab181610d8a565b82525050565b610ac081610d9e565b82525050565b6000602082019050610adb600083018461091d565b92915050565b6000602082019050610af6600083018461092c565b92915050565b6000602082019050610b11600083018461093b565b92915050565b6000602082019050610b2c600083018461094a565b92915050565b6000602082019050610b476000830184610959565b92915050565b6000602082019050610b626000830184610968565b92915050565b60006020820190508181036000830152610b8181610977565b9050919050565b60006020820190508181036000830152610ba18161099a565b9050919050565b60006020820190508181036000830152610bc1816109bd565b9050919050565b60006020820190508181036000830152610be1816109e0565b9050919050565b60006020820190508181036000830152610c0181610a03565b9050919050565b60006020820190508181036000830152610c2181610a26565b9050919050565b60006020820190508181036000830152610c4181610a49565b9050919050565b6000602082019050610c5d6000830184610a6c565b92915050565b6000602082019050610c786000830184610a7b565b92915050565b6000602082019050610c936000830184610a8a565b92915050565b6000602082019050610cae6000830184610a99565b92915050565b6000602082019050610cc96000830184610aa8565b92915050565b6000602082019050610ce46000830184610ab7565b92915050565b600082825260208201905092915050565b600081600f0b9050919050565b60008160010b9050919050565b6000819050919050565b60008160030b9050919050565b60008160070b9050919050565b60008160000b9050919050565b60006fffffffffffffffffffffffffffffffff82169050919050565b600061ffff82169050919050565b6000819050919050565b600063ffffffff82169050919050565b600067ffffffffffffffff82169050919050565b600060ff82169050919050565b7f53616665436173743a2076616c756520646f65736e27742066697420696e203160008201527f3620626974730000000000000000000000000000000000000000000000000000602082015250565b7f53616665436173743a2076616c756520646f65736e27742066697420696e203860008201527f2062697473000000000000000000000000000000000000000000000000000000602082015250565b7f53616665436173743a2076616c756520646f65736e27742066697420696e203160008201527f3238206269747300000000000000000000000000000000000000000000000000602082015250565b7f53616665436173743a2076616c7565206d75737420626520706f736974697665600082015250565b7f53616665436173743a2076616c756520646f65736e27742066697420696e203660008201527f3420626974730000000000000000000000000000000000000000000000000000602082015250565b7f53616665436173743a2076616c756520646f65736e27742066697420696e203360008201527f3220626974730000000000000000000000000000000000000000000000000000602082015250565b7f53616665436173743a2076616c756520646f65736e27742066697420696e206160008201527f6e20696e74323536000000000000000000000000000000000000000000000000602082015250565b610fb781610d15565b8114610fc257600080fd5b50565b610fce81610d70565b8114610fd957600080fd5b5056fea2646970667358221220cc0eccb3ac5d3579537c5644aa862367bfbc378419ec4e8324db1a9f847549ed64736f6c63430008020033",
  "immutableReferences": {},
  "source": "// SPDX-License-Identifier: MIT\n\npragma solidity ^0.8.0;\n\nimport \"../utils/math/SafeCast.sol\";\n\ncontract SafeCastMock {\n    using SafeCast for uint;\n    using SafeCast for int;\n\n    function toUint256(int a) public pure returns (uint256) {\n        return a.toUint256();\n    }\n\n    function toInt256(uint a) public pure returns (int256) {\n        return a.toInt256();\n    }\n\n    function toUint128(uint a) public pure returns (uint128) {\n        return a.toUint128();\n    }\n\n    function toUint64(uint a) public pure returns (uint64) {\n        return a.toUint64();\n    }\n\n    function toUint32(uint a) public pure returns (uint32) {\n        return a.toUint32();\n    }\n\n    function toUint16(uint a) public pure returns (uint16) {\n        return a.toUint16();\n    }\n\n    function toUint8(uint a) public pure returns (uint8) {\n        return a.toUint8();\n    }\n\n    function toInt128(int a) public pure returns (int128) {\n        return a.toInt128();\n    }\n\n    function toInt64(int a) public pure returns (int64) {\n        return a.toInt64();\n    }\n\n    function toInt32(int a) public pure returns (int32) {\n        return a.toInt32();\n    }\n\n    function toInt16(int a) public pure returns (int16) {\n        return a.toInt16();\n    }\n\n    function toInt8(int a) public pure returns (int8) {\n        return a.toInt8();\n    }\n}\n",
  "sourcePath": "/home/semiott/Apps/eth-apps/EddyNet/core/contracts/external/contracts/mocks/SafeCastMock.sol",
  "compiler": {
    "name": "solc",
    "version": "0.8.2+commit.661d1103.Emscripten.clang"
  },
  "schemaVersion": "3.3.4",
  "updatedAt": "2021-03-21T17:16:14.531Z",
  "devdoc": {
    "kind": "dev",
    "methods": {},
    "version": 1
  },
  "userdoc": {
    "kind": "user",
    "methods": {},
    "version": 1
  }
}