{
  "contractName": "ZSC",
  "abi": [
    {
      "inputs": [
        {
          "internalType": "address",
          "name": "_edToken",
          "type": "address"
        },
        {
          "internalType": "address",
          "name": "_zether",
          "type": "address"
        },
        {
          "internalType": "address",
          "name": "_burn",
          "type": "address"
        },
        {
          "internalType": "uint256",
          "name": "_epochLength",
          "type": "uint256"
        }
      ],
      "stateMutability": "nonpayable",
      "type": "constructor"
    },
    {
      "anonymous": false,
      "inputs": [
        {
          "components": [
            {
              "internalType": "bytes32",
              "name": "x",
              "type": "bytes32"
            },
            {
              "internalType": "bytes32",
              "name": "y",
              "type": "bytes32"
            }
          ],
          "indexed": false,
          "internalType": "struct Utils.G1Point[]",
          "name": "parties",
          "type": "tuple[]"
        },
        {
          "components": [
            {
              "internalType": "bytes32",
              "name": "x",
              "type": "bytes32"
            },
            {
              "internalType": "bytes32",
              "name": "y",
              "type": "bytes32"
            }
          ],
          "indexed": false,
          "internalType": "struct Utils.G1Point",
          "name": "beneficiary",
          "type": "tuple"
        }
      ],
      "name": "TransferOccurred",
      "type": "event"
    },
    {
      "inputs": [],
      "name": "epochLength",
      "outputs": [
        {
          "internalType": "uint256",
          "name": "",
          "type": "uint256"
        }
      ],
      "stateMutability": "view",
      "type": "function"
    },
    {
      "inputs": [],
      "name": "fee",
      "outputs": [
        {
          "internalType": "uint256",
          "name": "",
          "type": "uint256"
        }
      ],
      "stateMutability": "view",
      "type": "function"
    },
    {
      "inputs": [
        {
          "components": [
            {
              "internalType": "bytes32",
              "name": "x",
              "type": "bytes32"
            },
            {
              "internalType": "bytes32",
              "name": "y",
              "type": "bytes32"
            }
          ],
          "internalType": "struct Utils.G1Point[]",
          "name": "y",
          "type": "tuple[]"
        },
        {
          "internalType": "uint256",
          "name": "epoch",
          "type": "uint256"
        }
      ],
      "name": "simulateAccounts",
      "outputs": [
        {
          "components": [
            {
              "internalType": "bytes32",
              "name": "x",
              "type": "bytes32"
            },
            {
              "internalType": "bytes32",
              "name": "y",
              "type": "bytes32"
            }
          ],
          "internalType": "struct Utils.G1Point[2][]",
          "name": "accounts",
          "type": "tuple[2][]"
        }
      ],
      "stateMutability": "view",
      "type": "function"
    },
    {
      "inputs": [
        {
          "components": [
            {
              "internalType": "bytes32",
              "name": "x",
              "type": "bytes32"
            },
            {
              "internalType": "bytes32",
              "name": "y",
              "type": "bytes32"
            }
          ],
          "internalType": "struct Utils.G1Point",
          "name": "y",
          "type": "tuple"
        },
        {
          "internalType": "uint256",
          "name": "c",
          "type": "uint256"
        },
        {
          "internalType": "uint256",
          "name": "s",
          "type": "uint256"
        }
      ],
      "name": "register",
      "outputs": [],
      "stateMutability": "nonpayable",
      "type": "function"
    },
    {
      "inputs": [
        {
          "components": [
            {
              "internalType": "bytes32",
              "name": "x",
              "type": "bytes32"
            },
            {
              "internalType": "bytes32",
              "name": "y",
              "type": "bytes32"
            }
          ],
          "internalType": "struct Utils.G1Point",
          "name": "y",
          "type": "tuple"
        },
        {
          "internalType": "uint256",
          "name": "bTransfer",
          "type": "uint256"
        }
      ],
      "name": "fund",
      "outputs": [],
      "stateMutability": "nonpayable",
      "type": "function"
    },
    {
      "inputs": [
        {
          "components": [
            {
              "internalType": "bytes32",
              "name": "x",
              "type": "bytes32"
            },
            {
              "internalType": "bytes32",
              "name": "y",
              "type": "bytes32"
            }
          ],
          "internalType": "struct Utils.G1Point[]",
          "name": "C",
          "type": "tuple[]"
        },
        {
          "components": [
            {
              "internalType": "bytes32",
              "name": "x",
              "type": "bytes32"
            },
            {
              "internalType": "bytes32",
              "name": "y",
              "type": "bytes32"
            }
          ],
          "internalType": "struct Utils.G1Point",
          "name": "D",
          "type": "tuple"
        },
        {
          "components": [
            {
              "internalType": "bytes32",
              "name": "x",
              "type": "bytes32"
            },
            {
              "internalType": "bytes32",
              "name": "y",
              "type": "bytes32"
            }
          ],
          "internalType": "struct Utils.G1Point[]",
          "name": "y",
          "type": "tuple[]"
        },
        {
          "components": [
            {
              "internalType": "bytes32",
              "name": "x",
              "type": "bytes32"
            },
            {
              "internalType": "bytes32",
              "name": "y",
              "type": "bytes32"
            }
          ],
          "internalType": "struct Utils.G1Point",
          "name": "u",
          "type": "tuple"
        },
        {
          "internalType": "bytes",
          "name": "proof",
          "type": "bytes"
        },
        {
          "components": [
            {
              "internalType": "bytes32",
              "name": "x",
              "type": "bytes32"
            },
            {
              "internalType": "bytes32",
              "name": "y",
              "type": "bytes32"
            }
          ],
          "internalType": "struct Utils.G1Point",
          "name": "beneficiary",
          "type": "tuple"
        }
      ],
      "name": "transfer",
      "outputs": [],
      "stateMutability": "nonpayable",
      "type": "function"
    },
    {
      "inputs": [
        {
          "components": [
            {
              "internalType": "bytes32",
              "name": "x",
              "type": "bytes32"
            },
            {
              "internalType": "bytes32",
              "name": "y",
              "type": "bytes32"
            }
          ],
          "internalType": "struct Utils.G1Point",
          "name": "y",
          "type": "tuple"
        },
        {
          "internalType": "uint256",
          "name": "bTransfer",
          "type": "uint256"
        },
        {
          "components": [
            {
              "internalType": "bytes32",
              "name": "x",
              "type": "bytes32"
            },
            {
              "internalType": "bytes32",
              "name": "y",
              "type": "bytes32"
            }
          ],
          "internalType": "struct Utils.G1Point",
          "name": "u",
          "type": "tuple"
        },
        {
          "internalType": "bytes",
          "name": "proof",
          "type": "bytes"
        }
      ],
      "name": "burn",
      "outputs": [],
      "stateMutability": "nonpayable",
      "type": "function"
    }
  ],
  "bytecode": "0x608060405260006009553480156200001657600080fd5b5060405162003dc238038062003dc283398181016040528101906200003c919062000321565b836000806101000a81548173ffffffffffffffffffffffffffffffffffffffff021916908373ffffffffffffffffffffffffffffffffffffffff16021790555082600160006101000a81548173ffffffffffffffffffffffffffffffffffffffff021916908373ffffffffffffffffffffffffffffffffffffffff16021790555081600260006101000a81548173ffffffffffffffffffffffffffffffffffffffff021916908373ffffffffffffffffffffffffffffffffffffffff16021790555080600381905550600160009054906101000a900473ffffffffffffffffffffffffffffffffffffffff1673ffffffffffffffffffffffffffffffffffffffff1663ddca3f436040518163ffffffff1660e01b815260040160206040518083038186803b1580156200016e57600080fd5b505afa15801562000183573d6000803e3d6000fd5b505050506040513d601f19601f82011682018060405250810190620001a991906200038d565b600481905550620001b9620002d3565b620001ce6200026960201b62001c961760201c565b6006600083604051602001620001e59190620003fd565b60405160208183030381529060405280519060200120815260200190815260200160002060016002811062000243577f4e487b7100000000000000000000000000000000000000000000000000000000600052603260045260246000fd5b600202016000820151816000015560208201518160010155905050505050505062000496565b62000273620002d3565b60405180604001604052807f077da99d806abd13c9f15ece5398525119d11e11e9836b2ee7d23f6159ad87d460001b81526020017f01485efa927f2ad41bff567eec88f32fb0a0f706588b4e41a8d587d008b7f87560001b815250905090565b604051806040016040528060008019168152602001600080191681525090565b600081519050620003048162000462565b92915050565b6000815190506200031b816200047c565b92915050565b600080600080608085870312156200033857600080fd5b60006200034887828801620002f3565b94505060206200035b87828801620002f3565b93505060406200036e87828801620002f3565b925050606062000381878288016200030a565b91505092959194509250565b600060208284031215620003a057600080fd5b6000620003b0848285016200030a565b91505092915050565b620003c4816200042e565b82525050565b604082016000820151620003e26000850182620003b9565b506020820151620003f76020850182620003b9565b50505050565b6000604082019050620004146000830184620003ca565b92915050565b6000620004278262000438565b9050919050565b6000819050919050565b600073ffffffffffffffffffffffffffffffffffffffff82169050919050565b6000819050919050565b6200046d816200041a565b81146200047957600080fd5b50565b620004878162000458565b81146200049357600080fd5b50565b61391c80620004a66000396000f3fe608060405234801561001057600080fd5b506004361061007d5760003560e01c80637284cd301161005b5780637284cd30146100d857806379e543d0146100f45780639b0d85d314610124578063ddca3f43146101405761007d565b8063312a526c1461008257806357d775f81461009e578063599c1a93146100bc575b600080fd5b61009c600480360381019061009791906129ae565b61015e565b005b6100a66107fd565b6040516100b39190613249565b60405180910390f35b6100d660048036038101906100d19190612972565b610803565b005b6100f260048036038101906100ed9190612823565b610bb2565b005b61010e600480360381019061010991906128f5565b611586565b60405161011b9190612f21565b60405180910390f35b61013e60048036038101906101399190612a29565b611a77565b005b610148611c90565b6040516101559190613249565b60405180910390f35b60008460405160200161017191906131b5565b60405160208183030381529060405280519060200120905061019281611cfe565b6101d1576040517f08c379a00000000000000000000000000000000000000000000000000000000081526004016101c890613175565b60405180910390fd5b6101da81612067565b836000111580156101ef575063ffffffff8411155b61022e576040517f08c379a0000000000000000000000000000000000000000000000000000000008152600401610225906130d5565b60405180910390fd5b600060066000838152602001908152602001600020600280602002604051908101604052809291906000905b8282101561029657838260020201604051806040016040529081600082015481526020016001820154815250508152602001906001019061025a565b50505050905061030e6102c16102ab876124c0565b6102b3611c96565b6124f590919063ffffffff16565b826000600281106102fb577f4e487b7100000000000000000000000000000000000000000000000000000000600052603260045260246000fd5b602002015161252e90919063ffffffff16565b6006600084815260200190815260200160002060006002811061035a577f4e487b7100000000000000000000000000000000000000000000000000000000600052603260045260246000fd5b60020201600082015181600001556020820151816001015590505060056000838152602001908152602001600020600280602002604051908101604052809291906000905b828210156103db57838260020201604051806040016040529081600082015481526020016001820154815250508152602001906001019061039f565b5050505090506104536104066103f0876124c0565b6103f8611c96565b6124f590919063ffffffff16565b82600060028110610440577f4e487b7100000000000000000000000000000000000000000000000000000000600052603260045260246000fd5b602002015161252e90919063ffffffff16565b8160006002811061048d577f4e487b7100000000000000000000000000000000000000000000000000000000600052603260045260246000fd5b60200201819052506000846040516020016104a891906131b5565b60405160208183030381529060405280519060200120905060005b60088054905081101561056a57816008828154811061050b577f4e487b7100000000000000000000000000000000000000000000000000000000600052603260045260246000fd5b90600052602060002001541415610557576040517f08c379a000000000000000000000000000000000000000000000000000000000815260040161054e90613075565b60405180910390fd5b8080610562906134dc565b9150506104c3565b506008819080600181540180825580915050600190039060005260206000200160009091909190915055600260009054906101000a900473ffffffffffffffffffffffffffffffffffffffff1673ffffffffffffffffffffffffffffffffffffffff166391d16ac88360006002811061060c577f4e487b7100000000000000000000000000000000000000000000000000000000600052603260045260246000fd5b60200201518460016002811061064b577f4e487b7100000000000000000000000000000000000000000000000000000000600052603260045260246000fd5b60200201518a6009548a338b6040518863ffffffff1660e01b815260040161067997969594939291906131d0565b60206040518083038186803b15801561069157600080fd5b505afa1580156106a5573d6000803e3d6000fd5b505050506040513d601f19601f820116820180604052508101906106c99190612949565b610708576040517f08c379a00000000000000000000000000000000000000000000000000000000081526004016106ff90613195565b60405180910390fd5b60008054906101000a900473ffffffffffffffffffffffffffffffffffffffff1673ffffffffffffffffffffffffffffffffffffffff1663a9059cbb33886040518363ffffffff1660e01b8152600401610763929190612ef8565b602060405180830381600087803b15801561077d57600080fd5b505af1158015610791573d6000803e3d6000fd5b505050506040513d601f19601f820116820180604052508101906107b59190612949565b6107f4576040517f08c379a00000000000000000000000000000000000000000000000000000000081526004016107eb90613155565b60405180910390fd5b50505050505050565b60035481565b60008260405160200161081691906131b5565b60405160208183030381529060405280519060200120905061083781611cfe565b610876576040517f08c379a000000000000000000000000000000000000000000000000000000000815260040161086d90613175565b60405180910390fd5b61087f81612067565b63ffffffff8211156108c6576040517f08c379a00000000000000000000000000000000000000000000000000000000081526004016108bd90613095565b60405180910390fd5b600060066000838152602001908152602001600020600060028110610914577f4e487b7100000000000000000000000000000000000000000000000000000000600052603260045260246000fd5b6002020160405180604001604052908160008201548152602001600182015481525050905061096561095684610948611c96565b6124f590919063ffffffff16565b8261252e90919063ffffffff16565b905080600660008481526020019081526020016000206000600281106109b4577f4e487b7100000000000000000000000000000000000000000000000000000000600052603260045260246000fd5b60020201600082015181600001556020820151816001015590505060008054906101000a900473ffffffffffffffffffffffffffffffffffffffff1673ffffffffffffffffffffffffffffffffffffffff166323b872dd3330866040518463ffffffff1660e01b8152600401610a2c93929190612e8a565b602060405180830381600087803b158015610a4657600080fd5b505af1158015610a5a573d6000803e3d6000fd5b505050506040513d601f19601f82011682018060405250810190610a7e9190612949565b610abd576040517f08c379a0000000000000000000000000000000000000000000000000000000008152600401610ab490613115565b60405180910390fd5b63ffffffff60008054906101000a900473ffffffffffffffffffffffffffffffffffffffff1673ffffffffffffffffffffffffffffffffffffffff166370a08231306040518263ffffffff1660e01b8152600401610b1b9190612e6f565b60206040518083038186803b158015610b3357600080fd5b505afa158015610b47573d6000803e3d6000fd5b505050506040513d601f19601f82011682018060405250810190610b6b9190612a78565b1115610bac576040517f08c379a0000000000000000000000000000000000000000000000000000000008152600401610ba3906130b5565b60405180910390fd5b50505050565b60008451905060008167ffffffffffffffff811115610bfa577f4e487b7100000000000000000000000000000000000000000000000000000000600052604160045260246000fd5b604051908082528060200260200182016040528015610c3357816020015b610c206125cf565b815260200190600190039081610c185790505b50905060008267ffffffffffffffff811115610c78577f4e487b7100000000000000000000000000000000000000000000000000000000600052604160045260246000fd5b604051908082528060200260200182016040528015610cb157816020015b610c9e6125cf565b815260200190600190039081610c965790505b50905082895114610cf7576040517f08c379a0000000000000000000000000000000000000000000000000000000008152600401610cee90613015565b60405180910390fd5b600084604051602001610d0a91906131b5565b604051602081830303815290604052805190602001209050610d2b81611cfe565b610d6a576040517f08c379a0000000000000000000000000000000000000000000000000000000008152600401610d6190613055565b60405180910390fd5b610d7381612067565b610e0f610d92600454610d84611c96565b6124f590919063ffffffff16565b60066000848152602001908152602001600020600060028110610dde577f4e487b7100000000000000000000000000000000000000000000000000000000600052603260045260246000fd5b600202016040518060400160405290816000820154815260200160018201548152505061252e90919063ffffffff16565b60066000838152602001908152602001600020600060028110610e5b577f4e487b7100000000000000000000000000000000000000000000000000000000600052603260045260246000fd5b60020201600082015181600001556020820151816001015590505060005b84811015611346576000898281518110610ebc577f4e487b7100000000000000000000000000000000000000000000000000000000600052603260045260246000fd5b6020026020010151604051602001610ed491906131b5565b604051602081830303815290604052805190602001209050610ef581611cfe565b610f34576040517f08c379a0000000000000000000000000000000000000000000000000000000008152600401610f2b90613175565b60405180910390fd5b610f3d81612067565b600060066000838152602001908152602001600020600280602002604051908101604052809291906000905b82821015610fa5578382600202016040518060400160405290816000820154815260200160018201548152505081526020019060010190610f69565b50505050905061103c8d8481518110610fe7577f4e487b7100000000000000000000000000000000000000000000000000000000600052603260045260246000fd5b602002602001015182600060028110611029577f4e487b7100000000000000000000000000000000000000000000000000000000600052603260045260246000fd5b602002015161252e90919063ffffffff16565b60066000848152602001908152602001600020600060028110611088577f4e487b7100000000000000000000000000000000000000000000000000000000600052603260045260246000fd5b6002020160008201518160000155602082015181600101559050506110f48c826001600281106110e1577f4e487b7100000000000000000000000000000000000000000000000000000000600052603260045260246000fd5b602002015161252e90919063ffffffff16565b60066000848152602001908152602001600020600160028110611140577f4e487b7100000000000000000000000000000000000000000000000000000000600052603260045260246000fd5b60020201600082015181600001556020820151816001015590505060056000838152602001908152602001600020600280602002604051908101604052809291906000905b828210156111c1578382600202016040518060400160405290816000820154815260200160018201548152505081526020019060010190611185565b5050505090506112588d8481518110611203577f4e487b7100000000000000000000000000000000000000000000000000000000600052603260045260246000fd5b602002602001015182600060028110611245577f4e487b7100000000000000000000000000000000000000000000000000000000600052603260045260246000fd5b602002015161252e90919063ffffffff16565b868481518110611291577f4e487b7100000000000000000000000000000000000000000000000000000000600052603260045260246000fd5b60200260200101819052506112ed8c826001600281106112da577f4e487b7100000000000000000000000000000000000000000000000000000000600052603260045260246000fd5b602002015161252e90919063ffffffff16565b858481518110611326577f4e487b7100000000000000000000000000000000000000000000000000000000600052603260045260246000fd5b60200260200101819052505050808061133e906134dc565b915050610e79565b5060008760405160200161135a91906131b5565b60405160208183030381529060405280519060200120905060005b60088054905081101561141c5781600882815481106113bd577f4e487b7100000000000000000000000000000000000000000000000000000000600052603260045260246000fd5b90600052602060002001541415611409576040517f08c379a000000000000000000000000000000000000000000000000000000000815260040161140090613075565b60405180910390fd5b8080611414906134dc565b915050611375565b506008819080600181540180825580915050600190039060005260206000200160009091909190915055600160009054906101000a900473ffffffffffffffffffffffffffffffffffffffff1673ffffffffffffffffffffffffffffffffffffffff1663d2d5e70a85858e8e8e6009548f8f6040518963ffffffff1660e01b81526004016114b1989796959493929190612f43565b60206040518083038186803b1580156114c957600080fd5b505afa1580156114dd573d6000803e3d6000fd5b505050506040513d601f19601f820116820180604052508101906115019190612949565b611540576040517f08c379a000000000000000000000000000000000000000000000000000000000815260040161153790613135565b60405180910390fd5b7f306c363b04ebfc48d0bc8a89a5fb2e4230c37937d0530d50b8334d50eec63ef08987604051611571929190612fe5565b60405180910390a15050505050505050505050565b60606000835190508067ffffffffffffffff8111156115ce577f4e487b7100000000000000000000000000000000000000000000000000000000600052604160045260246000fd5b60405190808252806020026020018201604052801561160757816020015b6115f46125ef565b8152602001906001900390816115ec5790505b50915060005b81811015611a6f576000858281518110611650577f4e487b7100000000000000000000000000000000000000000000000000000000600052603260045260246000fd5b602002602001015160405160200161166891906131b5565b60405160208183030381529060405280519060200120905060056000828152602001908152602001600020600280602002604051908101604052809291906000905b828210156116e65783826002020160405180604001604052908160008201548152602001600182015481525050815260200190600101906116aa565b50505050848381518110611723577f4e487b7100000000000000000000000000000000000000000000000000000000600052603260045260246000fd5b60200260200101819052508460076000838152602001908152602001600020541015611a5b57600060066000838152602001908152602001600020600280602002604051908101604052809291906000905b828210156117b1578382600202016040518060400160405290816000820154815260200160018201548152505081526020019060010190611775565b505050509050611886816000600281106117f4577f4e487b7100000000000000000000000000000000000000000000000000000000600052603260045260246000fd5b6020020151868581518110611832577f4e487b7100000000000000000000000000000000000000000000000000000000600052603260045260246000fd5b6020026020010151600060028110611873577f4e487b7100000000000000000000000000000000000000000000000000000000600052603260045260246000fd5b602002015161252e90919063ffffffff16565b8584815181106118bf577f4e487b7100000000000000000000000000000000000000000000000000000000600052603260045260246000fd5b6020026020010151600060028110611900577f4e487b7100000000000000000000000000000000000000000000000000000000600052603260045260246000fd5b60200201819052506119d781600160028110611945577f4e487b7100000000000000000000000000000000000000000000000000000000600052603260045260246000fd5b6020020151868581518110611983577f4e487b7100000000000000000000000000000000000000000000000000000000600052603260045260246000fd5b60200260200101516001600281106119c4577f4e487b7100000000000000000000000000000000000000000000000000000000600052603260045260246000fd5b602002015161252e90919063ffffffff16565b858481518110611a10577f4e487b7100000000000000000000000000000000000000000000000000000000600052603260045260246000fd5b6020026020010151600160028110611a51577f4e487b7100000000000000000000000000000000000000000000000000000000600052603260045260246000fd5b6020020181905250505b508080611a67906134dc565b91505061160d565b505092915050565b6000611abf611a97611a88856124c0565b866124f590919063ffffffff16565b611ab184611aa3611c96565b6124f590919063ffffffff16565b61252e90919063ffffffff16565b90506000611af9308684604051602001611adb93929190612ec1565b6040516020818303038152906040528051906020012060001c612572565b9050838114611b3d576040517f08c379a0000000000000000000000000000000000000000000000000000000008152600401611b34906130f5565b60405180910390fd5b600085604051602001611b5091906131b5565b604051602081830303815290604052805190602001209050611b7181611cfe565b15611bb1576040517f08c379a0000000000000000000000000000000000000000000000000000000008152600401611ba890613035565b60405180910390fd5b8560066000838152602001908152602001600020600060028110611bfe577f4e487b7100000000000000000000000000000000000000000000000000000000600052603260045260246000fd5b600202016000820151816000015560208201518160010155905050611c21611c96565b60066000838152602001908152602001600020600160028110611c6d577f4e487b7100000000000000000000000000000000000000000000000000000000600052603260045260246000fd5b600202016000820151816000015560208201518160010155905050505050505050565b60045481565b611c9e6125cf565b60405180604001604052807f077da99d806abd13c9f15ece5398525119d11e11e9836b2ee7d23f6159ad87d460001b81526020017f01485efa927f2ad41bff567eec88f32fb0a0f706588b4e41a8d587d008b7f87560001b815250905090565b60008060405180604001604052806000801b81526020016000801b81525090506000604051806040016040528060056000878152602001908152602001600020600280602002604051908101604052809291906000905b82821015611d91578382600202016040518060400160405290816000820154815260200160018201548152505081526020019060010190611d55565b50505050815260200160066000878152602001908152602001600020600280602002604051908101604052809291906000905b82821015611e00578382600202016040518060400160405290816000820154815260200160018201548152505081526020019060010190611dc4565b505050508152509050611e988282600060028110611e47577f4e487b7100000000000000000000000000000000000000000000000000000000600052603260045260246000fd5b6020020151600060028110611e85577f4e487b7100000000000000000000000000000000000000000000000000000000600052603260045260246000fd5b60200201516125a790919063ffffffff16565b8015611f2f5750611f2e8282600060028110611edd577f4e487b7100000000000000000000000000000000000000000000000000000000600052603260045260246000fd5b6020020151600160028110611f1b577f4e487b7100000000000000000000000000000000000000000000000000000000600052603260045260246000fd5b60200201516125a790919063ffffffff16565b5b8015611fc65750611fc58282600160028110611f74577f4e487b7100000000000000000000000000000000000000000000000000000000600052603260045260246000fd5b6020020151600060028110611fb2577f4e487b7100000000000000000000000000000000000000000000000000000000600052603260045260246000fd5b60200201516125a790919063ffffffff16565b5b801561205d575061205c828260016002811061200b577f4e487b7100000000000000000000000000000000000000000000000000000000600052603260045260246000fd5b6020020151600160028110612049577f4e487b7100000000000000000000000000000000000000000000000000000000600052603260045260246000fd5b60200201516125a790919063ffffffff16565b5b1592505050919050565b60006003544261207791906133b2565b9050806007600084815260200190815260200160002054101561249c576000604051806040016040528060056000868152602001908152602001600020600280602002604051908101604052809291906000905b828210156121075783826002020160405180604001604052908160008201548152602001600182015481525050815260200190600101906120cb565b50505050815260200160066000868152602001908152602001600020600280602002604051908101604052809291906000905b8282101561217657838260020201604051806040016040529081600082015481526020016001820154815250508152602001906001019061213a565b50505050815250905061228a816001600281106121bc577f4e487b7100000000000000000000000000000000000000000000000000000000600052603260045260246000fd5b60200201516000600281106121fa577f4e487b7100000000000000000000000000000000000000000000000000000000600052603260045260246000fd5b602002015182600060028110612239577f4e487b7100000000000000000000000000000000000000000000000000000000600052603260045260246000fd5b6020020151600060028110612277577f4e487b7100000000000000000000000000000000000000000000000000000000600052603260045260246000fd5b602002015161252e90919063ffffffff16565b600560008581526020019081526020016000206000600281106122d6577f4e487b7100000000000000000000000000000000000000000000000000000000600052603260045260246000fd5b6002020160008201518160000155602082015181600101559050506123fc8160016002811061232e577f4e487b7100000000000000000000000000000000000000000000000000000000600052603260045260246000fd5b602002015160016002811061236c577f4e487b7100000000000000000000000000000000000000000000000000000000600052603260045260246000fd5b6020020151826000600281106123ab577f4e487b7100000000000000000000000000000000000000000000000000000000600052603260045260246000fd5b60200201516001600281106123e9577f4e487b7100000000000000000000000000000000000000000000000000000000600052603260045260246000fd5b602002015161252e90919063ffffffff16565b60056000858152602001908152602001600020600160028110612448577f4e487b7100000000000000000000000000000000000000000000000000000000600052603260045260246000fd5b600202016000820151816000015560208201518160010155905050600660008481526020019081526020016000206000612482919061261c565b816007600085815260200190815260200160002081905550505b8060095410156124bc5780600981905550600860006124bb9190612647565b5b5050565b6000817f30644e72e131a029b85045b68181585d2833e84879b9709143e1f593f00000016124ee91906133e3565b9050919050565b6124fd6125cf565b604051835181526020840151602082015282604082015260408260608360075afa61252757600080fd5b5092915050565b6125366125cf565b6040518351815260208401516020820152825160408201526020830151606082015260408260808360065afa61256b57600080fd5b5092915050565b60007f30644e72e131a029b85045b68181585d2833e84879b9709143e1f593f0000001826125a09190613525565b9050919050565b6000816000015183600001511480156125c7575081602001518360200151145b905092915050565b604051806040016040528060008019168152602001600080191681525090565b60405180604001604052806002905b6126066125cf565b8152602001906001900390816125fe5790505090565b5060008082016000905560018201600090555060020160008082016000905560018201600090555050565b50805460008255906000526020600020908101906126659190612668565b50565b5b80821115612681576000816000905550600101612669565b5090565b600061269861269384613289565b613264565b905080838252602082019050828560408602820111156126b757600080fd5b60005b858110156126e757816126cd88826127ad565b8452602084019350604083019250506001810190506126ba565b5050509392505050565b60006127046126ff846132b5565b613264565b90508281526020810184848401111561271c57600080fd5b612727848285613469565b509392505050565b600082601f83011261274057600080fd5b8135612750848260208601612685565b91505092915050565b600081519050612768816138a1565b92915050565b60008135905061277d816138b8565b92915050565b600082601f83011261279457600080fd5b81356127a48482602086016126f1565b91505092915050565b6000604082840312156127bf57600080fd5b6127c96040613264565b905060006127d98482850161276e565b60008301525060206127ed8482850161276e565b60208301525092915050565b600081359050612808816138cf565b92915050565b60008151905061281d816138cf565b92915050565b600080600080600080610120878903121561283d57600080fd5b600087013567ffffffffffffffff81111561285757600080fd5b61286389828a0161272f565b965050602061287489828a016127ad565b955050606087013567ffffffffffffffff81111561289157600080fd5b61289d89828a0161272f565b94505060806128ae89828a016127ad565b93505060c087013567ffffffffffffffff8111156128cb57600080fd5b6128d789828a01612783565b92505060e06128e889828a016127ad565b9150509295509295509295565b6000806040838503121561290857600080fd5b600083013567ffffffffffffffff81111561292257600080fd5b61292e8582860161272f565b925050602061293f858286016127f9565b9150509250929050565b60006020828403121561295b57600080fd5b600061296984828501612759565b91505092915050565b6000806060838503121561298557600080fd5b6000612993858286016127ad565b92505060406129a4858286016127f9565b9150509250929050565b60008060008060c085870312156129c457600080fd5b60006129d2878288016127ad565b94505060406129e3878288016127f9565b93505060606129f4878288016127ad565b92505060a085013567ffffffffffffffff811115612a1157600080fd5b612a1d87828801612783565b91505092959194509250565b600080600060808486031215612a3e57600080fd5b6000612a4c868287016127ad565b9350506040612a5d868287016127f9565b9250506060612a6e868287016127f9565b9150509250925092565b600060208284031215612a8a57600080fd5b6000612a988482850161280e565b91505092915050565b6000612aad8383612b3e565b60808301905092915050565b6000612ac58383612e02565b60408301905092915050565b612ada81613417565b82525050565b6000612aeb82613310565b612af58185613363565b9350612b00836132e6565b8060005b83811015612b31578151612b188882612aa1565b9750612b238361333c565b925050600181019050612b04565b5085935050505092915050565b612b478161331b565b612b518184613374565b9250612b5c826132f6565b8060005b83811015612b8d578151612b748782612ab9565b9650612b7f83613349565b925050600181019050612b60565b505050505050565b6000612ba082613326565b612baa818561337f565b9350612bb583613300565b8060005b83811015612be6578151612bcd8882612ab9565b9750612bd883613356565b925050600181019050612bb9565b5085935050505092915050565b612bfc81613435565b82525050565b6000612c0d82613331565b612c178185613390565b9350612c27818560208601613478565b612c30816135e3565b840191505092915050565b6000612c48601c836133a1565b9150612c53826135f4565b602082019050919050565b6000612c6b601b836133a1565b9150612c768261361d565b602082019050919050565b6000612c8e6026836133a1565b9150612c9982613646565b604082019050919050565b6000612cb16013836133a1565b9150612cbc82613695565b602082019050919050565b6000612cd4601c836133a1565b9150612cdf826136be565b602082019050919050565b6000612cf76028836133a1565b9150612d02826136e7565b604082019050919050565b6000612d1a601d836133a1565b9150612d2582613736565b602082019050919050565b6000612d3d601f836133a1565b9150612d488261375f565b602082019050919050565b6000612d60601c836133a1565b9150612d6b82613788565b602082019050919050565b6000612d836023836133a1565b9150612d8e826137b1565b604082019050919050565b6000612da66035836133a1565b9150612db182613800565b604082019050919050565b6000612dc9601b836133a1565b9150612dd48261384f565b602082019050919050565b6000612dec601f836133a1565b9150612df782613878565b602082019050919050565b604082016000820151612e186000850182612bf3565b506020820151612e2b6020850182612bf3565b50505050565b604082016000820151612e476000850182612bf3565b506020820151612e5a6020850182612bf3565b50505050565b612e698161345f565b82525050565b6000602082019050612e846000830184612ad1565b92915050565b6000606082019050612e9f6000830186612ad1565b612eac6020830185612ad1565b612eb96040830184612e60565b949350505050565b600060a082019050612ed66000830186612ad1565b612ee36020830185612e31565b612ef06060830184612e31565b949350505050565b6000604082019050612f0d6000830185612ad1565b612f1a6020830184612e60565b9392505050565b60006020820190508181036000830152612f3b8184612ae0565b905092915050565b6000610140820190508181036000830152612f5e818b612b95565b90508181036020830152612f72818a612b95565b90508181036040830152612f868189612b95565b9050612f956060830188612e31565b81810360a0830152612fa78187612b95565b9050612fb660c0830186612e60565b612fc360e0830185612e31565b818103610120830152612fd68184612c02565b90509998505050505050505050565b60006060820190508181036000830152612fff8185612b95565b905061300e6020830184612e31565b9392505050565b6000602082019050818103600083015261302e81612c3b565b9050919050565b6000602082019050818103600083015261304e81612c5e565b9050919050565b6000602082019050818103600083015261306e81612c81565b9050919050565b6000602082019050818103600083015261308e81612ca4565b9050919050565b600060208201905081810360008301526130ae81612cc7565b9050919050565b600060208201905081810360008301526130ce81612cea565b9050919050565b600060208201905081810360008301526130ee81612d0d565b9050919050565b6000602082019050818103600083015261310e81612d30565b9050919050565b6000602082019050818103600083015261312e81612d53565b9050919050565b6000602082019050818103600083015261314e81612d76565b9050919050565b6000602082019050818103600083015261316e81612d99565b9050919050565b6000602082019050818103600083015261318e81612dbc565b9050919050565b600060208201905081810360008301526131ae81612ddf565b9050919050565b60006040820190506131ca6000830184612e31565b92915050565b6000610160820190506131e6600083018a612e31565b6131f36040830189612e31565b6132006080830188612e31565b61320d60c0830187612e60565b61321a60e0830186612e31565b613228610120830185612ad1565b81810361014083015261323b8184612c02565b905098975050505050505050565b600060208201905061325e6000830184612e60565b92915050565b600061326e61327f565b905061327a82826134ab565b919050565b6000604051905090565b600067ffffffffffffffff8211156132a4576132a36135b4565b5b602082029050602081019050919050565b600067ffffffffffffffff8211156132d0576132cf6135b4565b5b6132d9826135e3565b9050602081019050919050565b6000819050602082019050919050565b6000819050919050565b6000819050602082019050919050565b600081519050919050565b600060029050919050565b600081519050919050565b600081519050919050565b6000602082019050919050565b6000602082019050919050565b6000602082019050919050565b600082825260208201905092915050565b600081905092915050565b600082825260208201905092915050565b600082825260208201905092915050565b600082825260208201905092915050565b60006133bd8261345f565b91506133c88361345f565b9250826133d8576133d7613585565b5b828204905092915050565b60006133ee8261345f565b91506133f98361345f565b92508282101561340c5761340b613556565b5b828203905092915050565b60006134228261343f565b9050919050565b60008115159050919050565b6000819050919050565b600073ffffffffffffffffffffffffffffffffffffffff82169050919050565b6000819050919050565b82818337600083830152505050565b60005b8381101561349657808201518184015260208101905061347b565b838111156134a5576000848401525b50505050565b6134b4826135e3565b810181811067ffffffffffffffff821117156134d3576134d26135b4565b5b80604052505050565b60006134e78261345f565b91507fffffffffffffffffffffffffffffffffffffffffffffffffffffffffffffffff82141561351a57613519613556565b5b600182019050919050565b60006135308261345f565b915061353b8361345f565b92508261354b5761354a613585565b5b828206905092915050565b7f4e487b7100000000000000000000000000000000000000000000000000000000600052601160045260246000fd5b7f4e487b7100000000000000000000000000000000000000000000000000000000600052601260045260246000fd5b7f4e487b7100000000000000000000000000000000000000000000000000000000600052604160045260246000fd5b6000601f19601f8301169050919050565b7f496e707574206172726179206c656e677468206d69736d617463682100000000600082015250565b7f4163636f756e7420616c72656164792072656769737465726564210000000000600082015250565b7f4d696e65722773206163636f756e74206973206e6f742079657420726567697360008201527f74657265642e0000000000000000000000000000000000000000000000000000602082015250565b7f4e6f6e636520616c7265616479207365656e2100000000000000000000000000600082015250565b7f4465706f73697420616d6f756e74206f7574206f662072616e67652e00000000600082015250565b7f46756e642070757368657320636f6e74726163742070617374206d6178696d7560008201527f6d2076616c75652e000000000000000000000000000000000000000000000000602082015250565b7f5472616e7366657220616d6f756e74206f7574206f662072616e67652e000000600082015250565b7f496e76616c696420726567697374726174696f6e207369676e61747572652100600082015250565b7f5472616e736665722066726f6d2073656e646572206661696c65642e00000000600082015250565b7f5472616e736665722070726f6f6620766572696669636174696f6e206661696c60008201527f6564210000000000000000000000000000000000000000000000000000000000602082015250565b7f546869732073686f756c646e2774206661696c2e2e2e20536f6d657468696e6760008201527f2077656e74207365766572656c792077726f6e672e0000000000000000000000602082015250565b7f4163636f756e74206e6f742079657420726567697374657265642e0000000000600082015250565b7f4275726e2070726f6f6620766572696669636174696f6e206661696c65642100600082015250565b6138aa81613429565b81146138b557600080fd5b50565b6138c181613435565b81146138cc57600080fd5b50565b6138d88161345f565b81146138e357600080fd5b5056fea2646970667358221220e5ab5c39330874c139aabf297a5590abdec5d8584485033cb3437dfaaf27ac5264736f6c63430008020033",
  "immutableReferences": {},
  "source": "// SPDX-License-Identifier: Apache License 2.0\n\npragma solidity ^0.8.0;\npragma experimental ABIEncoderV2;\n\nimport \"./EddyStreetToken.sol\";\nimport \"./Utils.sol\";\nimport \"./InnerProductVerifier.sol\";\nimport \"./ZetherVerifier.sol\";\nimport \"./BurnVerifier.sol\";\n\ncontract ZSC {\n    using Utils for uint256;\n    using Utils for Utils.G1Point;\n\n    EddyStreetToken EdToken;\n    ZetherVerifier zetherVerifier;\n    BurnVerifier burnVerifier;\n    uint256 public epochLength;\n    uint256 public fee;\n\n    uint256 constant MAX = 4294967295; \n    mapping(bytes32 => Utils.G1Point[2]) acc; \n    mapping(bytes32 => Utils.G1Point[2]) pending;\n    mapping(bytes32 => uint256) lastRollOver;\n    bytes32[] nonceSet; \n    uint256 lastGlobalUpdate = 0; \n\n    event TransferOccurred(Utils.G1Point[] parties, Utils.G1Point beneficiary);\n\n    constructor(address _edToken, address _zether, address _burn, uint256 _epochLength) { \n        EdToken = EddyStreetToken(_edToken);\n        zetherVerifier = ZetherVerifier(_zether);\n        burnVerifier = BurnVerifier(_burn);\n        epochLength = _epochLength;\n        fee = zetherVerifier.fee();\n        Utils.G1Point memory empty;\n        pending[keccak256(abi.encode(empty))][1] = Utils.g(); \n    }\n\n    function simulateAccounts(Utils.G1Point[] memory y, uint256 epoch) view public returns (Utils.G1Point[2][] memory accounts) {\n        uint256 size = y.length;\n        accounts = new Utils.G1Point[2][](size);\n        for (uint256 i = 0; i < size; i++) {\n            bytes32 yHash = keccak256(abi.encode(y[i]));\n            accounts[i] = acc[yHash];\n            if (lastRollOver[yHash] < epoch) {\n                Utils.G1Point[2] memory scratch = pending[yHash];\n                accounts[i][0] = accounts[i][0].add(scratch[0]);\n                accounts[i][1] = accounts[i][1].add(scratch[1]);\n            }\n        }\n    }\n\n    function rollOver(bytes32 yHash) internal {\n        uint256 e = block.timestamp / epochLength;\n        if (lastRollOver[yHash] < e) {\n            Utils.G1Point[2][2] memory scratch = [acc[yHash], pending[yHash]];\n            acc[yHash][0] = scratch[0][0].add(scratch[1][0]);\n            acc[yHash][1] = scratch[0][1].add(scratch[1][1]);\n            // acc[yHash] = scratch[0]; \n            delete pending[yHash]; // pending[yHash] = [Utils.G1Point(0, 0), Utils.G1Point(0, 0)];\n            lastRollOver[yHash] = e;\n        }\n        if (lastGlobalUpdate < e) {\n            lastGlobalUpdate = e;\n            delete nonceSet;\n        }\n    }\n\n    function registered(bytes32 yHash) internal view returns (bool) {\n        Utils.G1Point memory zero = Utils.G1Point(0, 0);\n        Utils.G1Point[2][2] memory scratch = [acc[yHash], pending[yHash]];\n        return !(scratch[0][0].eq(zero) && scratch[0][1].eq(zero) && scratch[1][0].eq(zero) && scratch[1][1].eq(zero));\n    }\n\n    function register(Utils.G1Point memory y, uint256 c, uint256 s) public {\n        // allows y to participate. c, s should be a Schnorr signature on \"this\"\n        Utils.G1Point memory K = Utils.g().mul(s).add(y.mul(c.neg()));\n        uint256 challenge = uint256(keccak256(abi.encode(address(this), y, K))).mod();\n        require(challenge == c, \"Invalid registration signature!\");\n        bytes32 yHash = keccak256(abi.encode(y));\n        require(!registered(yHash), \"Account already registered!\");\n        // pending[yHash] = [y, Utils.g()];\n        pending[yHash][0] = y;\n        pending[yHash][1] = Utils.g();\n    }\n\n    function fund(Utils.G1Point memory y, uint256 bTransfer) public {\n        bytes32 yHash = keccak256(abi.encode(y));\n        require(registered(yHash), \"Account not yet registered.\");\n        rollOver(yHash);\n\n        require(bTransfer <= MAX, \"Deposit amount out of range.\"); \n\n        Utils.G1Point memory scratch = pending[yHash][0];\n        scratch = scratch.add(Utils.g().mul(bTransfer));\n        pending[yHash][0] = scratch;\n        require(EdToken.transferFrom(msg.sender, address(this), bTransfer), \"Transfer from sender failed.\");\n        require(EdToken.balanceOf(address(this)) <= MAX, \"Fund pushes contract past maximum value.\");\n    }\n\n    function transfer(Utils.G1Point[] memory C, Utils.G1Point memory D, Utils.G1Point[] memory y, Utils.G1Point memory u, bytes memory proof, Utils.G1Point memory beneficiary) public {\n        uint256 size = y.length;\n        Utils.G1Point[] memory CLn = new Utils.G1Point[](size);\n        Utils.G1Point[] memory CRn = new Utils.G1Point[](size);\n        require(C.length == size, \"Input array length mismatch!\");\n\n        bytes32 beneficiaryHash = keccak256(abi.encode(beneficiary));\n        require(registered(beneficiaryHash), \"Miner's account is not yet registered.\"); \n        rollOver(beneficiaryHash);\n        pending[beneficiaryHash][0] = pending[beneficiaryHash][0].add(Utils.g().mul(fee));\n\n        for (uint256 i = 0; i < size; i++) {\n            bytes32 yHash = keccak256(abi.encode(y[i]));\n            require(registered(yHash), \"Account not yet registered.\");\n            rollOver(yHash);\n            Utils.G1Point[2] memory scratch = pending[yHash];\n            pending[yHash][0] = scratch[0].add(C[i]);\n            pending[yHash][1] = scratch[1].add(D);\n\n            scratch = acc[yHash]; // trying to save an sload, i guess.\n            CLn[i] = scratch[0].add(C[i]);\n            CRn[i] = scratch[1].add(D);\n        }\n\n        bytes32 uHash = keccak256(abi.encode(u));\n        for (uint256 i = 0; i < nonceSet.length; i++) {\n            require(nonceSet[i] != uHash, \"Nonce already seen!\");\n        }\n        nonceSet.push(uHash);\n\n        require(zetherVerifier.verifyTransfer(CLn, CRn, C, D, y, lastGlobalUpdate, u, proof), \"Transfer proof verification failed!\");\n\n        emit TransferOccurred(y, beneficiary);\n    }\n\n    function burn(Utils.G1Point memory y, uint256 bTransfer, Utils.G1Point memory u, bytes memory proof) public {\n        bytes32 yHash = keccak256(abi.encode(y));\n        require(registered(yHash), \"Account not yet registered.\");\n        rollOver(yHash);\n\n        require(0 <= bTransfer && bTransfer <= MAX, \"Transfer amount out of range.\");\n        Utils.G1Point[2] memory scratch = pending[yHash];\n        pending[yHash][0] = scratch[0].add(Utils.g().mul(bTransfer.neg()));\n\n        scratch = acc[yHash]; // simulate debit of acc---just for use in verification, won't be applied\n        scratch[0] = scratch[0].add(Utils.g().mul(bTransfer.neg()));\n        bytes32 uHash = keccak256(abi.encode(u));\n        for (uint256 i = 0; i < nonceSet.length; i++) {\n            require(nonceSet[i] != uHash, \"Nonce already seen!\");\n        }\n        nonceSet.push(uHash);\n\n        require(burnVerifier.verifyBurn(scratch[0], scratch[1], y, lastGlobalUpdate, u, msg.sender, proof), \"Burn proof verification failed!\");\n        require(EdToken.transfer(msg.sender, bTransfer), \"This shouldn't fail... Something went severely wrong.\");\n    }\n}\n",
  "sourcePath": "/home/semiott/Apps/eth-apps/EddyNet/core/contracts/ZSC.sol",
  "compiler": {
    "name": "solc",
    "version": "0.8.2+commit.661d1103.Emscripten.clang"
  },
  "schemaVersion": "3.3.4",
  "updatedAt": "2021-03-21T17:16:14.282Z",
  "devdoc": {
    "kind": "dev",
    "methods": {},
    "version": 1
  },
  "userdoc": {
    "kind": "user",
    "methods": {},
    "version": 1
  }
}